:020000040000FA
:0400000080EF00F09D
:020004000000FA
:0A000600100E396EC10ED7EC02F0A7
:10001000040E97EC02F08A0ED7EC02F0A50E97ECD6
:1000200002F0A50E97EC02F0A50E97EC02F02EEC74
:1000300000F08A0ED7EC02F0200E97EC02F0200EB2
:1000400097EC02F0200E97EC02F0392EE4D7C10EA7
:10005000D7EC02F0030E97EC02F01200900E3A6E0D
:100060003A2E01D01200900E3B6E3B2E01D0F8D7F5
:0A007000900E3C6E3C2EFED7F8D730
:06007A002A202A202A20A2
:100080002A202A202A202A00202A202A202A202A40
:10009000202A202A2000202020202020202020206C
:0400A00020202000FC
:0C00A4005052455353204120544F204837
:0400B000415443482C
:0200B400120038
:100100007F9C7F8E59EC02F0ECEC00F0D5EC0CF00B
:100110008AEF00F0000000000000BEEC0EF0FF0EC1
:10012000066E000E826FF2EC00F0826F410E826369
:10013000F6D7CFEC0EF04AEC02F0EAEC0EF0FE0E31
:10014000066EFE0E076E010E086EF40E056E030EAF
:100150000A6E000E096E9DEC03F0DEEC05F0000E59
:10016000826FF2EC00F0826F410E826301D0F7D70C
:10017000420E826304D009505AEC00F0F0D7430ECF
:10018000826308D0095003EC00F0F40E056EAAEC6F
:1001900001F0E5D7440E826308D009501FEC0CF043
:1001A000F40E056EAAEC01F0DAD7450E826308D092
:1001B000095024EC08F0F40E056EAAEC01F0CFD73C
:1001C000460E8263CCD7095005EC0DF0096EF40E93
:1001D000056EAAEC01F0C3D78D6AFF0E206E34ECD9
:1001E00001F01200F8EC00F00DD016EC01F028D070
:1001F000F00E966E538D0F0E846EFF0E206E34EC53
:1002000001F0120084A803D0000E806FEED784AAFC
:1002100003D0010E806FE9D784AC03D0020E806F4B
:10022000E4D784AE76D0030E806FDFD70F0E966EC4
:10023000538DF00E846EFF0E206E34EC01F0120030
:1002400084A003D0040E816F12D084A203D0050EC7
:10025000816F0DD084A403D0060E816F08D084A6D0
:10026000D1D7070E816F03D0202EFED71200000ECB
:10027000806313D001D01200040E816302D0310ECE
:100280001200050E816302D0320E1200060E816349
:1002900002D0330E1200460E1200010E806312D0FF
:1002A00000D0040E816302D0340E1200050E81636B
:1002B00002D0350E1200060E816302D0360E1200F7
:1002C000450E1200020E806312D000D0040E81632E
:1002D00002D0370E1200050E816302D0380E1200D4
:1002E000060E816302D0390E1200440E120000D0B7
:1002F000040E816302D0410E1200050E816302D00C
:10030000300E1200060E816302D0420E1200430E20
:100310001200FF0E066201D075D7062E73D7072E86
:1003200001D003D0FE0E066E6DD7082E01D003D08B
:10033000FE0E076E67D7010E055EAAEC01F0000EF7
:100340000564C9EC01F0FE0E066EFE0E076E010E8E
:10035000086E58D7C00ED7EC02F0960E056004D098
:10036000320E056008D00ED0C00ED7EC02F0050E9C
:1003700097EC02F01200C00ED7EC02F0060E97ECDC
:1003800002F01200C00ED7EC02F0070E97EC02F05C
:100390001200010E0A5E020E0A6201D004D0010EA4
:1003A0000A621FD00FD0820ED7EC02F0200E97EC1D
:1003B00002F0F40E056EC00ED7EC02F0050E97ECBD
:1003C00002F01200810ED7EC02F0200E97EC02F042
:1003D000F40E056EC00ED7EC02F0050E97EC02F09D
:1003E0001200D0EC02F0C90ED7EC02F0000E97EC30
:1003F00002F04AEC02F04AEC02F04AEC02F04AEC5D
:1004000002F0C90ED7EC02F0200E97EC02F0000EBD
:1004100097EC02F04AEC02F0CA0ED7EC02F0200E84
:1004200097EC02F0000E97EC02F04AEC02F0CB0ED3
:10043000D7EC02F0200E97EC02F0000E97EC02F0E1
:100440004AEC02F0CC0ED7EC02F0200E97EC02F052
:10045000000E97EC02F04AEC02F0CD0ED7EC02F061
:10046000200E97EC02F0000E97EC02F04AEC02F03E
:10047000CE0ED7EC02F0200E97EC02F0000E97ECB7
:1004800002F04AEC02F0CF0ED7EC02F0200E97EC0F
:1004900002F036D6FF0E0B6E0B2E01D01200FF0EAF
:1004A0000C6E0C2E01D0F8D7FF0E0D6E0D2EFED760
:0204B000F8D77B
:0E04B2008A6AC00E936E280EBAEC02F0300E6D
:1004C00089EC02F00A0EC1EC02F0280E89EC02F071
:1004D0000A0EC1EC02F0280E89EC02F00A0EC1EC03
:1004E00002F00C0E89EC02F00A0EC1EC02F0D0EC26
:1004F00002F0060E89EC02F00A0EC1EC02F0DDEC0F
:1005000002F01200046EEE5097EC02F0042EFBD7BE
:100510001200036E03380F0B8A6E8A98A8EC02F063
:1005200003500F0B8A6E8A98A8EC02F01200036E3B
:1005300003380F0B8A6E8A88A8EC02F003500F0B69
:100540008A6E8A88A8EC02F00A0EC1EC02F0120052
:10055000000000000000000000000000000000009B
:100560008A8A000000000000000000000000000077
:100570008A9A1200026EFA0EC1EC02F0022EFBD72C
:100580001200006E003A0F0E0014016EF00E0016FD
:10059000CBEC02F01200000E0006015AFDE2120040
:1005A000010E89EC02F0020EBAEC02F0120089ECA6
:1005B00002F00A0EC1EC02F01200400E89EC02F0CB
:1005C0000A0EC1EC02F0000E97EC02F00A0EC1EC2C
:1005D00002F0410E89EC02F00A0EC1EC02F0040EAA
:1005E00097EC02F00A0EC1EC02F0420E89EC02F028
:1005F0000A0EC1EC02F00A0E97EC02F00A0EC1ECF2
:1006000002F0430E89EC02F00A0EC1EC02F0150E66
:1006100097EC02F00A0EC1EC02F0440E89EC02F0F5
:100620000A0EC1EC02F01B0E97EC02F00A0EC1ECB0
:1006300002F0450E89EC02F00A0EC1EC02F0150E34
:1006400097EC02F00A0EC1EC02F0460E89EC02F0C3
:100650000A0EC1EC02F01B0E97EC02F00A0EC1EC80
:1006600002F0470E89EC02F00A0EC1EC02F00E0E09
:1006700097EC02F00A0EC1EC02F0480E89EC02F091
:100680000A0EC1EC02F0000E97EC02F00A0EC1EC6B
:1006900002F0490E89EC02F00A0EC1EC02F00A0EDB
:1006A00097EC02F00A0EC1EC02F04A0E89EC02F05F
:1006B0000A0EC1EC02F0150E97EC02F00A0EC1EC26
:1006C00002F04B0E89EC02F00A0EC1EC02F0110EA2
:1006D00097EC02F00A0EC1EC02F04C0E89EC02F02D
:1006E0000A0EC1EC02F0110E97EC02F00A0EC1ECFA
:1006F00002F04D0E89EC02F00A0EC1EC02F00A0E77
:1007000097EC02F00A0EC1EC02F04E0E89EC02F0FA
:100710000A0EC1EC02F0040E97EC02F00A0EC1ECD6
:1007200002F04F0E89EC02F00A0EC1EC02F0000E4E
:1007300097EC02F00A0EC1EC02F0500E89EC02F0C8
:100740000A0EC1EC02F0000E97EC02F00A0EC1ECAA
:1007500002F0510E89EC02F00A0EC1EC02F0000E1C
:1007600097EC02F00A0EC1EC02F0520E89EC02F096
:100770000A0EC1EC02F0000E97EC02F00A0EC1EC7A
:1007800002F0530E89EC02F00A0EC1EC02F0000EEA
:1007900097EC02F00A0EC1EC02F0540E89EC02F064
:1007A0000A0EC1EC02F0000E97EC02F00A0EC1EC4A
:1007B00002F0550E89EC02F00A0EC1EC02F0000EB8
:1007C00097EC02F00A0EC1EC02F0560E89EC02F032
:1007D0000A0EC1EC02F00C0E97EC02F00A0EC1EC0E
:1007E00002F0570E89EC02F00A0EC1EC02F00C0E7A
:1007F00097EC02F00A0EC1EC02F0580E89EC02F000
:100800000A0EC1EC02F0000E97EC02F00A0EC1ECE9
:1008100002F0590E89EC02F00A0EC1EC02F0150E3E
:1008200097EC02F00A0EC1EC02F05A0E89EC02F0CD
:100830000A0EC1EC02F00E0E97EC02F00A0EC1ECAB
:1008400002F05B0E89EC02F00A0EC1EC02F01F0E02
:1008500097EC02F00A0EC1EC02F05C0E89EC02F09B
:100860000A0EC1EC02F00E0E97EC02F00A0EC1EC7B
:1008700002F05D0E89EC02F00A0EC1EC02F0150EDA
:1008800097EC02F00A0EC1EC02F05E0E89EC02F069
:100890000A0EC1EC02F0000E97EC02F00A0EC1EC59
:1008A00002F05F0E89EC02F00A0EC1EC02F0000EBD
:1008B00097EC02F00A0EC1EC02F0600E89EC02F037
:1008C0000A0EC1EC02F0000E97EC02F00A0EC1EC29
:1008D00002F0610E89EC02F00A0EC1EC02F00F0E7C
:1008E00097EC02F00A0EC1EC02F0620E89EC02F005
:1008F0000A0EC1EC02F01C0E97EC02F00A0EC1ECDD
:1009000002F0630E89EC02F00A0EC1EC02F0180E40
:1009100097EC02F00A0EC1EC02F0640E89EC02F0D2
:100920000A0EC1EC02F0180E97EC02F00A0EC1ECB0
:1009300002F0650E89EC02F00A0EC1EC02F01C0E0A
:1009400097EC02F00A0EC1EC02F0660E89EC02F0A0
:100950000A0EC1EC02F00F0E97EC02F00A0EC1EC89
:1009600002F0670E89EC02F00A0EC1EC02F0000EF4
:1009700097EC02F00A0EC1EC02F0680E89EC02F06E
:100980000A0EC1EC02F0000E97EC02F00A0EC1EC68
:1009900002F0690E89EC02F00A0EC1EC02F0000EC2
:1009A00097EC02F00A0EC1EC02F06A0E89EC02F03C
:1009B0000A0EC1EC02F00A0E97EC02F00A0EC1EC2E
:1009C00002F06B0E89EC02F00A0EC1EC02F0000E90
:1009D00097EC02F00A0EC1EC02F06C0E89EC02F00A
:1009E0000A0EC1EC02F0000E97EC02F00A0EC1EC08
:1009F00002F06D0E89EC02F00A0EC1EC02F00A0E54
:100A000097EC02F00A0EC1EC02F06E0E89EC02F0D7
:100A10000A0EC1EC02F00E0E97EC02F00A0EC1ECC9
:100A200002F06F0E89EC02F00A0EC1EC02F0000E2B
:100A300097EC02F00A0EC1EC02F0700E89EC02F0A5
:100A40000A0EC1EC02F0000E97EC02F00A0EC1ECA7
:100A500002F0710E89EC02F00A0EC1EC02F0000EF9
:100A600097EC02F00A0EC1EC02F0720E89EC02F073
:100A70000A0EC1EC02F00A0E97EC02F00A0EC1EC6D
:100A800002F0730E89EC02F00A0EC1EC02F0000EC7
:100A900097EC02F00A0EC1EC02F0740E89EC02F041
:100AA0000A0EC1EC02F0000E97EC02F00A0EC1EC47
:100AB00002F0750E89EC02F00A0EC1EC02F00E0E87
:100AC00097EC02F00A0EC1EC02F0760E89EC02F00F
:100AD0000A0EC1EC02F0000E97EC02F00A0EC1EC17
:100AE00002F0770E89EC02F00A0EC1EC02F0000E63
:100AF00097EC02F00A0EC1EC02F0780E89EC02F0DD
:100B00000A0EC1EC02F0000E97EC02F00A0EC1ECE6
:100B100002F0790E89EC02F00A0EC1EC02F0000E30
:100B200097EC02F00A0EC1EC02F07A0E89EC02F0AA
:100B30000A0EC1EC02F00A0E97EC02F00A0EC1ECAC
:100B400002F07B0E89EC02F00A0EC1EC02F0000EFE
:100B500097EC02F00A0EC1EC02F07C0E89EC02F078
:100B60000A0EC1EC02F0000E97EC02F00A0EC1EC86
:100B700002F07D0E89EC02F00A0EC1EC02F00E0EBE
:100B800097EC02F00A0EC1EC02F07E0E89EC02F046
:100B90000A0EC1EC02F00A0E97EC02F00A0EC1EC4C
:100BA00002F07F0E89EC02F00A0EC1EC02F0000E9A
:100BB00097EC02F00A0EC1EC02F01200400E89EC34
:100BC00002F00A0EC1EC02F00E0E97EC02F00A0ED3
:100BD000C1EC02F0410E89EC02F00A0EC1EC02F009
:100BE0001F0E97EC02F00A0EC1EC02F0420E89ECE7
:100BF00002F00A0EC1EC02F0150E97EC02F00A0E9C
:100C0000C1EC02F0430E89EC02F00A0EC1EC02F0D6
:100C10001F0E97EC02F00A0EC1EC02F0440E89ECB4
:100C200002F00A0EC1EC02F01F0E97EC02F00A0E61
:100C3000C1EC02F0450E89EC02F00A0EC1EC02F0A4
:100C40001F0E97EC02F00A0EC1EC02F0460E89EC82
:100C500002F00A0EC1EC02F0150E97EC02F00A0E3B
:100C6000C1EC02F0470E89EC02F00A0EC1EC02F072
:100C7000000E97EC02F00A0EC1EC02F01200500ECA
:100C800089EC02F00A0EC1EC02F0000E97EC02F0C3
:100C90000A0EC1EC02F0510E89EC02F00A0EC1EC12
:100CA00002F0000E97EC02F00A0EC1EC02F0520EB8
:100CB00089EC02F00A0EC1EC02F0000E97EC02F093
:100CC0000A0EC1EC02F0530E89EC02F00A0EC1ECE0
:100CD00002F00A0E97EC02F00A0EC1EC02F0540E7C
:100CE00089EC02F00A0EC1EC02F00A0E97EC02F059
:100CF0000A0EC1EC02F0550E89EC02F00A0EC1ECAE
:100D000002F00E0E97EC02F00A0EC1EC02F0560E45
:100D100089EC02F00A0EC1EC02F00E0E97EC02F024
:100D20000A0EC1EC02F0570E89EC02F00A0EC1EC7B
:100D300002F00E0E97EC02F00A0EC1EC02F0120067
:100D4000500E89EC02F00A0EC1EC02F0000E97EC96
:100D500002F00A0EC1EC02F0510E89EC02F00A0E0C
:100D6000C1EC02F00A0E97EC02F00A0EC1EC02F0A0
:100D7000520E89EC02F00A0EC1EC02F00A0E97EC5A
:100D800002F00A0EC1EC02F0530E89EC02F00A0EDA
:100D9000C1EC02F01F0E97EC02F00A0EC1EC02F05B
:100DA000540E89EC02F00A0EC1EC02F0150E97EC1D
:100DB00002F00A0EC1EC02F0550E89EC02F00A0EA8
:100DC000C1EC02F01B0E97EC02F00A0EC1EC02F02F
:100DD000560E89EC02F00A0EC1EC02F01F0E97ECE1
:100DE00002F00A0EC1EC02F0570E89EC02F00A0E76
:100DF000C1EC02F00E0E97EC02F00A0EC1EC02F00C
:100E00001200500E89EC02F00A0EC1EC02F01B0E2B
:100E100097EC02F00A0EC1EC02F0510E89EC02F0E0
:100E20000A0EC1EC02F00A0E97EC02F00A0EC1ECB9
:100E300002F0520E89EC02F00A0EC1EC02F01F0E15
:100E400097EC02F00A0EC1EC02F0530E89EC02F0AE
:100E50000A0EC1EC02F0150E97EC02F00A0EC1EC7E
:100E600002F0540E89EC02F00A0EC1EC02F01B0EE7
:100E700097EC02F00A0EC1EC02F0550E89EC02F07C
:100E80000A0EC1EC02F01F0E97EC02F00A0EC1EC44
:100E900002F0560E89EC02F00A0EC1EC02F00E0EC2
:100EA00097EC02F00A0EC1EC02F0570E89EC02F04A
:100EB0000A0EC1EC02F01F0E97EC02F00A0EC1EC14
:100EC00002F01200400E89EC02F00A0EC1EC02F0B2
:100ED000040E97EC02F00A0EC1EC02F0410E89EC10
:100EE00002F00A0EC1EC02F0040E97EC02F00A0EBA
:100EF000C1EC02F0420E89EC02F00A0EC1EC02F0E5
:100F00000E0E97EC02F00A0EC1EC02F0430E89ECD3
:100F100002F00A0EC1EC02F0150E97EC02F00A0E78
:100F2000C1EC02F0440E89EC02F00A0EC1EC02F0B2
:100F30001B0E97EC02F00A0EC1EC02F0450E89EC94
:100F400002F00A0EC1EC02F0150E97EC02F00A0E48
:100F5000C1EC02F0460E89EC02F00A0EC1EC02F080
:100F60000E0E97EC02F00A0EC1EC02F0470E89EC6F
:100F700002F00A0EC1EC02F0000E97EC02F00A0E2D
:100F8000C1EC02F01200600E89EC02F00A0EC1EC16
:100F900002F0040E97EC02F00A0EC1EC02F0610EB2
:100FA00089EC02F00A0EC1EC02F0040E97EC02F09C
:100FB0000A0EC1EC02F0620E89EC02F00A0EC1ECDE
:100FC00002F00E0E97EC02F00A0EC1EC02F0630E76
:100FD00089EC02F00A0EC1EC02F01B0E97EC02F055
:100FE0000A0EC1EC02F0640E89EC02F00A0EC1ECAC
:100FF00002F0150E97EC02F00A0EC1EC02F0650E3D
:1010000089EC02F00A0EC1EC02F01B0E97EC02F024
:101010000A0EC1EC02F0660E89EC02F00A0EC1EC79
:1010200002F00E0E97EC02F00A0EC1EC02F0670E11
:1010300089EC02F00A0EC1EC02F0000E97EC02F00F
:081040000A0EC1EC02F01200DF
:08104800880ED7EC02F03F0E08
:1010500097EC02F02B0E97EC02F03F0E97EC02F0AB
:101060003D0E97EC02F03F0E97EC02F0000E266E5C
:10107000000E206E000E216E200E226E200E236EBA
:10108000010E276E200E2C6EC3EC09F027C020F055
:101090007CEC0AF0C3EC09F027C021F0000E2062BE
:1010A00003D0300E226E33D0010E206203D0310EF9
:1010B000226E2DD0020E206203D0320E226E27D077
:1010C000030E206203D0330E226E21D0040E206264
:1010D00003D0340E226E1BD0050E206203D0350ED5
:1010E000226E15D0060E206203D0360E226E0FD06F
:1010F000070E206203D0370E226E09D0080E206240
:1011000003D0380E226E03D0390E226E00D0000EAE
:10111000216203D0300E236E33D0010E216203D042
:10112000310E236E2DD0020E216203D0320E236EBB
:1011300027D0030E216203D0330E236E21D0040E7C
:10114000216203D0340E236E1BD0050E216203D022
:10115000350E236E15D0060E216203D0360E236E97
:101160000FD0070E216203D0370E236E09D0080E70
:10117000216203D0380E236E03D0390E236E00D0C7
:10118000880ED7EC02F0225097EC02F08A0ED7ECD2
:1011900002F0235097EC02F02050262621502626FC
:1011A000090E266466D000D07CEC0AF07CEC0AF0D4
:1011B000C3EC09F025C02DF08C0ED7EC02F02D50B9
:1011C00097EC02F07CEC0AF0C3EC09F025C02EF09D
:1011D0007CEC0AF02E5097EC02F00A0E266205D045
:1011E000310E2B6E300E2C6E3DD00B0E266205D0CC
:1011F000310E2B6E310E2C6E35D00C0E266205D0C2
:10120000310E2B6E320E2C6E2DD00D0E266205D0B7
:10121000310E2B6E330E2C6E25D00E0E266205D0AD
:10122000310E2B6E340E2C6E1DD00F0E266205D0A3
:10123000310E2B6E350E2C6E15D0100E266205D099
:10124000310E2B6E360E2C6E0DD0110E266205D08F
:10125000310E2B6E370E2C6E05D0310E2B6E380EE4
:101260002C6E00D02B502D624FD02C502E624CD0C3
:1012700066D07CEC0AF07CEC0AF0C3EC09F025C0E7
:101280002DF08C0ED7EC02F02D5097EC02F0000EF2
:10129000266203D0300E2B6E33D0010E266203D0AF
:1012A000310E2B6E2DD0020E266203D0320E2B6E25
:1012B00027D0030E266203D0330E2B6E21D0040EEE
:1012C000266203D0340E2B6E1BD0050E266203D08F
:1012D000350E2B6E15D0060E266203D0360E2B6E01
:1012E0000FD0070E266203D0370E2B6E09D0080EE2
:1012F000266203D0380E2B6E03D0390E2B6E00D031
:101300002B502D6201D01BD08F0ED7EC02F0070EB0
:1013100097EC02F07CEC0AF08C0ED7EC02F0200E79
:1013200097EC02F0200E97EC02F0200E97EC02F002
:101330008F0ED7EC02F0200E97EC02F031D78F0E13
:10134000D7EC02F0050E97EC02F07CEC0AF0880E68
:10135000D7EC02F0200E97EC02F0200E97EC02F092
:10136000200E97EC02F0200E97EC02F0200E97EC86
:1013700002F0200E97EC02F0200E97EC02F0200E07
:1013800097EC02F01200FF0E2F6ECBEC09F00DD09F
:10139000F2EC09F031D0F00E966E538D0F0E846E84
:1013A000FF0E2F6E10EC0AF01200010E27260A0E17
:1013B000276204D000D0010E276E00D084A803D08D
:1013C000000E1B6EE5D784AA03D0010E1B6EE0D77A
:1013D00084AC03D0020E1B6EDBD784AEE6D7030EBF
:1013E0001B6ED6D70F0E966E538DF00E846EFF0EC9
:1013F0002F6E10EC0AF0120084A003D0040E1C6EB5
:1014000012D084A203D0050E1C6E0DD084A403D08C
:10141000060E1C6E08D084A6C8D7070E1C6E03D01B
:101420002F2EFED71200000E1B621AD001D0120020
:10143000040E1C6205D0010E246E310E256E1200C2
:10144000050E1C6205D0020E246E320E256E1200AF
:10145000060E1C6204D0030E246E330E256E12009D
:10146000010E1B621AD000D0040E1C6205D0040EBF
:10147000246E340E256E1200050E1C6205D0050E7A
:10148000246E350E256E1200060E1C6205D0060E67
:10149000246E360E256E12001200020E1B621AD048
:1014A00000D0040E1C6205D0070E246E370E256E88
:1014B0001200050E1C6205D0080E246E380E256E33
:1014C0001200060E1C6205D0090E246E390E256E20
:1014D0001200120000D0040E1C6201D01200050E92
:1014E0001C6205D0000E246E300E256E1200060E12
:1014F0001C6201D012001200900E1D6E1D2E01D034
:101500001200900E1E6E1E2E01D0F8D7900E1F6E88
:061510001F2EFED7F8D7E4
:0A1516008F0ED7EC02F0000E97ECE8
:1015200002F012008F0ED7EC02F0040E97EC02F0DE
:1015300012008F0ED7EC02F0200E97EC02F0120092
:101540008BEC0AF0C90ED7EC02F0200E97EC02F0FB
:10155000890ED7EC02F0020E97EC02F0C6EC0CF00C
:1015600092EC0AF0890ED7EC02F0200E97EC02F014
:10157000C90ED7EC02F0020E97EC02F0C6EC0CF0AC
:1015800012008BEC0AF0C90ED7EC02F0200E97EC9B
:1015900002F0880ED7EC02F0020E97EC02F0C6ECD7
:1015A0000CF092EC0AF0880ED7EC02F0200E97ECCB
:1015B00002F0C70ED7EC02F0020E97EC02F0C6EC78
:1015C0000CF08BEC0AF0C70ED7EC02F0200E97EC73
:1015D00002F0860ED7EC02F0020E97EC02F0C6EC99
:1015E0000CF092EC0AF0860ED7EC02F0200E97EC8D
:1015F00002F0C50ED7EC02F0020E97EC02F0C6EC3A
:101600000CF08BEC0AF0C50ED7EC02F0200E97EC34
:1016100002F0860ED7EC02F0020E97EC02F0C6EC58
:101620000CF092EC0AF0860ED7EC02F0200E97EC4C
:1016300002F0C70ED7EC02F0020E97EC02F0C6ECF7
:101640000CF08BEC0AF0C70ED7EC02F0200E97ECF2
:1016500002F0880ED7EC02F0020E97EC02F0C6EC16
:101660000CF092EC0AF0880ED7EC02F0200E97EC0A
:1016700002F0C90ED7EC02F0020E97EC02F0C6ECB5
:101680000CF08BEC0AF0C90ED7EC02F0200E97ECB0
:1016900002F08A0ED7EC02F0020E97EC02F0C6ECD4
:1016A0000CF092EC0AF08A0ED7EC02F0200E97ECC8
:1016B00002F0CB0ED7EC02F0020E97EC02F0C6EC73
:1016C0000CF08BEC0AF0CB0ED7EC02F0200E97EC6E
:1016D00002F08C0ED7EC02F0020E97EC02F0C6EC92
:1016E0000CF092EC0AF08C0ED7EC02F0200E97EC86
:1016F00002F0CD0ED7EC02F0020E97EC02F0C6EC31
:101700000CF08BEC0AF0CD0ED7EC02F0200E97EC2B
:1017100002F08C0ED7EC02F0020E97EC02F0C6EC51
:101720000CF092EC0AF08C0ED7EC02F0200E97EC45
:1017300002F0CB0ED7EC02F0020E97EC02F0C6ECF2
:101740000CF08BEC0AF0CB0ED7EC02F0200E97ECED
:1017500002F08A0ED7EC02F0020E97EC02F0C6EC13
:101760000CF092EC0AF08A0ED7EC02F0200E97EC07
:1017700002F0C90ED7EC02F0020E97EC02F0C6ECB4
:101780000CF012000A0E156E8BEC0AF0CA0ED7ECA4
:1017900002F0CD0E97EC02F0C80ED7EC02F0CD0EA1
:1017A00097EC02F0C6EC0CF092EC0AF0CA0ED7EC03
:1017B00002F0200E97EC02F0C80ED7EC02F0200EDB
:1017C00097EC02F08A0ED7EC02F02E0E97EC02F0A6
:1017D000880ED7EC02F02E0E97EC02F0C6EC0CF05F
:1017E0008A0ED7EC02F0200E97EC02F0880ED7ECB0
:1017F00002F0200E97EC02F0152EC6D78BEC0AF003
:10180000CA0ED7EC02F0CD0E97EC02F0C80ED7EC62
:1018100002F0CD0E97EC02F0C6EC0CF092EC0AF060
:10182000CA0ED7EC02F0200E97EC02F0C80ED7ECEF
:1018300002F0200E97EC02F0C6EC0CF012000E6ED7
:1018400062EC07F0C3EC07F00A0E126E040E136E82
:10185000020E146E000E0E6201D008D0010E0E6250
:1018600001D01FD0020E0E6264D042D08BEC0AF081
:10187000C6EC0CF092EC0AF0C6EC0CF0A0EC0AF00E
:10188000122EF4D78BEC0AF0C6EC0CF092EC0AF0B6
:10189000C6EC0CF099EC0AF0DEEC05F05DEC04F01F
:1018A00012008BEC0AF0C6EC0CF092EC0AF0C6ECDD
:1018B0000CF0A0EC0AF0132EF4D78BEC0AF0C6EC77
:1018C0000CF092EC0AF0C6EC0CF0C1EC0AF0142E0D
:1018D000FCD78BEC0AF0C6EC0CF092EC0AF0C6ECEC
:1018E0000CF099EC0AF0DEEC05F05DEC04F012006F
:1018F0008BEC0AF0C6EC0CF092EC0AF0C6EC0CF0A3
:10190000C2EC0BF0C1EC0AF0C2EC0BF0C1EC0AF037
:10191000C2EC0BF08BEC0AF0C6EC0CF092EC0AF087
:10192000C6EC0CF099EC0AF0DEEC05F05DEC04F08E
:1019300012008BEC0AF0C6EC0CF092EC0AF0C6EC4C
:101940000CF0A0EC0AF0A0EC0AF0C2EC0BF0A0EC5A
:101950000AF0A0EC0AF0C1EC0AF0A0EC0AF0A0EC4E
:101960000AF0C2EC0BF0A0EC0AF0A0EC0AF08BEC51
:101970000AF0C6EC0CF092EC0AF0C6EC0CF099EC14
:101980000AF0DEEC05F05DEC04F01200900E0F6E34
:101990000F2E01D01200900E106E102E01D0F8D72D
:0A19A000900E116E112EFED7F8D73D
:0619AA00000E386E120071
:1019B000000EF86E000EF76E7A0EF66E0D0E356E96
:1019C0000900F55097EC02F0352EFAD71200000E00
:1019D000F86E000EF76E880EF66E0D0E366E09006C
:1019E000F55097EC02F0362EFAD71200000EF86E82
:1019F000000EF76E960EF66E0D0E376E0900F5505E
:101A000097EC02F0372EFAD71200306E010E38260E
:101A1000850ED7EC02F0270E97EC02F0AFEC0EF03B
:101A2000850ED7EC02F02C0E97EC02F0AFEC0EF026
:101A3000850ED7EC02F0200E97EC02F0C50ED7EC25
:101A400002F0270E97EC02F0AFEC0EF0C50ED7ECCB
:101A500002F02C0E97EC02F0AFEC0EF0C90ED7ECB2
:101A600002F0200E97EC02F0C80ED7EC02F0020E46
:101A700097EC02F0AFEC0EF0C80ED7EC02F0200E9F
:101A800097EC02F0C70ED7EC02F0020E97EC02F0D2
:101A9000AFEC0EF0C70ED7EC02F0200E97EC02F080
:101AA000C60ED7EC02F0020E97EC02F0AFEC0EF08F
:101AB000C60ED7EC02F0200E97EC02F0C50ED7EC64
:101AC00002F0020E97EC02F0AFEC0EF0C50ED7EC70
:101AD00002F0200E97EC02F0020E97EC02F0AFEC51
:101AE0000EF0C60ED7EC02F0200E97EC02F0020EBC
:101AF00097EC02F0AFEC0EF0C70ED7EC02F0200E20
:101B000097EC02F0020E97EC02F0AFEC0EF0C80E6C
:101B1000D7EC02F0200E97EC02F0020E97EC02F0E8
:101B20003850020E386201D00AD0040E386201D05B
:101B300006D0060E386201D002D030501200010EDD
:101B40003026AFEC0EF0AFEC0EF0AFEC0EF0C90E9D
:101B5000D7EC02F02A0E97EC02F0AFEC0EF0AFECEF
:101B60000EF0CA0ED7EC02F02A0E97EC02F0890EA6
:101B7000D7EC02F02A0E97EC02F0C80ED7EC02F078
:101B80002A0E97EC02F0AFEC0EF0AFEC0EF0CB0E9D
:101B9000D7EC02F02A0E97EC02F08A0ED7EC02F096
:101BA0002A0E97EC02F0880ED7EC02F02A0E97EC82
:101BB00002F0C70ED7EC02F02A0E97EC02F0AFEC61
:101BC0000EF0AFEC0EF0CC0ED7EC02F02A0E97EC34
:101BD00002F08B0ED7EC02F02A0E97EC02F0870E83
:101BE000D7EC02F02A0E97EC02F0C60ED7EC02F00A
:101BF0002A0E97EC02F0AFEC0EF0AFEC0EF0CD0E2B
:101C0000D7EC02F02A0E97EC02F08C0ED7EC02F023
:101C10002A0E97EC02F0860ED7EC02F02A0E97EC13
:101C200002F0C50ED7EC02F02A0E97EC02F0AFECF2
:101C30000EF0AFEC0EF0CE0ED7EC02F02A0E97ECC1
:101C400002F08D0ED7EC02F02A0E97EC02F0850E12
:101C5000D7EC02F02A0E97EC02F0C40ED7EC02F09B
:101C60002A0E97EC02F0AFEC0EF0AFEC0EF0CF0EB8
:101C7000D7EC02F02A0E97EC02F08E0ED7EC02F0B1
:101C80002A0E97EC02F0840ED7EC02F02A0E97ECA5
:101C900002F0C30ED7EC02F02A0E97EC02F0AFEC84
:101CA0000EF0AFEC0EF08F0ED7EC02F02A0E97EC90
:101CB00002F0830ED7EC02F02A0E97EC02F0050E2C
:101CC000346EAFEC0EF0AFEC0EF0830ED7EC02F0FA
:101CD000D8EC0CF0C30ED7EC02F0E7EC0CF0AFEC54
:101CE0000EF0AFEC0EF0830ED7EC02F0E7EC0CF048
:101CF000C30ED7EC02F0D8EC0CF0342EE2D7830EF2
:101D0000D7EC02F0F6EC0CF0C30ED7EC02F0F6ECD8
:101D10000CF0010E306201D004D0020E306215D0FA
:101D20000AD03FEC06F0C90ED7EC02F0020E97EC99
:101D300002F030501200A0EC06F0C90ED7EC02F011
:101D4000020E97EC02F03050120001EC07F0C90EC1
:101D5000D7EC02F0020E97EC02F030501200900E19
:101D6000316E312E01D01200900E326E322E01D023
:0C1D7000F8D7900E336E332EFED7F8D754
:041D7C00D0EC02F0B5
:101D8000000EF86E000EF76EA40EF66E100E196EB1
:101D90000900F55097EC02F0192EFAD71200D0EC9A
:101DA00002F0010E97EC02F0010E97EC02F0010E2A
:101DB00097EC02F0C00ED7EC02F0050E97EC02F0A3
:101DC000030E97EC02F0C90ED7EC02F0000E97EC70
:101DD00002F01200050E1A6EC80ED7EC02F0B20E19
:101DE00097EC02F0CA0ED7EC02F0B20E97EC02F0BC
:101DF0003FEC0FF0C80ED7EC02F0200E97EC02F08B
:101E0000CA0ED7EC02F0200E97EC02F03FEC0FF078
:101E10001A2EE2D7050E1A6EC90ED7EC02F0000E8C
:101E200097EC02F03FEC0FF0C90ED7EC02F0200E59
:101E300097EC02F03FEC0FF01A2EEED7C90ED7EC5C
:101E400002F0020E97EC02F0C80ED7EC02F0280E5A
:101E500097EC02F0CA0ED7EC02F0290E97EC02F0D4
:101E60003FEC0FF0C80ED7EC02F0200E97EC02F01A
:101E7000CA0ED7EC02F0200E97EC02F01200900E82
:101E8000166E162E01D01200900E176E172E01D06E
:0C1E9000F8D7900E186E182EFED7F8D769
:020000040030CA
:0100000015EA
:0100010013EB
:010002007F7E
:010003007F7D
:01000400F902
:010005008B6F
:010006009168
:01000800FFF8
:01000900C036
:01000A00FFF6
:01000B00E014
:01000C00FFF4
:01000D0040B2
:00000001FF
