:020000040000FA
:0400000080EF00F09D
:020004000000FA
:0A000600050E466EC10EE0EC02F09C
:10001000040EA0EC02F08A0EE0EC02F05A0EA0EC06
:1000200002F038EC00F05A0EA0EC02F038EC00F0D0
:100030005A0EA0EC02F038EC00F08A0EE0EC02F070
:10004000200EA0EC02F038EC00F0200EA0EC02F044
:1000500038EC00F0200EA0EC02F038EC00F0462E58
:10006000DAD7C10EE0EC02F0030EA0EC02F01200B1
:10007000900E476E472E01D01200900E486E482E0B
:0E00800001D0F8D7900E496E492EFED7F8D762
:02008E0057EC2D
:1000900000F0120092862587010EC26E300EC16EEE
:1000A000F60EC06E1200C282C2B2FED7120053EC2E
:1000B00000F0C450436EC350426E1200446E443888
:1000C00063EC00F044500F0B456E0A0E4560070FBD
:0600D000260F452412007A
:0A00D6002A202A202A202A202A20AE
:1000E0002A202A00202A202A202A202A202A202AE0
:1000F0002000202020202020202020202020200040
:100100007F9C7F8E62EC02F0F2EC00F0DEEC0CF0F3
:100110004AEC00F08CEF00F000000000000065ECFD
:1001200010F0FF0E066E000E826FF8EC00F0826F8A
:10013000410E8263F6D776EC10F053EC02F091ECAE
:1001400010F0FE0E066EFE0E076E010E086EF40E27
:10015000056E030E0A6E000E096EA6EC03F0E7ECC6
:1001600005F0000E826FF8EC00F0826F410E8263A2
:1001700001D0F7D7420E826308D00950B5EC0EF0DB
:10018000F40E056EB0EC01F0ECD7430E826308D09C
:10019000095003EC00F0F40E056EB0EC01F0E1D76D
:1001A000440E826308D0095028EC0CF0F40E056E62
:1001B000B0EC01F0D6D7450E826308D009502DEC83
:1001C00008F0F40E056EB0EC01F0CBD7460E82635A
:1001D000C8D709500EEC0DF0096EF40E056EB0ECA8
:1001E00001F0BFD78D6AFF0E206E3AEC01F01200CD
:1001F000FEEC00F00DD01CEC01F028D0F00E966E55
:10020000538D0F0E846EFF0E206E3AEC01F012003B
:1002100084A803D0000E806FEED784AA03D0010E0D
:10022000806FE9D784AC03D0020E806FE4D784AE30
:1002300076D0030E806FDFD70F0E966E538DF00EC3
:10024000846EFF0E206E3AEC01F0120084A003D001
:10025000040E816F12D084A203D0050E816F0DD0E1
:1002600084A403D0060E816F08D084A6D1D7070ED0
:10027000816F03D0202EFED71200000E806313D0B2
:1002800001D01200040E816302D0310E1200050E5F
:10029000816302D0320E1200060E816302D0330E4B
:1002A0001200460E1200010E806312D000D0040E20
:1002B000816302D0340E1200050E816302D0350E28
:1002C0001200060E816302D0360E1200450E120097
:1002D000020E806312D000D0040E816302D0370E6C
:1002E0001200050E816302D0380E1200060E8163E3
:1002F00002D0390E1200440E120000D0040E8163A9
:1003000002D0410E1200050E816302D0300E1200A1
:10031000060E816302D0420E1200430E1200FF0E41
:10032000066201D075D7062E73D7072E01D003D0F1
:10033000FE0E066E6DD7082E01D003D0FE0E076E9E
:1003400067D7010E055EB0EC01F0000E0564D2EC3B
:1003500001F0FE0E066EFE0E076E010E086E58D7F7
:1003600047EC00F0430EC00EE0EC02F0960E056084
:1003700004D0320E056008D00ED0C00EE0EC02F0C2
:10038000050EA0EC02F01200C00EE0EC02F0060E2A
:10039000A0EC02F01200C00EE0EC02F0070EA0ECA0
:1003A00002F01200010E0A5E020E0A6201D004D0B1
:1003B000010E0A621FD00FD0820EE0EC02F0200E78
:1003C000A0EC02F0F40E056EC00EE0EC02F0050E9B
:1003D000A0EC02F01200810EE0EC02F0200EA0EC86
:1003E00002F0F40E056EC00EE0EC02F0050EA0EC7B
:1003F00002F01200D9EC02F0C90EE0EC02F0000E9F
:10040000A0EC02F053EC02F053EC02F053EC02F0DB
:1004100053EC02F0C90EE0EC02F0200EA0EC02F06A
:10042000000EA0EC02F053EC02F0CA0EE0EC02F079
:10043000200EA0EC02F0000EA0EC02F053EC02F053
:10044000CB0EE0EC02F0200EA0EC02F0000EA0ECCF
:1004500002F053EC02F0CC0EE0EC02F0200EA0EC27
:1004600002F0000EA0EC02F053EC02F0CD0EE0EC36
:1004700002F0200EA0EC02F0000EA0EC02F053EC13
:1004800002F0CE0EE0EC02F0200EA0EC02F0000E26
:10049000A0EC02F053EC02F0CF0EE0EC02F0200EE4
:1004A000A0EC02F02DD6FF0E0B6E0B2E01D0120029
:1004B000FF0E0C6E0C2E01D0F8D7FF0E0D6E0D2E18
:0404C000FED7F8D794
:0C04C4008A6AC00E936E280EC3EC02F092
:1004D000300E92EC02F00A0ECAEC02F0280E92ECFA
:1004E00002F00A0ECAEC02F0280E92EC02F00A0E9C
:1004F000CAEC02F00C0E92EC02F00A0ECAEC02F00A
:10050000D9EC02F0060E92EC02F00A0ECAEC02F0F0
:10051000E6EC02F01200046EEE50A0EC02F0042EA5
:10052000FBD71200036E03380F0B8A6E8A98B1EC6A
:1005300002F003500F0B8A6E8A98B1EC02F01200A1
:10054000036E03380F0B8A6E8A88B1EC02F00350F9
:100550000F0B8A6E8A88B1EC02F00A0ECAEC02F028
:100560001200000000000000000000000000000079
:1005700000008A8A00000000000000000000000067
:1005800000008A9A1200026EFA0ECAEC02F0022EE5
:10059000FBD71200006E003A0F0E0014016EF00E31
:1005A0000016D4EC02F01200000E0006015AFDE223
:1005B0001200010E92EC02F0020EC3EC02F01200E7
:1005C00092EC02F00A0ECAEC02F01200400E92EC1D
:1005D00002F00A0ECAEC02F0000EA0EC02F00A0EC5
:1005E000CAEC02F0410E92EC02F00A0ECAEC02F0E4
:1005F000040EA0EC02F00A0ECAEC02F0420E92ECDD
:1006000002F00A0ECAEC02F00A0EA0EC02F00A0E8A
:10061000CAEC02F0430E92EC02F00A0ECAEC02F0B1
:10062000150EA0EC02F00A0ECAEC02F0440E92EC99
:1006300002F00A0ECAEC02F01B0EA0EC02F00A0E49
:10064000CAEC02F0450E92EC02F00A0ECAEC02F07F
:10065000150EA0EC02F00A0ECAEC02F0460E92EC67
:1006600002F00A0ECAEC02F01B0EA0EC02F00A0E19
:10067000CAEC02F0470E92EC02F00A0ECAEC02F04D
:100680000E0EA0EC02F00A0ECAEC02F0480E92EC3C
:1006900002F00A0ECAEC02F0000EA0EC02F00A0E04
:1006A000CAEC02F0490E92EC02F00A0ECAEC02F01B
:1006B0000A0EA0EC02F00A0ECAEC02F04A0E92EC0E
:1006C00002F00A0ECAEC02F0150EA0EC02F00A0EBF
:1006D000CAEC02F04B0E92EC02F00A0ECAEC02F0E9
:1006E000110EA0EC02F00A0ECAEC02F04C0E92ECD5
:1006F00002F00A0ECAEC02F0110EA0EC02F00A0E93
:10070000CAEC02F04D0E92EC02F00A0ECAEC02F0B6
:100710000A0EA0EC02F00A0ECAEC02F04E0E92ECA9
:1007200002F00A0ECAEC02F0040EA0EC02F00A0E6F
:10073000CAEC02F04F0E92EC02F00A0ECAEC02F084
:10074000000EA0EC02F00A0ECAEC02F0500E92EC81
:1007500002F00A0ECAEC02F0000EA0EC02F00A0E43
:10076000CAEC02F0510E92EC02F00A0ECAEC02F052
:10077000000EA0EC02F00A0ECAEC02F0520E92EC4F
:1007800002F00A0ECAEC02F0000EA0EC02F00A0E13
:10079000CAEC02F0530E92EC02F00A0ECAEC02F020
:1007A000000EA0EC02F00A0ECAEC02F0540E92EC1D
:1007B00002F00A0ECAEC02F0000EA0EC02F00A0EE3
:1007C000CAEC02F0550E92EC02F00A0ECAEC02F0EE
:1007D000000EA0EC02F00A0ECAEC02F0560E92ECEB
:1007E00002F00A0ECAEC02F00C0EA0EC02F00A0EA7
:1007F000CAEC02F0570E92EC02F00A0ECAEC02F0BC
:100800000C0EA0EC02F00A0ECAEC02F0580E92ECAC
:1008100002F00A0ECAEC02F0000EA0EC02F00A0E82
:10082000CAEC02F0590E92EC02F00A0ECAEC02F089
:10083000150EA0EC02F00A0ECAEC02F05A0E92EC71
:1008400002F00A0ECAEC02F00E0EA0EC02F00A0E44
:10085000CAEC02F05B0E92EC02F00A0ECAEC02F057
:100860001F0EA0EC02F00A0ECAEC02F05C0E92EC35
:1008700002F00A0ECAEC02F00E0EA0EC02F00A0E14
:10088000CAEC02F05D0E92EC02F00A0ECAEC02F025
:10089000150EA0EC02F00A0ECAEC02F05E0E92EC0D
:1008A00002F00A0ECAEC02F0000EA0EC02F00A0EF2
:1008B000CAEC02F05F0E92EC02F00A0ECAEC02F0F3
:1008C000000EA0EC02F00A0ECAEC02F0600E92ECF0
:1008D00002F00A0ECAEC02F0000EA0EC02F00A0EC2
:1008E000CAEC02F0610E92EC02F00A0ECAEC02F0C1
:1008F0000F0EA0EC02F00A0ECAEC02F0620E92ECAF
:1009000002F00A0ECAEC02F01C0EA0EC02F00A0E75
:10091000CAEC02F0630E92EC02F00A0ECAEC02F08E
:10092000180EA0EC02F00A0ECAEC02F0640E92EC73
:1009300002F00A0ECAEC02F0180EA0EC02F00A0E49
:10094000CAEC02F0650E92EC02F00A0ECAEC02F05C
:100950001C0EA0EC02F00A0ECAEC02F0660E92EC3D
:1009600002F00A0ECAEC02F00F0EA0EC02F00A0E22
:10097000CAEC02F0670E92EC02F00A0ECAEC02F02A
:10098000000EA0EC02F00A0ECAEC02F0680E92EC27
:1009900002F00A0ECAEC02F0000EA0EC02F00A0E01
:1009A000CAEC02F0690E92EC02F00A0ECAEC02F0F8
:1009B000000EA0EC02F00A0ECAEC02F06A0E92ECF5
:1009C00002F00A0ECAEC02F00A0EA0EC02F00A0EC7
:1009D000CAEC02F06B0E92EC02F00A0ECAEC02F0C6
:1009E000000EA0EC02F00A0ECAEC02F06C0E92ECC3
:1009F00002F00A0ECAEC02F0000EA0EC02F00A0EA1
:100A0000CAEC02F06D0E92EC02F00A0ECAEC02F093
:100A10000A0EA0EC02F00A0ECAEC02F06E0E92EC86
:100A200002F00A0ECAEC02F00E0EA0EC02F00A0E62
:100A3000CAEC02F06F0E92EC02F00A0ECAEC02F061
:100A4000000EA0EC02F00A0ECAEC02F0700E92EC5E
:100A500002F00A0ECAEC02F0000EA0EC02F00A0E40
:100A6000CAEC02F0710E92EC02F00A0ECAEC02F02F
:100A7000000EA0EC02F00A0ECAEC02F0720E92EC2C
:100A800002F00A0ECAEC02F00A0EA0EC02F00A0E06
:100A9000CAEC02F0730E92EC02F00A0ECAEC02F0FD
:100AA000000EA0EC02F00A0ECAEC02F0740E92ECFA
:100AB00002F00A0ECAEC02F0000EA0EC02F00A0EE0
:100AC000CAEC02F0750E92EC02F00A0ECAEC02F0CB
:100AD0000E0EA0EC02F00A0ECAEC02F0760E92ECBA
:100AE00002F00A0ECAEC02F0000EA0EC02F00A0EB0
:100AF000CAEC02F0770E92EC02F00A0ECAEC02F099
:100B0000000EA0EC02F00A0ECAEC02F0780E92EC95
:100B100002F00A0ECAEC02F0000EA0EC02F00A0E7F
:100B2000CAEC02F0790E92EC02F00A0ECAEC02F066
:100B3000000EA0EC02F00A0ECAEC02F07A0E92EC63
:100B400002F00A0ECAEC02F00A0EA0EC02F00A0E45
:100B5000CAEC02F07B0E92EC02F00A0ECAEC02F034
:100B6000000EA0EC02F00A0ECAEC02F07C0E92EC31
:100B700002F00A0ECAEC02F0000EA0EC02F00A0E1F
:100B8000CAEC02F07D0E92EC02F00A0ECAEC02F002
:100B90000E0EA0EC02F00A0ECAEC02F07E0E92ECF1
:100BA00002F00A0ECAEC02F00A0EA0EC02F00A0EE5
:100BB000CAEC02F07F0E92EC02F00A0ECAEC02F0D0
:100BC000000EA0EC02F00A0ECAEC02F01200400E79
:100BD00092EC02F00A0ECAEC02F00E0EA0EC02F04B
:100BE0000A0ECAEC02F0410E92EC02F00A0ECAECB8
:100BF00002F01F0EA0EC02F00A0ECAEC02F0420E48
:100C000092EC02F00A0ECAEC02F0150EA0EC02F013
:100C10000A0ECAEC02F0430E92EC02F00A0ECAEC85
:100C200002F01F0EA0EC02F00A0ECAEC02F0440E15
:100C300092EC02F00A0ECAEC02F01F0EA0EC02F0D9
:100C40000A0ECAEC02F0450E92EC02F00A0ECAEC53
:100C500002F01F0EA0EC02F00A0ECAEC02F0460EE3
:100C600092EC02F00A0ECAEC02F0150EA0EC02F0B3
:100C70000A0ECAEC02F0470E92EC02F00A0ECAEC21
:100C800002F0000EA0EC02F00A0ECAEC02F0120014
:100C9000500E92EC02F00A0ECAEC02F0000EA0EC2C
:100CA00002F00A0ECAEC02F0510E92EC02F00A0EAB
:100CB000CAEC02F0000EA0EC02F00A0ECAEC02F040
:100CC000520E92EC02F00A0ECAEC02F0000EA0ECFA
:100CD00002F00A0ECAEC02F0530E92EC02F00A0E79
:100CE000CAEC02F00A0EA0EC02F00A0ECAEC02F006
:100CF000540E92EC02F00A0ECAEC02F00A0EA0ECBE
:100D000002F00A0ECAEC02F0550E92EC02F00A0E46
:100D1000CAEC02F00E0EA0EC02F00A0ECAEC02F0D1
:100D2000560E92EC02F00A0ECAEC02F00E0EA0EC87
:100D300002F00A0ECAEC02F0570E92EC02F00A0E14
:100D4000CAEC02F00E0EA0EC02F00A0ECAEC02F0A1
:100D50001200500E92EC02F00A0ECAEC02F0000EE5
:100D6000A0EC02F00A0ECAEC02F0510E92EC02F076
:100D70000A0ECAEC02F00A0EA0EC02F00A0ECAEC4F
:100D800002F0520E92EC02F00A0ECAEC02F00A0EC9
:100D9000A0EC02F00A0ECAEC02F0530E92EC02F044
:100DA0000A0ECAEC02F01F0EA0EC02F00A0ECAEC0A
:100DB00002F0540E92EC02F00A0ECAEC02F0150E8C
:100DC000A0EC02F00A0ECAEC02F0550E92EC02F012
:100DD0000A0ECAEC02F01B0EA0EC02F00A0ECAECDE
:100DE00002F0560E92EC02F00A0ECAEC02F01F0E50
:100DF000A0EC02F00A0ECAEC02F0570E92EC02F0E0
:100E00000A0ECAEC02F00E0EA0EC02F00A0ECAECBA
:100E100002F01200500E92EC02F00A0ECAEC02F040
:100E20001B0EA0EC02F00A0ECAEC02F0510E92EC7E
:100E300002F00A0ECAEC02F00A0EA0EC02F00A0E52
:100E4000CAEC02F0520E92EC02F00A0ECAEC02F06A
:100E50001F0EA0EC02F00A0ECAEC02F0530E92EC48
:100E600002F00A0ECAEC02F0150EA0EC02F00A0E17
:100E7000CAEC02F0540E92EC02F00A0ECAEC02F038
:100E80001B0EA0EC02F00A0ECAEC02F0550E92EC1A
:100E900002F00A0ECAEC02F01F0EA0EC02F00A0EDD
:100EA000CAEC02F0560E92EC02F00A0ECAEC02F006
:100EB0000E0EA0EC02F00A0ECAEC02F0570E92ECF5
:100EC00002F00A0ECAEC02F01F0EA0EC02F00A0EAD
:100ED000CAEC02F01200400E92EC02F00A0ECAECCC
:100EE00002F0040EA0EC02F00A0ECAEC02F0410E71
:100EF00092EC02F00A0ECAEC02F0040EA0EC02F032
:100F00000A0ECAEC02F0420E92EC02F00A0ECAEC93
:100F100002F00E0EA0EC02F00A0ECAEC02F0430E34
:100F200092EC02F00A0ECAEC02F0150EA0EC02F0F0
:100F30000A0ECAEC02F0440E92EC02F00A0ECAEC61
:100F400002F01B0EA0EC02F00A0ECAEC02F0450EF5
:100F500092EC02F00A0ECAEC02F0150EA0EC02F0C0
:100F60000A0ECAEC02F0460E92EC02F00A0ECAEC2F
:100F700002F00E0EA0EC02F00A0ECAEC02F0470ED0
:100F800092EC02F00A0ECAEC02F0000EA0EC02F0A5
:100F90000A0ECAEC02F01200600E92EC02F00A0E89
:100FA000CAEC02F0040EA0EC02F00A0ECAEC02F049
:100FB000610E92EC02F00A0ECAEC02F0040EA0ECF4
:100FC00002F00A0ECAEC02F0620E92EC02F00A0E77
:100FD000CAEC02F00E0EA0EC02F00A0ECAEC02F00F
:100FE000630E92EC02F00A0ECAEC02F01B0EA0ECAB
:100FF00002F00A0ECAEC02F0640E92EC02F00A0E45
:10100000CAEC02F0150EA0EC02F00A0ECAEC02F0D7
:10101000650E92EC02F00A0ECAEC02F01B0EA0EC78
:1010200002F00A0ECAEC02F0660E92EC02F00A0E12
:10103000CAEC02F00E0EA0EC02F00A0ECAEC02F0AE
:10104000670E92EC02F00A0ECAEC02F0000EA0EC61
:0A10500002F00A0ECAEC02F01200D2
:06105A00880EE0EC02F03C
:101060003F0EA0EC02F02B0EA0EC02F03F0EA0EC25
:1010700002F03D0EA0EC02F03F0EA0EC02F0000EDC
:10108000266E000E206E000E216E200E226E200EA7
:10109000236E010E276E200E2C6ECCEC09F027C0BB
:1010A00020F085EC0AF0CCEC09F027C021F0000E0E
:1010B000206203D0300E226E33D0010E206203D0A6
:1010C000310E226E2DD0020E206203D0320E226E1F
:1010D00027D0030E206203D0330E226E21D0040EDF
:1010E000206203D0340E226E1BD0050E206203D086
:1010F000350E226E15D0060E206203D0360E226EFB
:101100000FD0070E206203D0370E226E09D0080ED2
:10111000206203D0380E226E03D0390E226E00D02A
:10112000000E216203D0300E236E33D0010E2162F7
:1011300003D0310E236E2DD0020E216203D0320E69
:10114000236E27D0030E216203D0330E236E21D0ED
:10115000040E216203D0340E236E1BD0050E2162D3
:1011600003D0350E236E15D0060E216203D0360E45
:10117000236E0FD0070E216203D0370E236E09D0E5
:10118000080E216203D0380E236E03D0390E236E71
:1011900000D0880EE0EC02F02250A0EC02F08A0EA3
:1011A000E0EC02F02350A0EC02F020502626215063
:1011B0002626090E266466D000D085EC0AF085EC60
:1011C0000AF0CCEC09F025C02DF08C0EE0EC02F01A
:1011D0002D50A0EC02F085EC0AF0CCEC09F025C013
:1011E0002EF085EC0AF02E50A0EC02F00A0E2662DA
:1011F00005D0310E2B6E300E2C6E3DD00B0E2662BC
:1012000005D0310E2B6E310E2C6E35D00C0E2662B1
:1012100005D0310E2B6E320E2C6E2DD00D0E2662A7
:1012200005D0310E2B6E330E2C6E25D00E0E26629D
:1012300005D0310E2B6E340E2C6E1DD00F0E266293
:1012400005D0310E2B6E350E2C6E15D0100E266289
:1012500005D0310E2B6E360E2C6E0DD0110E26627F
:1012600005D0310E2B6E370E2C6E05D0310E2B6E45
:10127000380E2C6E00D02B502D624FD02C502E6289
:101280004CD066D085EC0AF085EC0AF0CCEC09F085
:1012900025C02DF08C0EE0EC02F02D50A0EC02F0F9
:1012A000000E266203D0300E2B6E33D0010E266264
:1012B00003D0310E2B6E2DD0020E266203D0320EDB
:1012C0002B6E27D0030E266203D0330E2B6E21D057
:1012D000040E266203D0340E2B6E1BD0050E266240
:1012E00003D0350E2B6E15D0060E266203D0360EB7
:1012F0002B6E0FD0070E266203D0370E2B6E09D04F
:10130000080E266203D0380E2B6E03D0390E2B6EDA
:1013100000D02B502D6201D01BD08F0EE0EC02F0DC
:10132000070EA0EC02F085EC0AF08C0EE0EC02F067
:10133000200EA0EC02F0200EA0EC02F0200EA0EC9B
:1013400002F08F0EE0EC02F0200EA0EC02F031D79C
:101350008F0EE0EC02F0050EA0EC02F085EC0AF036
:10136000880EE0EC02F0200EA0EC02F0200EA0ECC3
:1013700002F0200EA0EC02F0200EA0EC02F0200EF5
:10138000A0EC02F0200EA0EC02F0200EA0EC02F087
:10139000200EA0EC02F01200FF0E2F6ED4EC09F02C
:1013A0000DD0FBEC09F031D0F00E966E538D0F0E80
:1013B000846EFF0E2F6E19EC0AF01200010E272624
:1013C0000A0E276204D000D0010E276E00D084A838
:1013D00003D0000E1B6EE5D784AA03D0010E1B6E4E
:1013E000E0D784AC03D0020E1B6EDBD784AEE6D709
:1013F000030E1B6ED6D70F0E966E538DF00E846EB5
:10140000FF0E2F6E19EC0AF0120084A003D0040E18
:101410001C6E12D084A203D0050E1C6E0DD084A4C5
:1014200003D0060E1C6E08D084A6C8D7070E1C6E0B
:1014300003D02F2EFED71200000E1B621AD001D04F
:101440001200040E1C6205D0010E246E310E256EB2
:101450001200050E1C6205D0020E246E320E256E9F
:101460001200060E1C6204D0030E246E330E256E8D
:101470001200010E1B621AD000D0040E1C6205D0AF
:10148000040E246E340E256E1200050E1C6205D06B
:10149000050E246E350E256E1200060E1C6205D058
:1014A000060E246E360E256E12001200020E1B620E
:1014B0001AD000D0040E1C6205D0070E246E370E21
:1014C000256E1200050E1C6205D0080E246E380E23
:1014D000256E1200060E1C6205D0090E246E390E10
:1014E000256E1200120000D0040E1C6201D0120002
:1014F000050E1C6205D0000E246E300E256E120003
:10150000060E1C6201D012001200900E1D6E1D2EE0
:1015100001D01200900E1E6E1E2E01D0F8D7900E34
:081520001F6E1F2EFED7F8D745
:081528008F0EE0EC02F0000E52
:10153000A0EC02F012008F0EE0EC02F0040EA0EC22
:1015400002F012008F0EE0EC02F0200EA0EC02F090
:10155000120094EC0AF0C90EE0EC02F0200EA0ECB0
:1015600002F0890EE0EC02F0020EA0EC02F0CFECEB
:101570000CF09BEC0AF0890EE0EC02F0200EA0ECDF
:1015800002F0C90EE0EC02F0020EA0EC02F0CFEC8B
:101590000CF0120094EC0AF0C90EE0EC02F0200E00
:1015A000A0EC02F0880EE0EC02F0020EA0EC02F0DB
:1015B000CFEC0CF09BEC0AF0880EE0EC02F0200E71
:1015C000A0EC02F0C70EE0EC02F0020EA0EC02F07C
:1015D000CFEC0CF094EC0AF0C70EE0EC02F0200E19
:1015E000A0EC02F0860EE0EC02F0020EA0EC02F09D
:1015F000CFEC0CF09BEC0AF0860EE0EC02F0200E33
:10160000A0EC02F0C50EE0EC02F0020EA0EC02F03D
:10161000CFEC0CF094EC0AF0C50EE0EC02F0200EDA
:10162000A0EC02F0860EE0EC02F0020EA0EC02F05C
:10163000CFEC0CF09BEC0AF0860EE0EC02F0200EF2
:10164000A0EC02F0C70EE0EC02F0020EA0EC02F0FB
:10165000CFEC0CF094EC0AF0C70EE0EC02F0200E98
:10166000A0EC02F0880EE0EC02F0020EA0EC02F01A
:10167000CFEC0CF09BEC0AF0880EE0EC02F0200EB0
:10168000A0EC02F0C90EE0EC02F0020EA0EC02F0B9
:10169000CFEC0CF094EC0AF0C90EE0EC02F0200E56
:1016A000A0EC02F08A0EE0EC02F0020EA0EC02F0D8
:1016B000CFEC0CF09BEC0AF08A0EE0EC02F0200E6E
:1016C000A0EC02F0CB0EE0EC02F0020EA0EC02F077
:1016D000CFEC0CF094EC0AF0CB0EE0EC02F0200E14
:1016E000A0EC02F08C0EE0EC02F0020EA0EC02F096
:1016F000CFEC0CF09BEC0AF08C0EE0EC02F0200E2C
:10170000A0EC02F0CD0EE0EC02F0020EA0EC02F034
:10171000CFEC0CF094EC0AF0CD0EE0EC02F0200ED1
:10172000A0EC02F08C0EE0EC02F0020EA0EC02F055
:10173000CFEC0CF09BEC0AF08C0EE0EC02F0200EEB
:10174000A0EC02F0CB0EE0EC02F0020EA0EC02F0F6
:10175000CFEC0CF094EC0AF0CB0EE0EC02F0200E93
:10176000A0EC02F08A0EE0EC02F0020EA0EC02F017
:10177000CFEC0CF09BEC0AF08A0EE0EC02F0200EAD
:10178000A0EC02F0C90EE0EC02F0020EA0EC02F0B8
:10179000CFEC0CF012000A0E156E94EC0AF0CA0E93
:1017A000E0EC02F0CD0EA0EC02F0C80EE0EC02F08E
:1017B000CD0EA0EC02F0CFEC0CF09BEC0AF0CA0EC0
:1017C000E0EC02F0200EA0EC02F0C80EE0EC02F01B
:1017D000200EA0EC02F08A0EE0EC02F02E0EA0EC3F
:1017E00002F0880EE0EC02F02E0EA0EC02F0CFEC3E
:1017F0000CF08A0EE0EC02F0200EA0EC02F0880E55
:10180000E0EC02F0200EA0EC02F0152EC6D794EC0E
:101810000AF0CA0EE0EC02F0CD0EA0EC02F0C80E09
:10182000E0EC02F0CD0EA0EC02F0CFEC0CF09BEC63
:101830000AF0CA0EE0EC02F0200EA0EC02F0C80E96
:10184000E0EC02F0200EA0EC02F0CFEC0CF0120065
:101850000E6E6BEC07F0CCEC07F00A0E126E040E65
:10186000136E020E146E000E0E6201D008D0010E2F
:101870000E6201D01FD0020E0E6264D042D094ECF2
:101880000AF0CFEC0CF09BEC0AF0CFEC0CF0A9ECDA
:101890000AF0122EF4D794EC0AF0CFEC0CF09BEC8B
:1018A0000AF0CFEC0CF0A2EC0AF0E7EC05F066ECE5
:1018B00004F0120094EC0AF0CFEC0CF09BEC0AF070
:1018C000CFEC0CF0A9EC0AF0132EF4D794EC0AF04C
:1018D000CFEC0CF09BEC0AF0CFEC0CF0CAEC0AF069
:1018E000142EFCD794EC0AF0CFEC0CF09BEC0AF031
:1018F000CFEC0CF0A2EC0AF0E7EC05F066EC04F09B
:10190000120094EC0AF0CFEC0CF09BEC0AF0CFEC58
:101910000CF0CBEC0BF0CAEC0AF0CBEC0BF0CAEC01
:101920000AF0CBEC0BF094EC0AF0CFEC0CF09BEC53
:101930000AF0CFEC0CF0A2EC0AF0E7EC05F066EC54
:1019400004F0120094EC0AF0CFEC0CF09BEC0AF0DF
:10195000CFEC0CF0A9EC0AF0A9EC0AF0CBEC0BF000
:10196000A9EC0AF0A9EC0AF0CAEC0AF0A9EC0AF01A
:10197000A9EC0AF0CBEC0BF0A9EC0AF0A9EC0AF008
:1019800094EC0AF0CFEC0CF09BEC0AF0CFEC0CF0EE
:10199000A2EC0AF0E7EC05F066EC04F01200700E21
:1019A0000F6E0F2E01D01200700E106E102E01D08F
:0C19B000F8D7600E116E112EFED7F8D78C
:0419BC00000E416E6A
:1019C0001200000EF86E000EF76ED60EF66E0D0EBB
:1019D0003E6E0900F550A0EC02F03E2EFAD7120040
:1019E000000EF86E000EF76EE40EF66E0D0E3F6EF2
:1019F0000900F550A0EC02F03F2EFAD71200000EBD
:101A0000F86E000EF76EF20EF66E0D0E406E0900C7
:101A1000F550A0EC02F0402EFAD71200396E010EFC
:101A20004126850EE0EC02F0270EA0EC02F0A6ECB9
:101A30000EF0850EE0EC02F02C0EA0EC02F0A6EC0D
:101A40000EF0850EE0EC02F0200EA0EC02F0C50EC8
:101A5000E0EC02F0270EA0EC02F0A6EC0EF0C50EB2
:101A6000E0EC02F02C0EA0EC02F0A6EC0EF0C90E99
:101A7000E0EC02F0200EA0EC02F0C80EE0EC02F068
:101A8000020EA0EC02F0A6EC0EF0C80EE0EC02F0A4
:101A9000200EA0EC02F0C70EE0EC02F0020EA0EC6B
:101AA00002F0A6EC0EF0C70EE0EC02F0200EA0EC67
:101AB00002F0C60EE0EC02F0020EA0EC02F0A6EC82
:101AC0000EF0C60EE0EC02F0200EA0EC02F0C50E07
:101AD000E0EC02F0020EA0EC02F0A6EC0EF0C50E57
:101AE000E0EC02F0200EA0EC02F0020EA0EC02F0FE
:101AF000A6EC0EF0C60EE0EC02F0200EA0EC02F018
:101B0000020EA0EC02F0A6EC0EF0C70EE0EC02F024
:101B1000200EA0EC02F0020EA0EC02F0A6EC0EF0FB
:101B2000C80EE0EC02F0200EA0EC02F0020EA0ECD9
:101B300002F04150020E416201D00AD0040E41620F
:101B400001D006D0060E416201D002D039501200F9
:101B5000010E3926A6EC0EF0A6EC0EF0A6EC0EF067
:101B6000C90EE0EC02F02A0EA0EC02F0A6EC0EF09A
:101B7000CA0EE0EC02F02A0EA0EC02F0890EE0ECB6
:101B800002F02A0EA0EC02F0C80EE0EC02F02A0EE1
:101B9000A0EC02F0A6EC0EF0CB0EE0EC02F02A0E68
:101BA000A0EC02F08A0EE0EC02F02A0EA0EC02F0AB
:101BB000880EE0EC02F02A0EA0EC02F0C70EE0EC7A
:101BC00002F02A0EA0EC02F0A6EC0EF0CC0EE0EC37
:101BD00002F02A0EA0EC02F08B0EE0EC02F02A0ECE
:101BE000A0EC02F0870EE0EC02F02A0EA0EC02F06E
:101BF000C60EE0EC02F02A0EA0EC02F0A6EC0EF00D
:101C0000CD0EE0EC02F02A0EA0EC02F08C0EE0EC1F
:101C100002F02A0EA0EC02F0860EE0EC02F02A0E92
:101C2000A0EC02F0C50EE0EC02F02A0EA0EC02F0EF
:101C3000A6EC0EF0CE0EE0EC02F02A0EA0EC02F0C4
:101C40008D0EE0EC02F02A0EA0EC02F0850EE0EC26
:101C500002F02A0EA0EC02F0C40EE0EC02F02A0E14
:101C6000A0EC02F0A6EC0EF0CF0EE0EC02F02A0E93
:101C7000A0EC02F08E0EE0EC02F02A0EA0EC02F0D6
:101C8000840EE0EC02F02A0EA0EC02F0C30EE0ECB1
:101C900002F02A0EA0EC02F0A6EC0EF08F0EE0ECA3
:101CA00002F02A0EA0EC02F0830EE0EC02F02A0E05
:101CB000A0EC02F0050E3D6EA6EC0EF0830EE0ECFB
:101CC00002F0E1EC0CF0C30EE0EC02F0F0EC0CF0F2
:101CD000A6EC0EF0830EE0EC02F0F0EC0CF0C30E7C
:101CE000E0EC02F0E1EC0CF03D2EE6D7830EE0ECE8
:101CF00002F0FFEC0CF0C30EE0EC02F0FFEC0CF095
:101D0000010E396201D004D0020E396215D00AD01A
:101D100048EC06F0C90EE0EC02F0020EA0EC02F076
:101D200039501200A9EC06F0C90EE0EC02F0020EE8
:101D3000A0EC02F0395012000AEC07F0C90EE0ECFA
:101D400002F0020EA0EC02F039501200900E3A6E32
:101D50003A2E01D01200900E3B6E3B2E01D0F8D7E8
:0A1D6000900E3C6E3C2EFED7F8D723
:061D6A00100E366E100E93
:101D7000376E100E376EC90EE0EC02F0200EA0ECAC
:101D800002F0020EA0EC02F056EC10F0CA0EE0ECED
:101D900002F0200EA0EC02F0020EA0EC02F056ECD5
:101DA00010F0CB0EE0EC02F0200EA0EC02F0020EE0
:101DB000A0EC02F056EC10F0CC0EE0EC02F0200E9D
:101DC000A0EC02F0020EA0EC02F056EC10F0CD0EEA
:101DD000E0EC02F0200EA0EC02F0020EA0EC02F00B
:101DE00056EC10F0CE0EE0EC02F0200EA0EC02F06B
:101DF000020EA0EC02F056EC10F0C30EE0EC02F084
:101E0000200EA0EC02F0000EA0EC02F056EC10F058
:101E1000C40EE0EC02F0200EA0EC02F0000EA0ECEC
:101E200002F056EC10F0C50EE0EC02F0200EA0EC33
:101E300002F0000EA0EC02F056EC10F0C60EE0EC42
:101E400002F0200EA0EC02F0000EA0EC02F056EC26
:101E500010F0C70EE0EC02F0200EA0EC02F0000E35
:101E6000A0EC02F056EC10F0C80EE0EC02F0200EF0
:101E7000A0EC02F0000EA0EC02F056EC10F0C90E3F
:101E8000E0EC02F0200EA0EC02F0000EA0EC02F05C
:101E900056EC10F0CA0EE0EC02F0200EA0EC02F0BE
:101EA000000EA0EC02F056EC10F0CB0EE0EC02F0CD
:101EB000200EA0EC02F0000EA0EC02F056EC10F0A8
:101EC000CC0EE0EC02F0200EA0EC02F0000EA0EC34
:101ED00002F056EC10F0CD0EE0EC02F0200EA0EC7B
:101EE00002F0000EA0EC02F056EC10F0ADD0CF0ED8
:101EF000E0EC02F0200EA0EC02F08F0EE0EC02F01D
:101F0000020EA0EC02F056EC10F036C033F0362E84
:101F100001D00AD037C034F0342E01D0F8D738C001
:101F200035F0352EFED7F8D7CE0EE0EC02F0200EBD
:101F3000A0EC02F0000EA0EC02F056EC10F0CF0E78
:101F4000E0EC02F0200EA0EC02F08F0EE0EC02F0CC
:101F5000200EA0EC02F0CF0EE0EC02F0020EA0EC9E
:101F600002F04BD7CE0EE0EC02F0200EA0EC02F017
:101F7000000EA0EC02F056EC10F0CF0EE0EC02F0F8
:101F8000200EA0EC02F056EC10F056EC10F0CF0E44
:101F9000E0EC02F0020EA0EC02F056EC10F0CF0ED6
:101FA000E0EC02F0200EA0EC02F0CE0EE0EC02F02D
:101FB000020EA0EC02F056EC10F0CE0EE0EC02F0B7
:101FC000200EA0EC02F0CD0EE0EC02F0020EA0EC30
:101FD00002F056EC10F0CD0EE0EC02F0200EA0EC7A
:101FE00002F0CC0EE0EC02F0020EA0EC02F056EC97
:101FF00010F0CC0EE0EC02F0200EA0EC02F0CB0EC4
:10200000E0EC02F0020EA0EC02F056EC10F0CB0E69
:10201000E0EC02F0200EA0EC02F0CA0EE0EC02F0C0
:10202000020EA0EC02F056EC10F0CA0EE0EC02F04A
:10203000200EA0EC02F0C90EE0EC02F0020EA0ECC3
:1020400002F056EC10F0120027EC10F00AD0F00E5F
:10205000966E538D0F0E846EFF0E206E53EC10F0B3
:102060001200400E336E332E01D07CD7010E365E47
:10207000400E346E342E01D0F6D7010E375E400E7E
:10208000356E010E385E03D0352EFBD7F3D784A80A
:1020900001D02DD784AA01D02AD784AC01D027D76C
:1020A00084AEF2D724D7202EFED71200800E306ED9
:1020B000302E01D01200800E316E312E01D0F8D7B3
:0A20C000800E326E322EFED7F8D7E4
:0620CA00D9EC02F0000E4B
:1020D000F86E210EF76EEA0EF66E100E196E0900FC
:1020E000F550A0EC02F0192EFAD71200D9EC02F04C
:1020F000010EA0EC02F0010EA0EC02F0010EA0EC2B
:1021000002F0C00EE0EC02F0050EA0EC02F0030EAF
:10211000A0EC02F0C90EE0EC02F0000EA0EC02F020
:102120001200050E1A6EC80EE0EC02F0B20EA0EC22
:1021300002F0CA0EE0EC02F0B20EA0EC02F0E6EC07
:1021400010F0C80EE0EC02F0200EA0EC02F0CA0E77
:10215000E0EC02F0200EA0EC02F0E6EC10F01A2EFB
:10216000E2D7050E1A6EC90EE0EC02F0000EA0ECEC
:1021700002F0E6EC10F0C90EE0EC02F0200EA0EC4C
:1021800002F0E6EC10F01A2EEED7C90EE0EC02F0E9
:10219000020EA0EC02F0C80EE0EC02F0280EA0EC5B
:1021A00002F0CA0EE0EC02F0290EA0EC02F0E6EC20
:1021B00010F0C80EE0EC02F0200EA0EC02F0CA0E07
:1021C000E0EC02F0200EA0EC02F01200900E166E71
:1021D000162E01D01200900E176E172E01D0F8D7D0
:0A21E000900E186E182EFED7F8D7E7
:0621EA0050524553532042
:0A21F0004120544F20484154434859
:020000040030CA
:0100000015EA
:0100010013EB
:010002007F7E
:010003007F7D
:01000400F902
:010005008B6F
:010006009168
:01000800FFF8
:01000900C036
:01000A00FFF6
:01000B00E014
:01000C00FFF4
:01000D0040B2
:00000001FF
