:020000040000FA
:0400000080EF00F09D
:020004000000FA
:0A0006002A202A202A202A202A207E
:100010002A202A00202A202A202A202A202A202AB0
:100020002000202020202020202020202020200010
:100030005052455353204120544F20484154434887
:020040001200AC
:02004200330089
:020044001200A8
:020046001200A6
:100100007F9C7F8E4DEC02F0E0EC00F018EC08F0E4
:100110008AEF00F00000000000009DEC0AF0FF0EE6
:10012000066E000E826FE6EC00F0826F410E826375
:10013000F6D7AEEC0AF03EEC02F03EEC02F0C9EC71
:100140000AF0FE0E066EFE0E076E010E086EF40E2D
:10015000056E030E0A6E000E096E91EC03F0000EA0
:10016000826FE6EC00F0826F410E826301D0F7D718
:10017000420E826304D0095023EC00F0F0D7430E06
:10018000826304D0095020EC00F0E9D7440E82636A
:1001900004D0095033EC0BF0E2D7450E826304D053
:1001A000095022EC00F0DBD7460E8263D8D7095005
:1001B00048EC08F0096EF40E056E9EEC01F0CFD706
:1001C0008D6AFF0E206E3EEC02F01200ECEC00F0A7
:1001D0000DD00AEC01F028D0F00E966E538D0F0E64
:1001E000846EFF0E206E3EEC02F0120084A803D055
:1001F000000E806FEED784AA03D0010E806FE9D77E
:1002000084AC03D0020E806FE4D784AE76D0030EA8
:10021000806FDFD70F0E966E538DF00E846EFF0E3B
:10022000206E28EC01F0120084A003D0040E816F30
:1002300012D084A203D0050E816F0DD084A403D008
:10024000060E816F08D084A6D1D7070E816F03D028
:10025000202EFED71200000E806313D001D01200B2
:10026000040E816302D0310E1200050E816302D0AC
:10027000320E1200060E816302D0330E1200460EBB
:100280001200010E806312D000D0040E816302D0F0
:10029000340E1200050E816302D0350E1200060ED8
:1002A000816302D0360E1200450E1200020E8063EA
:1002B00012D000D0040E816302D0370E1200050E5A
:1002C000816302D0380E1200060E816302D0390E0F
:1002D0001200440E120000D0040E816302D0410EC1
:1002E0001200050E816302D0300E1200060E8163EB
:1002F00002D0420E1200430E1200FF0E066201D021
:1003000075D7062E73D7072E01D003D0FE0E066ECA
:100310006DD7082E01D003D0FE0E076E67D7010EF1
:10032000055E9EEC01F0000E0564BDEC01F0FE0ED2
:10033000066EFE0E076E010E086E58D7C00ECBEC8F
:1003400002F0960E056004D0320E056008D00ED083
:10035000C00ECBEC02F0050E8BEC02F01200C00ECA
:10036000CBEC02F0060E8BEC02F01200C00ECBECD0
:1003700002F0070E8BEC02F01200010E0A5E020E74
:100380000A6201D004D0010E0A621FD00FD0820E83
:10039000CBEC02F0200E8BEC02F0F40E056EC00EDA
:1003A000CBEC02F0050E8BEC02F01200810ECBECD0
:1003B00002F0200E8BEC02F0F40E056EC00ECBECBA
:1003C00002F0050E8BEC02F01200C4EC02F0C90E34
:1003D000CBEC02F0000E8BEC02F03EEC02F03EECB7
:1003E00002F03EEC02F03EEC02F0C90ECBEC02F063
:1003F000200E8BEC02F0000E8BEC02F03EEC02F0D3
:10040000CA0ECBEC02F0200E8BEC02F0000E8BEC4F
:1004100002F03EEC02F0CB0ECBEC02F0200E8BECA7
:1004200002F0000E8BEC02F03EEC02F0CC0ECBECB6
:1004300002F0200E8BEC02F0000E8BEC02F03EEC92
:1004400002F0CD0ECBEC02F0200E8BEC02F0000E91
:100450008BEC02F03EEC02F0CE0ECBEC02F0200E64
:100460008BEC02F0000E8BEC02F03EEC02F0CF0EB3
:10047000CBEC02F0200E8BEC02F042D6FF0E0B6E9E
:100480000B2E01D01200FF0E0C6E0C2E01D0F8D7EF
:0A049000FF0E0D6E0D2EFED7F8D7FB
:06049A008A6AC00E936E99
:1004A000280EAEEC02F0300E7DEC02F00A0EB5EC38
:1004B00002F0280E7DEC02F00A0EB5EC02F0280ED8
:1004C0007DEC02F00A0EB5EC02F00C0E7DEC02F0B1
:1004D0000A0EB5EC02F0C4EC02F0060E7DEC02F060
:1004E0000A0EB5EC02F0D1EC02F01200046EEE50F0
:1004F0008BEC02F0042EFBD71200036E03380F0BB7
:100500008A6E8A989CEC02F003500F0B8A6E8A98D0
:100510009CEC02F01200036E03380F0B8A6E8A887F
:100520009CEC02F003500F0B8A6E8A889CEC02F060
:100530000A0EB5EC02F012000000000000000000FE
:1005400000000000000000008A8A00000000000097
:1005500000000000000000008A9A1200026EFA0EED
:10056000B5EC02F0022EFBD71200006E003A0F0E1F
:100570000014016EF00E0016BFEC02F01200000E27
:100580000006015AFDE21200010E7DEC02F0020E9F
:10059000AEEC02F012007DEC02F00A0EB5EC02F0B7
:1005A0001200400E7DEC02F00A0EB5EC02F0000ED7
:1005B0008BEC02F00A0EB5EC02F0410E7DEC02F07D
:1005C0000A0EB5EC02F0040E8BEC02F00A0EB5EC4C
:1005D00002F0420E7DEC02F00A0EB5EC02F00A0EBB
:1005E0008BEC02F00A0EB5EC02F0430E7DEC02F04B
:1005F0000A0EB5EC02F0150E8BEC02F00A0EB5EC0B
:1006000002F0440E7DEC02F00A0EB5EC02F01B0E77
:100610008BEC02F00A0EB5EC02F0450E7DEC02F018
:100620000A0EB5EC02F0150E8BEC02F00A0EB5ECDA
:1006300002F0460E7DEC02F00A0EB5EC02F01B0E45
:100640008BEC02F00A0EB5EC02F0470E7DEC02F0E6
:100650000A0EB5EC02F00E0E8BEC02F00A0EB5ECB1
:1006600002F0480E7DEC02F00A0EB5EC02F0000E2E
:100670008BEC02F00A0EB5EC02F0490E7DEC02F0B4
:100680000A0EB5EC02F00A0E8BEC02F00A0EB5EC85
:1006900002F04A0E7DEC02F00A0EB5EC02F0150EE7
:1006A0008BEC02F00A0EB5EC02F04B0E7DEC02F082
:1006B0000A0EB5EC02F0110E8BEC02F00A0EB5EC4E
:1006C00002F04C0E7DEC02F00A0EB5EC02F0110EB9
:1006D0008BEC02F00A0EB5EC02F04D0E7DEC02F050
:1006E0000A0EB5EC02F00A0E8BEC02F00A0EB5EC25
:1006F00002F04E0E7DEC02F00A0EB5EC02F0040E94
:100700008BEC02F00A0EB5EC02F04F0E7DEC02F01D
:100710000A0EB5EC02F0000E8BEC02F00A0EB5ECFE
:1007200002F0500E7DEC02F00A0EB5EC02F0000E65
:100730008BEC02F00A0EB5EC02F0510E7DEC02F0EB
:100740000A0EB5EC02F0000E8BEC02F00A0EB5ECCE
:1007500002F0520E7DEC02F00A0EB5EC02F0000E33
:100760008BEC02F00A0EB5EC02F0530E7DEC02F0B9
:100770000A0EB5EC02F0000E8BEC02F00A0EB5EC9E
:1007800002F0540E7DEC02F00A0EB5EC02F0000E01
:100790008BEC02F00A0EB5EC02F0550E7DEC02F087
:1007A0000A0EB5EC02F0000E8BEC02F00A0EB5EC6E
:1007B00002F0560E7DEC02F00A0EB5EC02F00C0EC3
:1007C0008BEC02F00A0EB5EC02F0570E7DEC02F055
:1007D0000A0EB5EC02F00C0E8BEC02F00A0EB5EC32
:1007E00002F0580E7DEC02F00A0EB5EC02F0000E9D
:1007F0008BEC02F00A0EB5EC02F0590E7DEC02F023
:100800000A0EB5EC02F0150E8BEC02F00A0EB5ECF8
:1008100002F05A0E7DEC02F00A0EB5EC02F00E0E5C
:100820008BEC02F00A0EB5EC02F05B0E7DEC02F0F0
:100830000A0EB5EC02F01F0E8BEC02F00A0EB5ECBE
:1008400002F05C0E7DEC02F00A0EB5EC02F00E0E2A
:100850008BEC02F00A0EB5EC02F05D0E7DEC02F0BE
:100860000A0EB5EC02F0150E8BEC02F00A0EB5EC98
:1008700002F05E0E7DEC02F00A0EB5EC02F0000E06
:100880008BEC02F00A0EB5EC02F05F0E7DEC02F08C
:100890000A0EB5EC02F0000E8BEC02F00A0EB5EC7D
:1008A00002F0600E7DEC02F00A0EB5EC02F0000ED4
:1008B0008BEC02F00A0EB5EC02F0610E7DEC02F05A
:1008C0000A0EB5EC02F00F0E8BEC02F00A0EB5EC3E
:1008D00002F0620E7DEC02F00A0EB5EC02F01C0E86
:1008E0008BEC02F00A0EB5EC02F0630E7DEC02F028
:1008F0000A0EB5EC02F0180E8BEC02F00A0EB5EC05
:1009000002F0640E7DEC02F00A0EB5EC02F0180E57
:100910008BEC02F00A0EB5EC02F0650E7DEC02F0F5
:100920000A0EB5EC02F01C0E8BEC02F00A0EB5ECD0
:1009300002F0660E7DEC02F00A0EB5EC02F00F0E2E
:100940008BEC02F00A0EB5EC02F0670E7DEC02F0C3
:100950000A0EB5EC02F0000E8BEC02F00A0EB5ECBC
:1009600002F0680E7DEC02F00A0EB5EC02F0000E0B
:100970008BEC02F00A0EB5EC02F0690E7DEC02F091
:100980000A0EB5EC02F0000E8BEC02F00A0EB5EC8C
:1009900002F06A0E7DEC02F00A0EB5EC02F00A0ECF
:1009A0008BEC02F00A0EB5EC02F06B0E7DEC02F05F
:1009B0000A0EB5EC02F0000E8BEC02F00A0EB5EC5C
:1009C00002F06C0E7DEC02F00A0EB5EC02F0000EA7
:1009D0008BEC02F00A0EB5EC02F06D0E7DEC02F02D
:1009E0000A0EB5EC02F00A0E8BEC02F00A0EB5EC22
:1009F00002F06E0E7DEC02F00A0EB5EC02F00E0E67
:100A00008BEC02F00A0EB5EC02F06F0E7DEC02F0FA
:100A10000A0EB5EC02F0000E8BEC02F00A0EB5ECFB
:100A200002F0700E7DEC02F00A0EB5EC02F0000E42
:100A30008BEC02F00A0EB5EC02F0710E7DEC02F0C8
:100A40000A0EB5EC02F0000E8BEC02F00A0EB5ECCB
:100A500002F0720E7DEC02F00A0EB5EC02F00A0E06
:100A60008BEC02F00A0EB5EC02F0730E7DEC02F096
:100A70000A0EB5EC02F0000E8BEC02F00A0EB5EC9B
:100A800002F0740E7DEC02F00A0EB5EC02F0000EDE
:100A90008BEC02F00A0EB5EC02F0750E7DEC02F064
:100AA0000A0EB5EC02F00E0E8BEC02F00A0EB5EC5D
:100AB00002F0760E7DEC02F00A0EB5EC02F0000EAC
:100AC0008BEC02F00A0EB5EC02F0770E7DEC02F032
:100AD0000A0EB5EC02F0000E8BEC02F00A0EB5EC3B
:100AE00002F0780E7DEC02F00A0EB5EC02F0000E7A
:100AF0008BEC02F00A0EB5EC02F0790E7DEC02F000
:100B00000A0EB5EC02F0000E8BEC02F00A0EB5EC0A
:100B100002F07A0E7DEC02F00A0EB5EC02F00A0E3D
:100B20008BEC02F00A0EB5EC02F07B0E7DEC02F0CD
:100B30000A0EB5EC02F0000E8BEC02F00A0EB5ECDA
:100B400002F07C0E7DEC02F00A0EB5EC02F0000E15
:100B50008BEC02F00A0EB5EC02F07D0E7DEC02F09B
:100B60000A0EB5EC02F00E0E8BEC02F00A0EB5EC9C
:100B700002F07E0E7DEC02F00A0EB5EC02F00A0ED9
:100B80008BEC02F00A0EB5EC02F07F0E7DEC02F069
:100B90000A0EB5EC02F0000E8BEC02F00A0EB5EC7A
:100BA00002F01200400E7DEC02F00A0EB5EC02F0ED
:100BB0000E0E8BEC02F00A0EB5EC02F0410E7DEC4D
:100BC00002F00A0EB5EC02F01F0E8BEC02F00A0EDA
:100BD000B5EC02F0420E7DEC02F00A0EB5EC02F02C
:100BE000150E8BEC02F00A0EB5EC02F0430E7DEC14
:100BF00002F00A0EB5EC02F01F0E8BEC02F00A0EAA
:100C0000B5EC02F0440E7DEC02F00A0EB5EC02F0F9
:100C10001F0E8BEC02F00A0EB5EC02F0450E7DECD7
:100C200002F00A0EB5EC02F01F0E8BEC02F00A0E79
:100C3000B5EC02F0460E7DEC02F00A0EB5EC02F0C7
:100C4000150E8BEC02F00A0EB5EC02F0470E7DECAF
:100C500002F00A0EB5EC02F0000E8BEC02F00A0E68
:100C6000B5EC02F01200500E7DEC02F00A0EB5EC6D
:100C700002F0000E8BEC02F00A0EB5EC02F0510E01
:100C80007DEC02F00A0EB5EC02F0000E8BEC02F0E7
:100C90000A0EB5EC02F0520E7DEC02F00A0EB5EC35
:100CA00002F0000E8BEC02F00A0EB5EC02F0530ECF
:100CB0007DEC02F00A0EB5EC02F00A0E8BEC02F0AD
:100CC0000A0EB5EC02F0540E7DEC02F00A0EB5EC03
:100CD00002F00A0E8BEC02F00A0EB5EC02F0550E93
:100CE0007DEC02F00A0EB5EC02F00E0E8BEC02F079
:100CF0000A0EB5EC02F0560E7DEC02F00A0EB5ECD1
:100D000002F00E0E8BEC02F00A0EB5EC02F0570E5C
:100D10007DEC02F00A0EB5EC02F00E0E8BEC02F048
:100D20000A0EB5EC02F01200500E7DEC02F00A0E35
:100D3000B5EC02F0000E8BEC02F00A0EB5EC02F0FE
:100D4000510E7DEC02F00A0EB5EC02F00A0E8BECAF
:100D500002F00A0EB5EC02F0520E7DEC02F00A0E23
:100D6000B5EC02F00A0E8BEC02F00A0EB5EC02F0C4
:100D7000530E7DEC02F00A0EB5EC02F01F0E8BEC68
:100D800002F00A0EB5EC02F0540E7DEC02F00A0EF1
:100D9000B5EC02F0150E8BEC02F00A0EB5EC02F089
:100DA000550E7DEC02F00A0EB5EC02F01B0E8BEC3A
:100DB00002F00A0EB5EC02F0560E7DEC02F00A0EBF
:100DC000B5EC02F01F0E8BEC02F00A0EB5EC02F04F
:100DD000570E7DEC02F00A0EB5EC02F00E0E8BEC15
:100DE00002F00A0EB5EC02F01200500E7DEC02F09B
:100DF0000A0EB5EC02F01B0E8BEC02F00A0EB5ECFD
:100E000002F0510E7DEC02F00A0EB5EC02F00A0E73
:100E10008BEC02F00A0EB5EC02F0520E7DEC02F003
:100E20000A0EB5EC02F01F0E8BEC02F00A0EB5ECC8
:100E300002F0530E7DEC02F00A0EB5EC02F0150E36
:100E40008BEC02F00A0EB5EC02F0540E7DEC02F0D1
:100E50000A0EB5EC02F01B0E8BEC02F00A0EB5EC9C
:100E600002F0550E7DEC02F00A0EB5EC02F01F0EFA
:100E70008BEC02F00A0EB5EC02F0560E7DEC02F09F
:100E80000A0EB5EC02F00E0E8BEC02F00A0EB5EC79
:100E900002F0570E7DEC02F00A0EB5EC02F01F0EC8
:100EA0008BEC02F00A0EB5EC02F01200400E7DEC65
:100EB00002F00A0EB5EC02F0040E8BEC02F00A0E02
:100EC000B5EC02F0410E7DEC02F00A0EB5EC02F03A
:100ED000040E8BEC02F00A0EB5EC02F0420E7DEC33
:100EE00002F00A0EB5EC02F00E0E8BEC02F00A0EC8
:100EF000B5EC02F0430E7DEC02F00A0EB5EC02F008
:100F0000150E8BEC02F00A0EB5EC02F0440E7DECEF
:100F100002F00A0EB5EC02F01B0E8BEC02F00A0E8A
:100F2000B5EC02F0450E7DEC02F00A0EB5EC02F0D5
:100F3000150E8BEC02F00A0EB5EC02F0460E7DECBD
:100F400002F00A0EB5EC02F00E0E8BEC02F00A0E67
:100F5000B5EC02F0470E7DEC02F00A0EB5EC02F0A3
:100F6000000E8BEC02F00A0EB5EC02F01200600EDF
:100F70007DEC02F00A0EB5EC02F0040E8BEC02F0F0
:100F80000A0EB5EC02F0610E7DEC02F00A0EB5EC33
:100F900002F0040E8BEC02F00A0EB5EC02F0620EC9
:100FA0007DEC02F00A0EB5EC02F00E0E8BEC02F0B6
:100FB0000A0EB5EC02F0630E7DEC02F00A0EB5EC01
:100FC00002F01B0E8BEC02F00A0EB5EC02F0640E80
:100FD0007DEC02F00A0EB5EC02F0150E8BEC02F07F
:100FE0000A0EB5EC02F0650E7DEC02F00A0EB5ECCF
:100FF00002F01B0E8BEC02F00A0EB5EC02F0660E4E
:101000007DEC02F00A0EB5EC02F00E0E8BEC02F055
:101010000A0EB5EC02F0670E7DEC02F00A0EB5EC9C
:1010200002F0000E8BEC02F00A0EB5EC02F012009A
:10103000000E1D6E1200000EF86E000EF76E060E0A
:10104000F66E0D0E1A6E0900F5508BEC02F01A2E9A
:10105000FAD71200000EF86E000EF76E140EF66E40
:101060000D0E1B6E0900F5508BEC02F01B2EFAD70B
:101070001200000EF86E000EF76E220EF66E0D0EC8
:101080001C6E0900F5508BEC02F01C2EFAD71200F2
:10109000156E010E1D26850ECBEC02F0270E8BEC93
:1010A00002F0F1EC09F0850ECBEC02F02C0E8BEC8B
:1010B00002F0F1EC09F0850ECBEC02F0200E8BEC87
:1010C00002F0C50ECBEC02F0270E8BEC02F0F1EC37
:1010D00009F0C50ECBEC02F02C0E8BEC02F0F1EC1B
:1010E00009F0C90ECBEC02F0200E8BEC02F0C80E1A
:1010F000CBEC02F0020E8BEC02F0F1EC09F0C80E22
:10110000CBEC02F0200E8BEC02F0C70ECBEC02F021
:10111000020E8BEC02F0F1EC09F0C70ECBEC02F002
:10112000200E8BEC02F0C60ECBEC02F0020E8BEC24
:1011300002F0F1EC09F0C60ECBEC02F0200E8BECC5
:1011400002F0C50ECBEC02F0020E8BEC02F0F1ECDB
:1011500009F0C50ECBEC02F0200E8BEC02F0020E73
:101160008BEC02F0F1EC09F0C60ECBEC02F0200E95
:101170008BEC02F0020E8BEC02F0F1EC09F0C70EE2
:10118000CBEC02F0200E8BEC02F0020E8BEC02F0A6
:10119000F1EC09F0C80ECBEC02F0200E8BEC02F063
:1011A000020E8BEC02F00A0E1D6201D00AD0190E5D
:1011B0001D6201D006D0320E1D6201D002D0155042
:1011C0001200010E1526F1EC09F0F1EC09F0F1EC3A
:1011D00009F0C90ECBEC02F02A0E8BEC02F0F1EC18
:1011E00009F0F1EC09F0CA0ECBEC02F02A0E8BEC00
:1011F00002F0890ECBEC02F02A0E8BEC02F0C80E46
:10120000CBEC02F02A0E8BEC02F0F1EC09F0F1ECE1
:1012100009F0CB0ECBEC02F02A0E8BEC02F08A0E1A
:10122000CBEC02F02A0E8BEC02F0880ECBEC02F035
:101230002A0E8BEC02F0C70ECBEC02F02A0E8BECE0
:1012400002F0F1EC09F0F1EC09F0CC0ECBEC02F07D
:101250002A0E8BEC02F08B0ECBEC02F02A0E8BECFC
:1012600002F0870ECBEC02F02A0E8BEC02F0C60ED9
:10127000CBEC02F02A0E8BEC02F0F1EC09F0F1EC71
:1012800009F0CD0ECBEC02F02A0E8BEC02F08C0EA6
:10129000CBEC02F02A0E8BEC02F0860ECBEC02F0C7
:1012A0002A0E8BEC02F0C50ECBEC02F02A0E8BEC72
:1012B00002F0F1EC09F0F1EC09F0CE0ECBEC02F00B
:1012C0002A0E8BEC02F08D0ECBEC02F02A0E8BEC8A
:1012D00002F0850ECBEC02F02A0E8BEC02F0C40E6D
:1012E000CBEC02F02A0E8BEC02F0F1EC09F0F1EC01
:1012F00009F0CF0ECBEC02F02A0E8BEC02F08E0E32
:10130000CBEC02F02A0E8BEC02F0840ECBEC02F058
:101310002A0E8BEC02F0C30ECBEC02F02A0E8BEC03
:1013200002F0F1EC09F0F1EC09F08F0ECBEC02F0D9
:101330002A0E8BEC02F0830ECBEC02F02A0E8BEC23
:1013400002F0050E196EF1EC09F0F1EC09F0830ED4
:10135000CBEC02F01BEC08F0C30ECBEC02F02AEC55
:1013600008F0F1EC09F0F1EC09F0830ECBEC02F09F
:101370002AEC08F0C30ECBEC02F01BEC08F0192E9F
:10138000E2D7830ECBEC02F039EC08F0C30ECBECC5
:1013900002F039EC08F0010E156201D004D0020E03
:1013A000156215D00AD033EC06F0C90ECBEC02F072
:1013B000020E8BEC02F01550120094EC06F0C90EF0
:1013C000CBEC02F0020E8BEC02F015501200F5ECA3
:1013D00006F0C90ECBEC02F0020E8BEC02F01550B9
:1013E0001200900E166E162E01D01200900E176E7F
:1013F000172E01D0F8D7900E186E182EFED7F8D7FA
:101400008D6AFF0E206E48EC0AF012000CEC0AF018
:101410000DD02AEC0AF028D0F00E966E538D0F0EE8
:10142000846EFF0E206E48EC0AF0120084A803D0F0
:10143000000E0E6EEED784AA03D0010E0E6EE9D711
:1014400084AC03D0020E0E6EE4D784AEEFD7030E49
:101450000E6EDFD70F0E966E538DF00E846EFF0E5C
:10146000206E48EC0AF0120084A003D0040E0F6E28
:1014700012D084A203D0050E0F6E0DD084A403D029
:10148000060E0F6E08D084A6D1D7070E0F6E03D0BC
:10149000202EFED71200000E0E6213D001D01200D3
:1014A000040E0F6202D0310E1200050E0F6202D040
:1014B000320E1200060E0F6202D0330E1200460EDC
:1014C0001200010E0E6212D000D0040E0F6202D084
:1014D000340E1200050E0F6202D0350E1200060EF9
:1014E0000F6202D0360E1200450E1200020E0E627E
:1014F00012D000D0040E0F6202D0370E1200050E7B
:101500000F6202D0380E1200060E0F6202D0390EA2
:101510001200440E120000D0040E0F6202D0410EE1
:101520001200050E0F6202D0300E1200060E0F627E
:0A15300002D0420E1200430E12001A
:06153A00C4EC02F0000EFB
:10154000F86E000EF76E300EF66E100E216E09006A
:10155000F5508BEC02F0212EFAD71200C4EC02F009
:10156000010E8BEC02F0010E8BEC02F0010E8BEC05
:1015700002F0C00ECBEC02F0050E8BEC02F0030E75
:101580008BEC02F0C90ECBEC02F0000E8BEC02F0FB
:10159000120024EC0BF00F0E206EC80ECBEC02F004
:1015A000B20E8BEC02F0CA0ECBEC02F0B20E8BEC5A
:1015B00002F024EC0BF0C80ECBEC02F0200E8BEC0A
:1015C00002F0CA0ECBEC02F0200E8BEC02F024EC01
:1015D0000BF0202EE2D7050E206EC90ECBEC02F0E8
:1015E000000E8BEC02F024EC0BF0C90ECBEC02F0F9
:1015F000200E8BEC02F024EC0BF0202EEED7C90E5F
:10160000CBEC02F0020E8BEC02F0C80ECBEC02F039
:10161000280E8BEC02F0CA0ECBEC02F0290E8BECFC
:1016200002F024EC0BF024EC0BF024EC0BF0C80ED1
:10163000CBEC02F0200E8BEC02F0CA0ECBEC02F0E9
:10164000200E8BEC02F01200200E1E6E1E2E01D01A
:101650001200200E1F6E1F2E01D0F8D7200E206E14
:06166000202EFED7F8D792
:0A16660056EC07F0B7EC07F0050E94
:10167000146E106E000E106201D008D0010E1062C0
:1016800001D01BD0020E106246D02ED08F0ECBECB4
:1016900002F0000E8BEC02F0A2EC0BF08F0ECBEC04
:1016A00002F0040E8BEC02F0A2EC0BF0142EEED73D
:1016B000D2EC05F051EC04F012008F0ECBEC02F0EE
:1016C000000E8BEC02F0A2EC0BF08F0ECBEC02F0D4
:1016D000040E8BEC02F0A2EC0BF0142EEED7D2EC41
:1016E00005F051EC04F012008F0ECBEC02F0000E6E
:1016F0008BEC02F0A2EC0BF08F0ECBEC02F0040EA0
:101700008BEC02F0A2EC0BF0142EEED7D2EC05F02D
:1017100051EC04F012008F0ECBEC02F0000E8BECBB
:1017200002F0A2EC0BF08F0ECBEC02F0040E8BEC6F
:1017300002F0A2EC0BF0142EEED7D2EC05F051EC37
:1017400004F01200900E116E112E01D01200900EB6
:10175000126E122E01D0F8D7900E136E132EFED7F4
:02176000F8D7B8
:020000040030CA
:0100000015EA
:0100010013EB
:010002007F7E
:010003007F7D
:01000400F902
:010005008B6F
:010006009168
:01000800FFF8
:01000900C036
:01000A00FFF6
:01000B00E014
:01000C00FFF4
:01000D0040B2
:00000001FF
