:020000040000FA
:020000000000FE
:0E0002008A6AC00E936E280E63EC00F0300E7A
:1000100032EC00F00A0E6AEC00F0280E32EC00F030
:100020000A0E6AEC00F0280E32EC00F00A0E6AECC0
:1000300000F0080E32EC00F00A0E6AEC00F079ECE9
:1000400000F0020E63EC00F0060E32EC00F00A0E37
:100050006AEC00F01200046EDE5040EC00F0042E5A
:10006000FBD71200036E03380F0B8A6E8A9851EC8F
:1000700000F003500F0B8A6E8A9851EC00F01200CA
:10008000036E03380F0B8A6E8A8851EC00F0035020
:100090000F0B8A6E8A8851EC00F00A0E6AEC00F0B1
:1000A000120000000000000000000000000000003E
:1000B00000008A8A0000000000000000000000002C
:1000C00000008A9A1200026EFA0E6AEC00F0022E0C
:1000D000FBD71200006E003A0F0E0014016EF00EF6
:1000E000001674EC00F01200000E0006015AFDE24A
:1000F0001200010E32EC00F01200C00E32EC00F0E3
:020100001200EB
:0401020001EC00F01C
:020000040030CA
:0100000015EA
:0100010013EB
:010002007F7E
:010003007F7D
:01000400F902
:010005008B6F
:010006009168
:01000800FFF8
:01000900C036
:01000A00FFF6
:01000B00E014
:01000C00FFF4
:01000D0040B2
:00000001FF
