:020000040000FA
:1000000002EF00F07F9C7F8E1CEC00F001D000D04E
:10001000000EF86E010EF76E4C0EF66E100E0B6EA3
:100020000900F5505BEC00F00B2EFAD716EF00F04C
:060030000C2EFED71200A9
:020036000000C8
:080038008A6AC00E936E280EC7
:100040007EEC00F0300E4DEC00F00A0E85EC00F076
:10005000280E4DEC00F00A0E85EC00F0280E4DEC59
:1000600000F00A0E85EC00F00C0E4DEC00F00A0ECC
:1000700085EC00F094EC00F0020E7EEC00F0060E31
:100080004DEC00F00A0E85EC00F01200046EEE500C
:100090005BEC00F0042EFBD71200036E03380F0B4D
:1000A0008A6E8A986CEC00F003500F0B8A6E8A9867
:1000B0006CEC00F01200036E03380F0B8A6E8A8816
:1000C0006CEC00F003500F0B8A6E8A886CEC00F029
:1000D0000A0E85EC00F01200000000000000000095
:1000E00000000000000000008A8A000000000000FC
:1000F00000000000000000008A9A1200026EFA0E52
:1001000085EC00F0022EFBD71200006E003A0F0EB5
:100110000014016EF00E00168FEC00F01200000EBD
:100120000006015AFDE21200010E4DEC00F0120033
:0C0130004DEC00F00A0E85EC00F012000F
:04013C005052455385
:1001400053204120544F2053544152545052455350
:0C01500053204220464F52444541544881
:020000040030CA
:0100000015EA
:0100010013EB
:010002007F7E
:010003007F7D
:01000400F902
:010005008B6F
:010006009168
:01000800FFF8
:01000900C036
:01000A00FFF6
:01000B00E014
:01000C00FFF4
:01000D0040B2
:00000001FF
