:020000040000FA
:0400000080EF00F09D
:020004000000FA
:0A000600050E486EC10E1AEC03F05F
:10001000040EDAEC02F08A0E1AEC03F05A0EDAEC57
:1000200002F038EC00F05A0EDAEC02F038EC00F096
:100030005A0EDAEC02F038EC00F08A0E1AEC03F0FB
:10004000200EDAEC02F038EC00F0200EDAEC02F0D0
:1000500038EC00F0200EDAEC02F038EC00F0482E1C
:10006000DAD7C10E1AEC03F0030EDAEC02F012003C
:10007000900E496E492E01D01200900E4A6E4A2E03
:0E00800001D0F8D7900E4B6E4B2EFED7F8D75E
:02008E0057EC2D
:1000900000F0120092862587010EC26E300EC16EEE
:1000A000F60EC06E1200C282C2B2FED7120053EC2E
:1000B00000F0C450456EC350446E1200466E463880
:1000C00063EC00F046500F0B476E0A0E4760070FB7
:0600D000260F4724120078
:0A00D6002A202A202A202A202A20AE
:1000E0002A202A00202A202A202A202A202A202AE0
:1000F0002000202020202020202020202020200040
:100100007F9C7F8E9CEC02F00BEC01F018EC0DF064
:100110004AEC00F0000E996E8EEF00F00000000037
:100120000000ADEC10F0FF0E066E000E826F11ECB9
:1001300001F0826F410E8263F6D7BEEC10F08DECB9
:1001400002F0CFEC10F08DEC02F047EC00F0C80E9E
:10015000446401D007D0C20E1AEC03F02A0EDAEC88
:1001600002F0F1D7C20E1AEC03F0D70EDAEC02F06F
:10017000EAEC10F0FE0E066EFE0E076E050E086E1F
:10018000F40E056E030E0A6E000E096EE0EC03F02D
:1001900021EC06F0000E826F11EC01F0826F410E2F
:1001A000826301D0F7D7420E826308D00950EFEC8A
:1001B0000EF0F40E056EEAEC01F0ECD7430E82630C
:1001C00008D0095003EC00F0F40E056EEAEC01F0E3
:1001D000E1D7440E826308D0095062EC0CF0F40EB3
:1001E000056EEAEC01F0D6D7450E826308D00950BF
:1001F00067EC08F0F40E056EEAEC01F0CBD7460E82
:100200008263C8D7095048EC0DF0096EF40E056EF4
:10021000EAEC01F0BFD78D6AFF0E206E53EC01F0BF
:10022000120017EC01F00DD035EC01F028D0F00EE3
:10023000966E538D0F0E846EFF0E206E53EC01F000
:10024000120084A803D0000E806FEED784AA03D0DA
:10025000010E806FE9D784AC03D0020E806FE4D723
:1002600084AE76D0030E806FDFD70F0E966E538D5F
:10027000F00E846EFF0E206E53EC01F0120084A08D
:1002800003D0040E816F12D084A203D0050E816FBB
:100290000DD084A403D0060E816F08D084A6D1D7D8
:1002A000070E816F03D0202EFED71200000E806350
:1002B00013D001D01200040E816302D0310E12005F
:1002C000050E816302D0320E1200060E816302D049
:1002D000330E1200460E1200010E806312D000D0C1
:1002E000040E816302D0340E1200050E816302D029
:1002F000350E1200060E816302D0360E1200450E36
:100300001200020E806312D000D0040E816302D06E
:10031000370E1200050E816302D0380E1200060E51
:10032000816302D0390E1200440E120000D0040E78
:10033000816302D0410E1200050E816302D0300E9F
:100340001200060E816302D0420E1200430E12000C
:10035000FF0E066201D075D7062E73D7072E01D087
:1003600003D0FE0E066E6DD7082E01D005D0FE0E0E
:10037000066EFE0E076E65D7010E055EEAEC01F013
:10038000000E05640BEC02F0FE0E066EFE0E076E0C
:10039000050E086E56D747EC00F0DB0E446401D022
:1003A0000BD0C80E44600FD000D0C20E1AEC03F080
:1003B0002A0EDAEC02F01200C20E1AEC03F0D70E8D
:1003C000DAEC02F01200C20E1AEC03F0200EDAECA6
:1003D00002F01200CBEC01F0C00E1AEC03F0960E06
:1003E000056004D0320E056008D00ED0C00E1AECA5
:1003F00003F0050EDAEC02F01200C00E1AEC03F066
:10040000060EDAEC02F01200C00E1AEC03F0070E32
:10041000DAEC02F01200010E0A5E020E0A6201D04E
:1004200004D0010E0A621FD00FD0820E1AEC03F026
:10043000200EDAEC02F0F40E056EC00E1AEC03F09A
:10044000050EDAEC02F01200810E1AEC03F0200E19
:10045000DAEC02F0F40E056EC00E1AEC03F0050E95
:10046000DAEC02F012004CD613EC03F0C90E1AECD1
:1004700003F0000EDAEC02F08DEC02F08DEC02F0ED
:100480008DEC02F08DEC02F0C90E1AEC03F0200E98
:10049000DAEC02F0000EDAEC02F08DEC02F0CA0E9B
:1004A0001AEC03F0200EDAEC02F0000EDAEC02F0A7
:1004B0008DEC02F0CB0E1AEC03F0200EDAEC02F019
:1004C000000EDAEC02F08DEC02F0CC0E1AEC03F028
:1004D000200EDAEC02F0000EDAEC02F08DEC02F005
:1004E000CD0E1AEC03F0200EDAEC02F0000EDAEC7E
:1004F00002F08DEC02F0CE0E1AEC03F0200EDAECD6
:1005000002F0000EDAEC02F08DEC02F0CF0E1AECE5
:1005100003F0200EDAEC02F0F3D5FF0E0B6E0B2E7B
:1005200001D01200FF0E0C6E0C2E01D0F8D7FF0E7A
:080530000D6E0D2EFED7F8D769
:080538008A6AC00E936E280EC2
:10054000FDEC02F0300ECCEC02F00A0E04EC03F0ED
:10055000280ECCEC02F00A0E04EC03F0280ECCECD2
:1005600002F00A0E04EC03F00C0ECCEC02F00A0EC2
:1005700004EC03F013EC03F0060ECCEC02F00A0ED0
:1005800004EC03F020EC03F01200046EEE50DAEC01
:1005900002F0042EFBD71200036E03380F0B8A6E95
:1005A0008A98EBEC02F003500F0B8A6E8A98EBEC02
:1005B00002F01200036E03380F0B8A6E8A88EBEC90
:1005C00002F003500F0B8A6E8A88EBEC02F00A0EE1
:1005D00004EC03F012000000000000000000000026
:1005E0000000000000008A8A0000000000000000F7
:1005F0000000000000008A9A1200026EFA0E04EC5D
:1006000003F0022EFBD71200006E003A0F0E00140A
:10061000016EF00E00160EEC03F01200000E000644
:10062000015AFDE21200010ECCEC02F0020EFDECCC
:1006300002F01200CCEC02F00A0E04EC03F01200FF
:10064000400ECCEC02F00A0E04EC03F0000EDAECE3
:1006500002F00A0E04EC03F0410ECCEC02F00A0E9C
:1006600004EC03F0040EDAEC02F00A0E04EC03F0E2
:10067000420ECCEC02F00A0E04EC03F00A0EDAECA7
:1006800002F00A0E04EC03F0430ECCEC02F00A0E6A
:1006900004EC03F0150EDAEC02F00A0E04EC03F0A1
:1006A000440ECCEC02F00A0E04EC03F01B0EDAEC64
:1006B00002F00A0E04EC03F0450ECCEC02F00A0E38
:1006C00004EC03F0150EDAEC02F00A0E04EC03F071
:1006D000460ECCEC02F00A0E04EC03F01B0EDAEC32
:1006E00002F00A0E04EC03F0470ECCEC02F00A0E06
:1006F00004EC03F00E0EDAEC02F00A0E04EC03F048
:10070000480ECCEC02F00A0E04EC03F0000EDAEC1A
:1007100002F00A0E04EC03F0490ECCEC02F00A0ED3
:1007200004EC03F00A0EDAEC02F00A0E04EC03F01B
:100730004A0ECCEC02F00A0E04EC03F0150EDAECD3
:1007400002F00A0E04EC03F04B0ECCEC02F00A0EA1
:1007500004EC03F0110EDAEC02F00A0E04EC03F0E4
:100760004C0ECCEC02F00A0E04EC03F0110EDAECA5
:1007700002F00A0E04EC03F04D0ECCEC02F00A0E6F
:1007800004EC03F00A0EDAEC02F00A0E04EC03F0BB
:100790004E0ECCEC02F00A0E04EC03F0040EDAEC80
:1007A00002F00A0E04EC03F04F0ECCEC02F00A0E3D
:1007B00004EC03F0000EDAEC02F00A0E04EC03F095
:1007C000500ECCEC02F00A0E04EC03F0000EDAEC52
:1007D00002F00A0E04EC03F0510ECCEC02F00A0E0B
:1007E00004EC03F0000EDAEC02F00A0E04EC03F065
:1007F000520ECCEC02F00A0E04EC03F0000EDAEC20
:1008000002F00A0E04EC03F0530ECCEC02F00A0ED8
:1008100004EC03F0000EDAEC02F00A0E04EC03F034
:10082000540ECCEC02F00A0E04EC03F0000EDAECED
:1008300002F00A0E04EC03F0550ECCEC02F00A0EA6
:1008400004EC03F0000EDAEC02F00A0E04EC03F004
:10085000560ECCEC02F00A0E04EC03F00C0EDAECAF
:1008600002F00A0E04EC03F0570ECCEC02F00A0E74
:1008700004EC03F00C0EDAEC02F00A0E04EC03F0C8
:10088000580ECCEC02F00A0E04EC03F0000EDAEC89
:1008900002F00A0E04EC03F0590ECCEC02F00A0E42
:1008A00004EC03F0150EDAEC02F00A0E04EC03F08F
:1008B0005A0ECCEC02F00A0E04EC03F00E0EDAEC49
:1008C00002F00A0E04EC03F05B0ECCEC02F00A0E10
:1008D00004EC03F01F0EDAEC02F00A0E04EC03F055
:1008E0005C0ECCEC02F00A0E04EC03F00E0EDAEC17
:1008F00002F00A0E04EC03F05D0ECCEC02F00A0EDE
:1009000004EC03F0150EDAEC02F00A0E04EC03F02E
:100910005E0ECCEC02F00A0E04EC03F0000EDAECF2
:1009200002F00A0E04EC03F05F0ECCEC02F00A0EAB
:1009300004EC03F0000EDAEC02F00A0E04EC03F013
:10094000600ECCEC02F00A0E04EC03F0000EDAECC0
:1009500002F00A0E04EC03F0610ECCEC02F00A0E79
:1009600004EC03F00F0EDAEC02F00A0E04EC03F0D4
:10097000620ECCEC02F00A0E04EC03F01C0EDAEC72
:1009800002F00A0E04EC03F0630ECCEC02F00A0E47
:1009900004EC03F0180EDAEC02F00A0E04EC03F09B
:1009A000640ECCEC02F00A0E04EC03F0180EDAEC44
:1009B00002F00A0E04EC03F0650ECCEC02F00A0E15
:1009C00004EC03F01C0EDAEC02F00A0E04EC03F067
:1009D000660ECCEC02F00A0E04EC03F00F0EDAEC1B
:1009E00002F00A0E04EC03F0670ECCEC02F00A0EE3
:1009F00004EC03F0000EDAEC02F00A0E04EC03F053
:100A0000680ECCEC02F00A0E04EC03F0000EDAECF7
:100A100002F00A0E04EC03F0690ECCEC02F00A0EB0
:100A200004EC03F0000EDAEC02F00A0E04EC03F022
:100A30006A0ECCEC02F00A0E04EC03F00A0EDAECBB
:100A400002F00A0E04EC03F06B0ECCEC02F00A0E7E
:100A500004EC03F0000EDAEC02F00A0E04EC03F0F2
:100A60006C0ECCEC02F00A0E04EC03F0000EDAEC93
:100A700002F00A0E04EC03F06D0ECCEC02F00A0E4C
:100A800004EC03F00A0EDAEC02F00A0E04EC03F0B8
:100A90006E0ECCEC02F00A0E04EC03F00E0EDAEC53
:100AA00002F00A0E04EC03F06F0ECCEC02F00A0E1A
:100AB00004EC03F0000EDAEC02F00A0E04EC03F092
:100AC000700ECCEC02F00A0E04EC03F0000EDAEC2F
:100AD00002F00A0E04EC03F0710ECCEC02F00A0EE8
:100AE00004EC03F0000EDAEC02F00A0E04EC03F062
:100AF000720ECCEC02F00A0E04EC03F00A0EDAECF3
:100B000002F00A0E04EC03F0730ECCEC02F00A0EB5
:100B100004EC03F0000EDAEC02F00A0E04EC03F031
:100B2000740ECCEC02F00A0E04EC03F0000EDAECCA
:100B300002F00A0E04EC03F0750ECCEC02F00A0E83
:100B400004EC03F00E0EDAEC02F00A0E04EC03F0F3
:100B5000760ECCEC02F00A0E04EC03F0000EDAEC98
:100B600002F00A0E04EC03F0770ECCEC02F00A0E51
:100B700004EC03F0000EDAEC02F00A0E04EC03F0D1
:100B8000780ECCEC02F00A0E04EC03F0000EDAEC66
:100B900002F00A0E04EC03F0790ECCEC02F00A0E1F
:100BA00004EC03F0000EDAEC02F00A0E04EC03F0A1
:100BB0007A0ECCEC02F00A0E04EC03F00A0EDAEC2A
:100BC00002F00A0E04EC03F07B0ECCEC02F00A0EED
:100BD00004EC03F0000EDAEC02F00A0E04EC03F071
:100BE0007C0ECCEC02F00A0E04EC03F0000EDAEC02
:100BF00002F00A0E04EC03F07D0ECCEC02F00A0EBB
:100C000004EC03F00E0EDAEC02F00A0E04EC03F032
:100C10007E0ECCEC02F00A0E04EC03F00A0EDAECC5
:100C200002F00A0E04EC03F07F0ECCEC02F00A0E88
:100C300004EC03F0000EDAEC02F00A0E04EC03F010
:100C40001200400ECCEC02F00A0E04EC03F00E0E83
:100C5000DAEC02F00A0E04EC03F0410ECCEC02F0E8
:100C60000A0E04EC03F01F0EDAEC02F00A0E04EC9C
:100C700003F0420ECCEC02F00A0E04EC03F0150E69
:100C8000DAEC02F00A0E04EC03F0430ECCEC02F0B6
:100C90000A0E04EC03F01F0EDAEC02F00A0E04EC6C
:100CA00003F0440ECCEC02F00A0E04EC03F01F0E2D
:100CB000DAEC02F00A0E04EC03F0450ECCEC02F084
:100CC0000A0E04EC03F01F0EDAEC02F00A0E04EC3C
:100CD00003F0460ECCEC02F00A0E04EC03F0150E05
:100CE000DAEC02F00A0E04EC03F0470ECCEC02F052
:100CF0000A0E04EC03F0000EDAEC02F00A0E04EC2B
:100D000003F01200500ECCEC02F00A0E04EC03F0DB
:100D1000000EDAEC02F00A0E04EC03F0510ECCECFB
:100D200002F00A0E04EC03F0000EDAEC02F00A0EF8
:100D300004EC03F0520ECCEC02F00A0E04EC03F0CB
:100D4000000EDAEC02F00A0E04EC03F0530ECCECC9
:100D500002F00A0E04EC03F00A0EDAEC02F00A0EBE
:100D600004EC03F0540ECCEC02F00A0E04EC03F099
:100D70000A0EDAEC02F00A0E04EC03F0550ECCEC8D
:100D800002F00A0E04EC03F00E0EDAEC02F00A0E8A
:100D900004EC03F0560ECCEC02F00A0E04EC03F067
:100DA0000E0EDAEC02F00A0E04EC03F0570ECCEC57
:100DB00002F00A0E04EC03F00E0EDAEC02F00A0E5A
:100DC00004EC03F01200500ECCEC02F00A0E04EC1E
:100DD00003F0000EDAEC02F00A0E04EC03F0510E00
:100DE000CCEC02F00A0E04EC03F00A0EDAEC02F08E
:100DF0000A0E04EC03F0520ECCEC02F00A0E04ECE6
:100E000003F00A0EDAEC02F00A0E04EC03F0530EC3
:100E1000CCEC02F00A0E04EC03F01F0EDAEC02F048
:100E20000A0E04EC03F0540ECCEC02F00A0E04ECB3
:100E300003F0150EDAEC02F00A0E04EC03F0550E86
:100E4000CCEC02F00A0E04EC03F01B0EDAEC02F01C
:100E50000A0E04EC03F0560ECCEC02F00A0E04EC81
:100E600003F01F0EDAEC02F00A0E04EC03F0570E4A
:100E7000CCEC02F00A0E04EC03F00E0EDAEC02F0F9
:100E80000A0E04EC03F01200500ECCEC02F00A0E35
:100E900004EC03F01B0EDAEC02F00A0E04EC03F093
:100EA000510ECCEC02F00A0E04EC03F00A0EDAEC60
:100EB00002F00A0E04EC03F0520ECCEC02F00A0E23
:100EC00004EC03F01F0EDAEC02F00A0E04EC03F05F
:100ED000530ECCEC02F00A0E04EC03F0150EDAEC23
:100EE00002F00A0E04EC03F0540ECCEC02F00A0EF1
:100EF00004EC03F01B0EDAEC02F00A0E04EC03F033
:100F0000550ECCEC02F00A0E04EC03F01F0EDAECE6
:100F100002F00A0E04EC03F0560ECCEC02F00A0EBE
:100F200004EC03F00E0EDAEC02F00A0E04EC03F00F
:100F3000570ECCEC02F00A0E04EC03F01F0EDAECB4
:100F400002F00A0E04EC03F01200400ECCEC02F0AA
:100F50000A0E04EC03F0040EDAEC02F00A0E04ECC4
:100F600003F0410ECCEC02F00A0E04EC03F0040E88
:100F7000DAEC02F00A0E04EC03F0420ECCEC02F0C4
:100F80000A0E04EC03F00E0EDAEC02F00A0E04EC8A
:100F900003F0430ECCEC02F00A0E04EC03F0150E45
:100FA000DAEC02F00A0E04EC03F0440ECCEC02F092
:100FB0000A0E04EC03F01B0EDAEC02F00A0E04EC4D
:100FC00003F0450ECCEC02F00A0E04EC03F0150E13
:100FD000DAEC02F00A0E04EC03F0460ECCEC02F060
:100FE0000A0E04EC03F00E0EDAEC02F00A0E04EC2A
:100FF00003F0470ECCEC02F00A0E04EC03F0000EF6
:10100000DAEC02F00A0E04EC03F01200600ECCECF5
:1010100002F00A0E04EC03F0040EDAEC02F00A0E01
:1010200004EC03F0610ECCEC02F00A0E04EC03F0C9
:10103000040EDAEC02F00A0E04EC03F0620ECCECC3
:1010400002F00A0E04EC03F00E0EDAEC02F00A0EC7
:1010500004EC03F0630ECCEC02F00A0E04EC03F097
:101060001B0EDAEC02F00A0E04EC03F0640ECCEC7A
:1010700002F00A0E04EC03F0150EDAEC02F00A0E90
:1010800004EC03F0650ECCEC02F00A0E04EC03F065
:101090001B0EDAEC02F00A0E04EC03F0660ECCEC48
:1010A00002F00A0E04EC03F00E0EDAEC02F00A0E67
:1010B00004EC03F0670ECCEC02F00A0E04EC03F033
:0E10C000000EDAEC02F00A0E04EC03F012004F
:0210CE00880E8A
:1010D0001AEC03F03F0EDAEC02F02B0EDAEC02F021
:1010E0003F0EDAEC02F03D0EDAEC02F03F0EDAECE5
:1010F00002F0000E266E000E206E000E216E200EF5
:10110000226E200E236E010E276E200E2C6E06EC32
:101110000AF027C020F0BFEC0AF006EC0AF027C066
:1011200021F0000E206203D0300E226E33D0010E6B
:10113000206203D0310E226E2DD0020E206203D029
:10114000320E226E27D0030E206203D0330E226EA1
:1011500021D0040E206203D0340E226E1BD0050E67
:10116000206203D0350E226E15D0060E206203D009
:10117000360E226E0FD0070E206203D0370E226E7D
:1011800009D0080E206203D0380E226E03D0390E2B
:10119000226E00D0000E216203D0300E236E33D0B9
:1011A000010E216203D0310E236E2DD0020E21627A
:1011B00003D0320E236E27D0030E216203D0330EEC
:1011C000236E21D0040E216203D0340E236E1BD077
:1011D000050E216203D0350E236E15D0060E216256
:1011E00003D0360E236E0FD0070E216203D0370EC8
:1011F000236E09D0080E216203D0380E236E03D06F
:10120000390E236E00D0880E1AEC03F02250DAEC6F
:1012100002F08A0E1AEC03F02350DAEC02F02050B0
:10122000262621502626090E266466D000D0BFEC63
:101230000AF0BFEC0AF006EC0AF025C02DF08C0E87
:101240001AEC03F02D50DAEC02F0BFEC0AF006ECD9
:101250000AF025C02EF0BFEC0AF02E50DAEC02F0B6
:101260000A0E266205D0310E2B6E300E2C6E3DD04C
:101270000B0E266205D0310E2B6E310E2C6E35D042
:101280000C0E266205D0310E2B6E320E2C6E2DD038
:101290000D0E266205D0310E2B6E330E2C6E25D02E
:1012A0000E0E266205D0310E2B6E340E2C6E1DD024
:1012B0000F0E266205D0310E2B6E350E2C6E15D01A
:1012C000100E266205D0310E2B6E360E2C6E0DD010
:1012D000110E266205D0310E2B6E370E2C6E05D006
:1012E000310E2B6E380E2C6E00D02B502D624FD04D
:1012F0002C502E624CD066D0BFEC0AF0BFEC0AF046
:1013000006EC0AF025C02DF08C0E1AEC03F02D50DF
:10131000DAEC02F0000E266203D0300E2B6E33D0D2
:10132000010E266203D0310E2B6E2DD0020E2662E6
:1013300003D0320E2B6E27D0030E266203D0330E5D
:101340002B6E21D0040E266203D0340E2B6E1BD0E0
:10135000050E266203D0350E2B6E15D0060E2662C2
:1013600003D0360E2B6E0FD0070E266203D0370E39
:101370002B6E09D0080E266203D0380E2B6E03D0D8
:10138000390E2B6E00D02B502D6201D01BD08F0E4A
:101390001AEC03F0070EDAEC02F0BFEC0AF08C0E48
:1013A0001AEC03F0200EDAEC02F0200EDAEC02F078
:1013B000200EDAEC02F08F0E1AEC03F0200EDAECBD
:1013C00002F031D78F0E1AEC03F0050EDAEC02F0C2
:1013D000BFEC0AF0880E1AEC03F0200EDAEC02F0F3
:1013E000200EDAEC02F0200EDAEC02F0200EDAEC3D
:1013F00002F0200EDAEC02F0200EDAEC02F0200E01
:10140000DAEC02F0200EDAEC02F01200FF0E2F6E82
:101410000EEC0AF00DD035EC0AF031D0F00E966EDD
:10142000538D0F0E846EFF0E2F6E53EC0AF01200D8
:10143000010E27260A0E276204D000D0010E276E67
:1014400000D084A803D0000E1B6EE5D784AA03D079
:10145000010E1B6EE0D784AC03D0020E1B6EDBD7EF
:1014600084AEE6D7030E1B6ED6D70F0E966E538D45
:10147000F00E846EFF0E2F6E53EC0AF0120084A063
:1014800003D0040E1C6E12D084A203D0050E1C6E75
:101490000DD084A403D0060E1C6E08D084A6C8D735
:1014A000070E1C6E03D02F2EFED71200000E1B62FB
:1014B0001AD001D01200040E1C6205D0010E246E59
:1014C000310E256E1200050E1C6205D0020E246E30
:1014D000320E256E1200060E1C6204D0030E246E1E
:1014E000330E256E1200010E1B621AD000D0040EBE
:1014F0001C6205D0040E246E340E256E1200050EFB
:101500001C6205D0050E246E350E256E1200060EE7
:101510001C6205D0060E246E360E256E12001200D7
:10152000020E1B621AD000D0040E1C6205D0070EFA
:10153000246E370E256E1200050E1C6205D0080EB3
:10154000246E380E256E1200060E1C6205D0090EA0
:10155000246E390E256E1200120000D0040E1C629B
:1015600001D01200050E1C6205D0000E246E300E54
:10157000256E1200060E1C6201D012001200900EA1
:101580001D6E1D2E01D01200900E1E6E1E2E01D05B
:0C159000F8D7900E1F6E1F2EFED7F8D764
:04159C008F0E1AECA8
:1015A00003F0000EDAEC02F012008F0E1AEC03F0DA
:1015B000040EDAEC02F012008F0E1AEC03F0200E8B
:1015C000DAEC02F01200CEEC0AF0C90E1AEC03F0CD
:1015D000200EDAEC02F0890E1AEC03F0020EDAECBF
:1015E00002F009EC0DF0D5EC0AF0890E1AEC03F0CC
:1015F000200EDAEC02F0C90E1AEC03F0020EDAEC5F
:1016000002F009EC0DF01200CEEC0AF0C90E1AEC53
:1016100003F0200EDAEC02F0880E1AEC03F0020E52
:10162000DAEC02F009EC0DF0D5EC0AF0880E1AECB9
:1016300003F0200EDAEC02F0C70E1AEC03F0020EF3
:10164000DAEC02F009EC0DF0CEEC0AF0C70E1AEC61
:1016500003F0200EDAEC02F0860E1AEC03F0020E14
:10166000DAEC02F009EC0DF0D5EC0AF0860E1AEC7B
:1016700003F0200EDAEC02F0C50E1AEC03F0020EB5
:10168000DAEC02F009EC0DF0CEEC0AF0C50E1AEC23
:1016900003F0200EDAEC02F0860E1AEC03F0020ED4
:1016A000DAEC02F009EC0DF0D5EC0AF0860E1AEC3B
:1016B00003F0200EDAEC02F0C70E1AEC03F0020E73
:1016C000DAEC02F009EC0DF0CEEC0AF0C70E1AECE1
:1016D00003F0200EDAEC02F0880E1AEC03F0020E92
:1016E000DAEC02F009EC0DF0D5EC0AF0880E1AECF9
:1016F00003F0200EDAEC02F0C90E1AEC03F0020E31
:10170000DAEC02F009EC0DF0CEEC0AF0C90E1AEC9E
:1017100003F0200EDAEC02F08A0E1AEC03F0020E4F
:10172000DAEC02F009EC0DF0D5EC0AF08A0E1AECB6
:1017300003F0200EDAEC02F0CB0E1AEC03F0020EEE
:10174000DAEC02F009EC0DF0CEEC0AF0CB0E1AEC5C
:1017500003F0200EDAEC02F08C0E1AEC03F0020E0D
:10176000DAEC02F009EC0DF0D5EC0AF08C0E1AEC74
:1017700003F0200EDAEC02F0CD0E1AEC03F0020EAC
:10178000DAEC02F009EC0DF0CEEC0AF0CD0E1AEC1A
:1017900003F0200EDAEC02F08C0E1AEC03F0020ECD
:1017A000DAEC02F009EC0DF0D5EC0AF08C0E1AEC34
:1017B00003F0200EDAEC02F0CB0E1AEC03F0020E6E
:1017C000DAEC02F009EC0DF0CEEC0AF0CB0E1AECDC
:1017D00003F0200EDAEC02F08A0E1AEC03F0020E8F
:1017E000DAEC02F009EC0DF0D5EC0AF08A0E1AECF6
:1017F00003F0200EDAEC02F0C90E1AEC03F0020E30
:10180000DAEC02F009EC0DF012000A0E156ECEECC7
:101810000AF0CA0E1AEC03F0CD0EDAEC02F0C80E94
:101820001AEC03F0CD0EDAEC02F009EC0DF0D5EC79
:101830000AF0CA0E1AEC03F0200EDAEC02F0C80E21
:101840001AEC03F0200EDAEC02F08A0E1AEC03F028
:101850002E0EDAEC02F0880E1AEC03F02E0EDAEC03
:1018600002F009EC0DF08A0E1AEC03F0200EDAEC0F
:1018700002F0880E1AEC03F0200EDAEC02F0152EBE
:10188000C6D7CEEC0AF0CA0E1AEC03F0CD0EDAEC95
:1018900002F0C80E1AEC03F0CD0EDAEC02F009ECFF
:1018A0000DF0D5EC0AF0CA0E1AEC03F0200EDAECBB
:1018B00002F0C80E1AEC03F0200EDAEC02F009EC8C
:1018C0000DF012000E6EA5EC07F006EC08F00A0E03
:1018D000126E040E136E020E146E000E0E6201D014
:1018E00008D0010E0E6201D01FD0020E0E6264D02D
:1018F00042D0CEEC0AF009EC0DF0D5EC0AF009EC80
:101900000DF0E3EC0AF0122EF4D7CEEC0AF009EC5D
:101910000DF0D5EC0AF009EC0DF0DCEC0AF021EC4E
:1019200006F0A0EC04F01200CEEC0AF009EC0DF089
:10193000D5EC0AF009EC0DF0E3EC0AF0132EF4D725
:10194000CEEC0AF009EC0DF0D5EC0AF009EC0DF044
:1019500004EC0BF0142EFCD7CEEC0AF009EC0DF0E1
:10196000D5EC0AF009EC0DF0DCEC0AF021EC06F005
:10197000A0EC04F01200CEEC0AF009EC0DF0D5EC6E
:101980000AF009EC0DF005EC0CF004EC0BF005ECA2
:101990000CF004EC0BF005EC0CF0CEEC0AF009ECCA
:1019A0000DF0D5EC0AF009EC0DF0DCEC0AF021ECBE
:1019B00006F0A0EC04F01200CEEC0AF009EC0DF0F9
:1019C000D5EC0AF009EC0DF0E3EC0AF0E3EC0AF0D8
:1019D00005EC0CF0E3EC0AF0E3EC0AF004EC0BF09D
:1019E000E3EC0AF0E3EC0AF005EC0CF0E3EC0AF0AF
:1019F000E3EC0AF0CEEC0AF009EC0DF0D5EC0AF0BD
:101A000009EC0DF0DCEC0AF021EC06F0A0EC04F09F
:101A10001200700E0F6E0F2E01D01200700E106E9D
:101A2000102E01D0F8D7600E116E112EFED7F8D708
:101A3000000E436E1200000EF86E000EF76ED60E0A
:101A4000F66E0D0E406E0900F550DAEC02F0402EF5
:101A5000FAD71200000EF86E000EF76EE40EF66E66
:101A60000D0E416E0900F550DAEC02F0412EFAD766
:101A70001200000EF86E000EF76EF20EF66E0D0EEE
:101A8000426E0900F550DAEC02F0422EFAD712004D
:101A90003B6E010E4326850E1AEC03F0270EDAEC9E
:101AA00002F0E0EC0EF0850E1AEC03F02C0EDAECEE
:101AB00002F0E0EC0EF0850E1AEC03F0200EDAECEA
:101AC00002F0C50E1AEC03F0270EDAEC02F0E0EC9F
:101AD0000EF0C50E1AEC03F02C0EDAEC02F0E0EC7E
:101AE0000EF0C90E1AEC03F0200EDAEC02F0C80E6C
:101AF0001AEC03F0020EDAEC02F0E0EC0EF0C80E85
:101B00001AEC03F0200EDAEC02F0C70E1AEC03F028
:101B1000020EDAEC02F0E0EC0EF0C70E1AEC03F065
:101B2000200EDAEC02F0C60E1AEC03F0020EDAEC2C
:101B300002F0E0EC0EF0C60E1AEC03F0200EDAEC28
:101B400002F0C50E1AEC03F0020EDAEC02F0E0EC43
:101B50000EF0C50E1AEC03F0200EDAEC02F0020EC5
:101B6000DAEC02F0E0EC0EF0C60E1AEC03F0200EF8
:101B7000DAEC02F0020EDAEC02F0E0EC0EF0C70E46
:101B80001AEC03F0200EDAEC02F0020EDAEC02F0AE
:101B9000E0EC0EF0C80E1AEC03F0200EDAEC02F0C6
:101BA000020EDAEC02F04350020E436201D00AD07A
:101BB000040E436201D006D0060E436201D002D06B
:101BC0003B501200010E3B26E0EC0EF0E0EC0EF074
:101BD000E0EC0EF0C90E1AEC03F02A0EDAEC02F07B
:101BE000E0EC0EF0CA0E1AEC03F02A0EDAEC02F06A
:101BF000890E1AEC03F02A0EDAEC02F0C80E1AEC89
:101C000003F02A0EDAEC02F0E0EC0EF0CB0E1AEC48
:101C100003F02A0EDAEC02F08A0E1AEC03F02A0E18
:101C2000DAEC02F0880E1AEC03F02A0EDAEC02F07D
:101C3000C70E1AEC03F02A0EDAEC02F0E0EC0EF01C
:101C4000CC0E1AEC03F02A0EDAEC02F08B0E1AEC32
:101C500003F02A0EDAEC02F0870E1AEC03F02A0EDB
:101C6000DAEC02F0C60E1AEC03F02A0EDAEC02F0FF
:101C7000E0EC0EF0CD0E1AEC03F02A0EDAEC02F0D6
:101C80008C0E1AEC03F02A0EDAEC02F0860E1AEC37
:101C900003F02A0EDAEC02F0C50E1AEC03F02A0E5D
:101CA000DAEC02F0E0EC0EF0CE0E1AEC03F02A0EA5
:101CB000DAEC02F08D0E1AEC03F02A0EDAEC02F0E8
:101CC000850E1AEC03F02A0EDAEC02F0C40E1AECC0
:101CD00003F02A0EDAEC02F0E0EC0EF0CF0E1AEC74
:101CE00003F02A0EDAEC02F08E0E1AEC03F02A0E44
:101CF000DAEC02F0840E1AEC03F02A0EDAEC02F0B1
:101D0000C30E1AEC03F02A0EDAEC02F0E0EC0EF04F
:101D10008F0E1AEC03F02A0EDAEC02F0830E1AECA6
:101D200003F02A0EDAEC02F0050E3F6EE0EC0EF046
:101D3000830E1AEC03F01BEC0DF0C30E1AEC03F04B
:101D40002AEC0DF0E0EC0EF0830E1AEC03F02AEC16
:101D50000DF0C30E1AEC03F01BEC0DF03F2EE6D78E
:101D6000830E1AEC03F039EC0DF0C30E1AEC03F0FD
:101D700039EC0DF0010E3B6201D004D0020E3B6243
:101D800015D00AD082EC06F0C90E1AEC03F0020E50
:101D9000DAEC02F03B501200E3EC06F0C90E1AEC4C
:101DA00003F0020EDAEC02F03B50120044EC07F0B4
:101DB000C90E1AEC03F0020EDAEC02F03B501200EE
:101DC000900E3C6E3C2E01D01200900E3D6E3D2ECA
:0E1DD00001D0F8D7900E3E6E3E2EFED7F8D70B
:021DDE00FF0EF6
:101DE000396E000E3A6E000E996E3AC087FFC90E2A
:101DF0001AEC03F0200EDAEC02F0020EDAEC02F03C
:101E00009EEC10F0CA0E1AEC03F0200EDAEC02F091
:101E1000020EDAEC02F09EEC10F0CB0E1AEC03F09E
:101E2000200EDAEC02F0020EDAEC02F09EEC10F07A
:101E3000CC0E1AEC03F0200EDAEC02F0020EDAEC13
:101E400002F09EEC10F0CD0E1AEC03F0200EDAEC4E
:101E500002F0020EDAEC02F09EEC10F0CE0E1AEC5C
:101E600003F0200EDAEC02F0020EDAEC02F09EEC47
:101E700010F0700E366E700E376E700E376EC30E29
:101E80001AEC03F0200EDAEC02F0000EDAEC02F0AD
:101E90009EEC10F0C40E1AEC03F0200EDAEC02F007
:101EA000000EDAEC02F09EEC10F0C50E1AEC03F016
:101EB000200EDAEC02F0000EDAEC02F09EEC10F0EC
:101EC000C60E1AEC03F0200EDAEC02F0000EDAEC8B
:101ED00002F09EEC10F0C70E1AEC03F0200EDAECC4
:101EE00002F0000EDAEC02F09EEC10F0C80E1AECD4
:101EF00003F0200EDAEC02F0000EDAEC02F09EECB9
:101F000010F0C90E1AEC03F0200EDAEC02F0000E0D
:101F1000DAEC02F09EEC10F0CA0E1AEC03F0200E80
:101F2000DAEC02F0000EDAEC02F09EEC10F0CB0ED0
:101F30001AEC03F0200EDAEC02F0000EDAEC02F0FC
:101F400039C087FF9EEC10F0CC0E1AEC03F0200E87
:101F5000DAEC02F0000EDAEC02F03AC087FF9EECF9
:101F600010F0CD0E1AEC03F0200EDAEC02F0000EA9
:101F7000DAEC02F0AFD0CF0E1AEC03F0200EDAEC60
:101F800002F08F0E1AEC03F0020EDAEC02F036C00B
:101F900033F0362E01D00AD037C034F0342E01D0C1
:101FA000F8D738C035F0352EFED7F8D7CE0E1AEC5C
:101FB00003F0200EDAEC02F0000EDAEC02F03AC088
:101FC00087FF9EEC10F0CF0E1AEC03F0200EDAEC37
:101FD00002F08F0E1AEC03F0200EDAEC02F0CF0EB6
:101FE0001AEC03F0020EDAEC02F043D7CE0E1AEC34
:101FF00003F0200EDAEC02F0000EDAEC02F03AC048
:1020000087FF9EEC10F0CF0E1AEC03F0200EDAECF6
:1020100002F09EEC10F09EEC10F0CF0E1AEC03F0E4
:10202000020EDAEC02F09EEC10F0CF0E1AEC03F088
:10203000200EDAEC02F0CE0E1AEC03F0020EDAEC0F
:1020400002F09EEC10F0CE0E1AEC03F0200EDAEC4B
:1020500002F0CD0E1AEC03F0020EDAEC02F09EEC68
:1020600010F0CD0E1AEC03F0200EDAEC02F0CC0EDC
:102070001AEC03F0020EDAEC02F09EEC10F0CC0E3B
:102080001AEC03F0200EDAEC02F0CB0E1AEC03F09F
:10209000020EDAEC02F09EEC10F0CB0E1AEC03F01C
:1020A000200EDAEC02F0CA0E1AEC03F0020EDAECA3
:1020B00002F09EEC10F0CA0E1AEC03F0200EDAECDF
:1020C00002F0C90E1AEC03F0020EDAEC02F09EECFC
:1020D00010F0120039C087FF6FEC10F00AD0F00E3C
:1020E000966E538D0F0E846EFF0E206E9BEC10F0DB
:1020F0001200500E336E332E01D078D7010E365EAB
:10210000500E346E342E01D0F6D7010E375E500ECD
:10211000356E010E385E03D0352EFBD7F3D784A879
:1021200001D029D784AA01D026D784AC01D023D7E7
:1021300084AEF2D720D7202EFED71200900E306E3C
:10214000302E01D01200900E316E312E01D0F8D712
:0A215000900E326E322EFED7F8D743
:06215A0013EC03F0000E7F
:10216000F86E220EF76E9C0EF66E100E196E0900B8
:10217000F550DAEC02F0192EFAD7120013EC03F046
:10218000000EF86E220EF76EAC0EF66E0F0E196E84
:102190000900F550DAEC02F0192EFAD7120013EC10
:1021A00003F0010EDAEC02F0010EDAEC02F0010E9F
:1021B000DAEC02F0C00E1AEC03F0050EDAEC02F0D5
:1021C000030EDAEC02F0C90E1AEC03F0000EDAECA2
:1021D00002F01200050E1A6EC80E1AEC03F0B20ED1
:1021E000DAEC02F0CA0E1AEC03F0B20EDAEC02F0EE
:1021F0003FEC11F0C80E1AEC03F0200EDAEC02F0FE
:10220000CA0E1AEC03F0200EDAEC02F03FEC11F0EB
:102210001A2EE2D7050E1A6EC90E1AEC03F0000E44
:10222000DAEC02F03FEC11F0C90E1AEC03F0200ECC
:10223000DAEC02F03FEC11F01A2EEED7C90E1AECD0
:1022400003F0020EDAEC02F0C80E1AEC03F0280ECE
:10225000DAEC02F0CA0E1AEC03F0290EDAEC02F006
:102260003FEC11F0C80E1AEC03F0200EDAEC02F08D
:10227000CA0E1AEC03F0200EDAEC02F01200900EF7
:10228000166E162E01D01200900E176E172E01D06A
:0C229000F8D7900E186E182EFED7F8D765
:04229C005052455304
:1022A00053204120544F205354415254202048453C
:0C22B000415420544F2048415443480042
:020000040030CA
:0100000015EA
:0100010013EB
:010002007F7E
:010003007F7D
:01000400F902
:010005008B6F
:010006009168
:01000800FFF8
:01000900C036
:01000A00FFF6
:01000B00E014
:01000C00FFF4
:01000D0040B2
:00000001FF
