:020000040000FA
:0400000080EF00F09D
:020004000000FA
:0A0006002A202A202A202A202A207E
:100010002A202A00202A202A202A202A202A202AB0
:100020002000202020202020202020202020200010
:100030005052455353204120544F20484154434887
:020040001200AC
:02004200330089
:020044001200A8
:020046001200A6
:020048001200A4
:100100007F9C7F8E2AEC01F01BEC08F033EC06F0AC
:100110008AEF00F0000000000000B8EC08F0000ECC
:10012000806F21EC08F0806F410E8063F3D7C9EC3B
:1001300008F01BEC01F01BEC01F0E4EC08F0FF0E02
:10014000066E640E056E030E086E000E076E000E3E
:10015000806F21EC08F0806F410E806301D0F7D7EB
:10016000420E806304D0075024EC00F0F0D7430E19
:10017000806304D0075020EC00F0E9D7440E806380
:1001800004D0075023EC00F0E2D7450E806304D082
:10019000075022EC00F0DBD7460E806305D00750F5
:1001A00063EC06F0076ED3D7062ED1D7010E055E9D
:1001B000DDEC00F0640E066ECAD7000E056414D0A4
:1001C000C00EA8EC01F0320E056004D0190E0560D7
:1001D00004D006D0050E68EC01F0060E68EC01F0C4
:1001E000070E68EC01F01200010E085E020E0862B4
:1001F00001D004D0010E08620DD006D0820EA8EC0A
:1002000001F0200E68EC01F0810EA8EC01F0200E48
:1002100068EC01F0A1EC01F0C80EA8EC01F0000EB2
:1002200068EC01F01BEC01F01BEC01F01BEC01F0A1
:100230001BEC01F00FD0FF0E096E092E01D0120049
:10024000FF0E0A6E0A2E01D0F8D7FF0E0B6E0B2E92
:04025000FED7F8D706
:0C0254008A6AC00E936E280E8BEC01F03D
:10026000300E5AEC01F00A0E92EC01F0280E5AEC16
:1002700001F00A0E92EC01F0280E5AEC01F00A0E81
:1002800092EC01F00C0E5AEC01F00A0E92EC01F027
:10029000A1EC01F0060E5AEC01F00A0E92EC01F00E
:1002A000AEEC01F01200046EEE5068EC01F0042E8A
:1002B000FBD71200036E03380F0B8A6E8A9879EC15
:1002C00001F003500F0B8A6E8A9879EC01F012004E
:1002D000036E03380F0B8A6E8A8879EC01F00350A5
:1002E0000F0B8A6E8A8879EC01F00A0E92EC01F00D
:1002F00012000000000000000000000000000000EC
:1003000000008A8A000000000000000000000000D9
:1003100000008A9A1200026EFA0E92EC01F0022E90
:10032000FBD71200006E003A0F0E0014016EF00EA3
:1003300000169CEC01F01200000E0006015AFDE2CE
:100340001200010E5AEC01F0020E8BEC01F01200CB
:100350005AEC01F00A0E92EC01F01200400E5AEC39
:1003600001F00A0E92EC01F0000E68EC01F00A0EAA
:1003700092EC01F0410E5AEC01F00A0E92EC01F001
:10038000040E68EC01F00A0E92EC01F0420E5AECF9
:1003900001F00A0E92EC01F00A0E68EC01F00A0E70
:1003A00092EC01F0430E5AEC01F00A0E92EC01F0CF
:1003B000150E68EC01F00A0E92EC01F0440E5AECB6
:1003C00001F00A0E92EC01F01B0E68EC01F00A0E2F
:1003D00092EC01F0450E5AEC01F00A0E92EC01F09D
:1003E000150E68EC01F00A0E92EC01F0460E5AEC84
:1003F00001F00A0E92EC01F01B0E68EC01F00A0EFF
:1004000092EC01F0470E5AEC01F00A0E92EC01F06A
:100410000E0E68EC01F00A0E92EC01F0480E5AEC58
:1004200001F00A0E92EC01F0000E68EC01F00A0EE9
:1004300092EC01F0490E5AEC01F00A0E92EC01F038
:100440000A0E68EC01F00A0E92EC01F04A0E5AEC2A
:1004500001F00A0E92EC01F0150E68EC01F00A0EA4
:1004600092EC01F04B0E5AEC01F00A0E92EC01F006
:10047000110E68EC01F00A0E92EC01F04C0E5AECF1
:1004800001F00A0E92EC01F0110E68EC01F00A0E78
:1004900092EC01F04D0E5AEC01F00A0E92EC01F0D4
:1004A0000A0E68EC01F00A0E92EC01F04E0E5AECC6
:1004B00001F00A0E92EC01F0040E68EC01F00A0E55
:1004C00092EC01F04F0E5AEC01F00A0E92EC01F0A2
:1004D000000E68EC01F00A0E92EC01F0500E5AEC9E
:1004E00001F00A0E92EC01F0000E68EC01F00A0E29
:1004F00092EC01F0510E5AEC01F00A0E92EC01F070
:10050000000E68EC01F00A0E92EC01F0520E5AEC6B
:1005100001F00A0E92EC01F0000E68EC01F00A0EF8
:1005200092EC01F0530E5AEC01F00A0E92EC01F03D
:10053000000E68EC01F00A0E92EC01F0540E5AEC39
:1005400001F00A0E92EC01F0000E68EC01F00A0EC8
:1005500092EC01F0550E5AEC01F00A0E92EC01F00B
:10056000000E68EC01F00A0E92EC01F0560E5AEC07
:1005700001F00A0E92EC01F00C0E68EC01F00A0E8C
:1005800092EC01F0570E5AEC01F00A0E92EC01F0D9
:100590000C0E68EC01F00A0E92EC01F0580E5AECC9
:1005A00001F00A0E92EC01F0000E68EC01F00A0E68
:1005B00092EC01F0590E5AEC01F00A0E92EC01F0A7
:1005C000150E68EC01F00A0E92EC01F05A0E5AEC8E
:1005D00001F00A0E92EC01F00E0E68EC01F00A0E2A
:1005E00092EC01F05B0E5AEC01F00A0E92EC01F075
:1005F0001F0E68EC01F00A0E92EC01F05C0E5AEC52
:1006000001F00A0E92EC01F00E0E68EC01F00A0EF9
:1006100092EC01F05D0E5AEC01F00A0E92EC01F042
:10062000150E68EC01F00A0E92EC01F05E0E5AEC29
:1006300001F00A0E92EC01F0000E68EC01F00A0ED7
:1006400092EC01F05F0E5AEC01F00A0E92EC01F010
:10065000000E68EC01F00A0E92EC01F0600E5AEC0C
:1006600001F00A0E92EC01F0000E68EC01F00A0EA7
:1006700092EC01F0610E5AEC01F00A0E92EC01F0DE
:100680000F0E68EC01F00A0E92EC01F0620E5AECCB
:1006900001F00A0E92EC01F01C0E68EC01F00A0E5B
:1006A00092EC01F0630E5AEC01F00A0E92EC01F0AC
:1006B000180E68EC01F00A0E92EC01F0640E5AEC90
:1006C00001F00A0E92EC01F0180E68EC01F00A0E2F
:1006D00092EC01F0650E5AEC01F00A0E92EC01F07A
:1006E0001C0E68EC01F00A0E92EC01F0660E5AEC5A
:1006F00001F00A0E92EC01F00F0E68EC01F00A0E08
:1007000092EC01F0670E5AEC01F00A0E92EC01F047
:10071000000E68EC01F00A0E92EC01F0680E5AEC43
:1007200001F00A0E92EC01F0000E68EC01F00A0EE6
:1007300092EC01F0690E5AEC01F00A0E92EC01F015
:10074000000E68EC01F00A0E92EC01F06A0E5AEC11
:1007500001F00A0E92EC01F00A0E68EC01F00A0EAC
:1007600092EC01F06B0E5AEC01F00A0E92EC01F0E3
:10077000000E68EC01F00A0E92EC01F06C0E5AECDF
:1007800001F00A0E92EC01F0000E68EC01F00A0E86
:1007900092EC01F06D0E5AEC01F00A0E92EC01F0B1
:1007A0000A0E68EC01F00A0E92EC01F06E0E5AECA3
:1007B00001F00A0E92EC01F00E0E68EC01F00A0E48
:1007C00092EC01F06F0E5AEC01F00A0E92EC01F07F
:1007D000000E68EC01F00A0E92EC01F0700E5AEC7B
:1007E00001F00A0E92EC01F0000E68EC01F00A0E26
:1007F00092EC01F0710E5AEC01F00A0E92EC01F04D
:10080000000E68EC01F00A0E92EC01F0720E5AEC48
:1008100001F00A0E92EC01F00A0E68EC01F00A0EEB
:1008200092EC01F0730E5AEC01F00A0E92EC01F01A
:10083000000E68EC01F00A0E92EC01F0740E5AEC16
:1008400001F00A0E92EC01F0000E68EC01F00A0EC5
:1008500092EC01F0750E5AEC01F00A0E92EC01F0E8
:100860000E0E68EC01F00A0E92EC01F0760E5AECD6
:1008700001F00A0E92EC01F0000E68EC01F00A0E95
:1008800092EC01F0770E5AEC01F00A0E92EC01F0B6
:10089000000E68EC01F00A0E92EC01F0780E5AECB2
:1008A00001F00A0E92EC01F0000E68EC01F00A0E65
:1008B00092EC01F0790E5AEC01F00A0E92EC01F084
:1008C000000E68EC01F00A0E92EC01F07A0E5AEC80
:1008D00001F00A0E92EC01F00A0E68EC01F00A0E2B
:1008E00092EC01F07B0E5AEC01F00A0E92EC01F052
:1008F000000E68EC01F00A0E92EC01F07C0E5AEC4E
:1009000001F00A0E92EC01F0000E68EC01F00A0E04
:1009100092EC01F07D0E5AEC01F00A0E92EC01F01F
:100920000E0E68EC01F00A0E92EC01F07E0E5AEC0D
:1009300001F00A0E92EC01F00A0E68EC01F00A0ECA
:1009400092EC01F07F0E5AEC01F00A0E92EC01F0ED
:10095000000E68EC01F00A0E92EC01F01200400E5D
:100960005AEC01F00A0E92EC01F00E0E68EC01F068
:100970000A0E92EC01F0410E5AEC01F00A0E92ECD4
:1009800001F01F0E68EC01F00A0E92EC01F0420E2D
:100990005AEC01F00A0E92EC01F0150E68EC01F031
:1009A0000A0E92EC01F0430E5AEC01F00A0E92ECA2
:1009B00001F01F0E68EC01F00A0E92EC01F0440EFB
:1009C0005AEC01F00A0E92EC01F01F0E68EC01F0F7
:1009D0000A0E92EC01F0450E5AEC01F00A0E92EC70
:1009E00001F01F0E68EC01F00A0E92EC01F0460EC9
:1009F0005AEC01F00A0E92EC01F0150E68EC01F0D1
:100A00000A0E92EC01F0470E5AEC01F00A0E92EC3D
:100A100001F0000E68EC01F00A0E92EC01F01200F9
:100A2000500E5AEC01F00A0E92EC01F0000E68EC48
:100A300001F00A0E92EC01F0510E5AEC01F00A0E90
:100A400092EC01F0000E68EC01F00A0E92EC01F05D
:100A5000520E5AEC01F00A0E92EC01F0000E68EC16
:100A600001F00A0E92EC01F0530E5AEC01F00A0E5E
:100A700092EC01F00A0E68EC01F00A0E92EC01F023
:100A8000540E5AEC01F00A0E92EC01F00A0E68ECDA
:100A900001F00A0E92EC01F0550E5AEC01F00A0E2C
:100AA00092EC01F00E0E68EC01F00A0E92EC01F0EF
:100AB000560E5AEC01F00A0E92EC01F00E0E68ECA4
:100AC00001F00A0E92EC01F0570E5AEC01F00A0EFA
:100AD00092EC01F00E0E68EC01F00A0E92EC01F0BF
:100AE0001200500E5AEC01F00A0E92EC01F0000ECA
:100AF00068EC01F00A0E92EC01F0510E5AEC01F094
:100B00000A0E92EC01F00A0E68EC01F00A0E92EC6B
:100B100001F0520E5AEC01F00A0E92EC01F00A0EAE
:100B200068EC01F00A0E92EC01F0530E5AEC01F061
:100B30000A0E92EC01F01F0E68EC01F00A0E92EC26
:100B400001F0540E5AEC01F00A0E92EC01F0150E71
:100B500068EC01F00A0E92EC01F0550E5AEC01F02F
:100B60000A0E92EC01F01B0E68EC01F00A0E92ECFA
:100B700001F0560E5AEC01F00A0E92EC01F01F0E35
:100B800068EC01F00A0E92EC01F0570E5AEC01F0FD
:100B90000A0E92EC01F00E0E68EC01F00A0E92ECD7
:100BA00001F01200500E5AEC01F00A0E92EC01F026
:100BB0001B0E68EC01F00A0E92EC01F0510E5AEC9B
:100BC00001F00A0E92EC01F00A0E68EC01F00A0E38
:100BD00092EC01F0520E5AEC01F00A0E92EC01F088
:100BE0001F0E68EC01F00A0E92EC01F0530E5AEC65
:100BF00001F00A0E92EC01F0150E68EC01F00A0EFD
:100C000092EC01F0540E5AEC01F00A0E92EC01F055
:100C10001B0E68EC01F00A0E92EC01F0550E5AEC36
:100C200001F00A0E92EC01F01F0E68EC01F00A0EC2
:100C300092EC01F0560E5AEC01F00A0E92EC01F023
:100C40000E0E68EC01F00A0E92EC01F0570E5AEC11
:100C500001F00A0E92EC01F01F0E68EC01F00A0E92
:060C600092EC01F012000D
:0A0C6600000E166E1200000EF86E6C
:100C7000000EF76E060EF66E0D0E136E0900F5509F
:100C800068EC01F0132EFAD71200000EF86E000E79
:100C9000F76E140EF66E0D0E146E0900F55068EC2A
:100CA00001F0142EFAD71200000EF86E000EF76E47
:100CB000220EF66E0D0E156E0900F55068EC01F06F
:100CC000152EFAD712000E6E010E1626850EA8EC10
:100CD00001F0270E68EC01F00CEC08F0850EA8EC92
:100CE00001F02C0E68EC01F00CEC08F0850EA8EC7D
:100CF00001F0200E68EC01F0C50EA8EC01F0270E03
:100D000068EC01F00CEC08F0C50EA8EC01F02C0E1C
:100D100068EC01F00CEC08F0C90EA8EC01F0200E14
:100D200068EC01F0C80EA8EC01F0020E68EC01F0CE
:100D30000CEC08F0C80EA8EC01F0200E68EC01F0F5
:100D4000C70EA8EC01F0020E68EC01F00CEC08F004
:100D5000C70EA8EC01F0200E68EC01F0C60EA8EC5E
:100D600001F0020E68EC01F00CEC08F0C60EA8ECE5
:100D700001F0200E68EC01F0C50EA8EC01F0020EA7
:100D800068EC01F00CEC08F0C50EA8EC01F0200EA8
:100D900068EC01F0020E68EC01F00CEC08F0C60EF5
:100DA000A8EC01F0200E68EC01F0020E68EC01F0F6
:100DB0000CEC08F0C70EA8EC01F0200E68EC01F076
:100DC000020E68EC01F00CEC08F0C80EA8EC01F083
:100DD000200E68EC01F0020E68EC01F0020E1662C3
:100DE00001D00AD0040E166201D006D0060E16629B
:100DF00001D002D00E501200010E0E260CEC08F0AD
:100E00000CEC08F00CEC08F0C90EA8EC01F02A0E6E
:100E100068EC01F00CEC08F00CEC08F0CA0EA8EC41
:100E200001F02A0E68EC01F0890EA8EC01F02A0E00
:100E300068EC01F0C80EA8EC01F02A0E68EC01F095
:100E40000CEC08F00CEC08F0CB0EA8EC01F02A0E2C
:100E500068EC01F08A0EA8EC01F02A0E68EC01F0B3
:100E6000880EA8EC01F02A0E68EC01F0C70EA8EC81
:100E700001F02A0E68EC01F00CEC08F00CEC08F024
:100E8000CC0EA8EC01F02A0E68EC01F08B0EA8EC59
:100E900001F02A0E68EC01F0870EA8EC01F02A0E92
:100EA00068EC01F0C60EA8EC01F02A0E68EC01F027
:100EB0000CEC08F00CEC08F0CD0EA8EC01F02A0EBA
:100EC00068EC01F08C0EA8EC01F02A0E68EC01F041
:100ED000860EA8EC01F02A0E68EC01F0C50EA8EC15
:100EE00001F02A0E68EC01F00CEC08F00CEC08F0B4
:100EF000CE0EA8EC01F02A0E68EC01F08D0EA8ECE5
:100F000001F02A0E68EC01F0850EA8EC01F02A0E23
:100F100068EC01F0C40EA8EC01F02A0E68EC01F0B8
:100F20000CEC08F00CEC08F0CF0EA8EC01F02A0E47
:100F300068EC01F08E0EA8EC01F02A0E68EC01F0CE
:100F4000840EA8EC01F02A0E68EC01F0C30EA8ECA8
:100F500001F02A0E68EC01F00CEC08F00CEC08F043
:100F60008F0EA8EC01F02A0E68EC01F0830EA8ECBD
:100F700001F02A0E68EC01F0050E126E0CEC08F080
:100F80000CEC08F0830EA8EC01F036EC06F0C30E72
:100F9000A8EC01F045EC06F00CEC08F00CEC08F0C5
:100FA000830EA8EC01F045EC06F0C30EA8EC01F0AE
:100FB00036EC06F0122EE2D7830EA8EC01F054ECCA
:100FC00006F0C30EA8EC01F054EC06F0010E0E6220
:100FD00001D004D0020E0E6215D00AD010EC05F03C
:100FE000C90EA8EC01F0020E68EC01F00E501200E0
:100FF00071EC05F0C90EA8EC01F0020E68EC01F0EE
:101000000E501200D2EC05F0C90EA8EC01F0020E51
:1010100068EC01F00E501200900E0F6E0F2E01D0F2
:101020001200900E106E102E01D0F8D7900E116E97
:06103000112EFED7F8D7D7
:0A1036008D6AFF0E206E63EC08F0D7
:10104000120027EC08F00DD045EC08F028D0F00E87
:10105000966E538D0F0E846EFF0E206E63EC08F0BB
:10106000120084A803D0000E0C6EEED784AA03D021
:10107000010E0C6EE9D784AC03D0020E0C6EE4D7DF
:1010800084AEEFD7030E0C6EDFD70F0E966E538D26
:10109000F00E846EFF0E206E63EC08F0120084A048
:1010A00003D0040E0D6E12D084A203D0050E0D6E77
:1010B0000DD084A403D0060E0D6E08D084A6D1D71F
:1010C000070E0D6E03D0202EFED71200000E0C620C
:1010D00013D001D01200040E0D6202D0310E1200A6
:1010E000050E0D6202D0320E1200060E0D6202D005
:1010F000330E1200460E1200010E0C6212D000D008
:10110000040E0D6202D0340E1200050E0D6202D0E4
:10111000350E1200060E0D6202D0360E1200450E7C
:101120001200020E0C6212D000D0040E0D6202D02A
:10113000370E1200050E0D6202D0380E1200060E98
:101140000D6202D0390E1200440E120000D0040EBF
:101150000D6202D0410E1200050E0D6202D0300E5B
:101160001200060E0D6202D0420E1200430E120053
:10117000A1EC01F0000EF86E000EF76E300EF66E68
:10118000100E1A6E0900F55068EC01F01A2EFAD70D
:101190001200A1EC01F0010E68EC01F0010E68EC08
:1011A00001F0010E68EC01F0C00EA8EC01F0050E94
:1011B00068EC01F0030E68EC01F0C90EA8EC01F038
:1011C000000E68EC01F012003FEC09F00F0E206EEB
:1011D000C80EA8EC01F0B20E68EC01F0CA0EA8EC43
:1011E00001F0B20E68EC01F03FEC09F0C80EA8EC7B
:1011F00001F0200E68EC01F0CA0EA8EC01F0200E00
:1012000068EC01F03FEC09F0202EE2D7050E206ECD
:10121000C90EA8EC01F0000E68EC01F03FEC09F0FB
:10122000C90EA8EC01F0200E68EC01F03FEC09F0CB
:10123000202EEED7C90EA8EC01F0020E68EC01F0EA
:10124000C80EA8EC01F0280E68EC01F0CA0EA8EC5C
:1012500001F0290E68EC01F03FEC09F03FEC09F0D9
:101260003FEC09F0C80EA8EC01F0200E68EC01F08C
:10127000CA0EA8EC01F0200E68EC01F01200200E5E
:10128000176E172E01D01200200E186E182E01D0E6
:0C129000F8D7200E196E192EFED7F8D7E3
:020000040030CA
:0100000015EA
:0100010013EB
:010002007F7E
:010003007F7D
:01000400F902
:010005008B6F
:010006009168
:01000800FFF8
:01000900C036
:01000A00FFF6
:01000B00E014
:01000C00FFF4
:01000D0040B2
:00000001FF
