:020000040000FA
:0400000080EF00F09D
:020004000000FA
:0A0006002A202A202A202A202A207E
:100010002A202A00202A202A202A202A202A202AB0
:100020002000202020202020202020202020200010
:100030005052455353204120544F20484154434887
:020040001200AC
:02004200330089
:020044001200A8
:020046001200A6
:020048001200A4
:100100007F9C7F8E43EC02F0DEEC00F04CEC07F0BD
:100110008AEF00F0000000000000D1EC09F0FF0EB3
:10012000066E000E826FE4EC00F0826F410E826377
:10013000F6D7E2EC09F034EC02F034EC02F0FDEC1E
:1001400009F0FE0E066EFE0E076EF40E056E030E2F
:10015000096E000E086EC8EC05F0000E826FE4EC2C
:1001600000F0826F410E826301D0F7D7420E8263A6
:1001700004D0085024EC00F0F0D7430E826304D082
:10018000085020EC00F0E9D7440E826304D00850F8
:1001900023EC00F0E2D7450E826304D0085022EC35
:1001A00000F0DBD7460E8263D8D708507CEC07F00E
:1001B000086E0A0E052694EC01F0CFD78D6AFF0E6B
:1001C000206E34EC02F01200EAEC00F00DD008ECE6
:1001D00001F028D0F00E966E538D0F0E846EFF0E38
:1001E000206E34EC02F0120084A803D0000E806F61
:1001F000EED784AA03D0010E806FE9D784AC03D078
:10020000020E806FE4D784AE76D0030E806FDFD706
:100210000F0E966E538DF00E846EFF0E206E26EC40
:1002200001F0120084A003D0040E816F12D084A2CA
:1002300003D0050E816F0DD084A403D0060E816F0C
:1002400008D084A6D1D7070E816F03D0202EFED709
:100250001200000E806313D001D01200040E8163DF
:1002600002D0310E1200050E816302D0320E120050
:10027000060E816302D0330E1200460E1200010EEC
:10028000806312D000D0040E816302D0340E1200BD
:10029000050E816302D0350E1200060E816302D076
:1002A000360E1200450E1200020E806312D000D0EE
:1002B000040E816302D0370E1200050E816302D056
:1002C000380E1200060E816302D0390E1200440E61
:1002D000120000D0040E816302D0410E1200050E00
:1002E000816302D0300E1200060E816302D0420EEE
:1002F0001200430E1200FF0E066201D075D7062EC3
:1003000073D7072E01D003D0FE0E066E6DD7010EF7
:10031000055E94EC01F0000E0564B3EC01F0FE0EF6
:10032000066EFE0E076E60D7C00EC1EC02F0960E90
:10033000056004D0320E056008D00ED0C00EC1ECAE
:1003400002F0050E81EC02F01200C00EC1EC02F0CA
:10035000060E81EC02F01200C00EC1EC02F0070E96
:1003600081EC02F01200010E095E020E096201D05A
:1003700004D0010E09621FD00FD0820EC1EC02F032
:10038000200E81EC02F0F40E056EC00EC1EC02F0FE
:10039000050E81EC02F01200810EC1EC02F0200E7D
:1003A00081EC02F0F40E056EC00EC1EC02F0050EF9
:1003B00081EC02F01200BAEC02F0C90EC1EC02F0BE
:1003C000000E81EC02F034EC02F034EC02F034EC7C
:1003D00002F034EC02F0C90EC1EC02F0200E81EC08
:1003E00002F0000E81EC02F034EC02F0CA0EC1EC17
:1003F00002F0200E81EC02F0000E81EC02F034ECF1
:1004000002F0CB0EC1EC02F0200E81EC02F0000EE7
:1004100081EC02F034EC02F0CC0EC1EC02F0200EC4
:1004200081EC02F0000E81EC02F034EC02F0CD0E13
:10043000C1EC02F0200E81EC02F0000E81EC02F023
:1004400034EC02F0CE0EC1EC02F0200E81EC02F092
:10045000000E81EC02F034EC02F0CF0EC1EC02F0A1
:10046000200E81EC02F04CD6FF0E0A6E0A2E01D04F
:100470001200FF0E0B6E0B2E01D0F8D7FF0E0C6E84
:060480000C2EFED7F8D798
:0A0486008A6AC00E936E280EA4ECE3
:1004900002F0300E73EC02F00A0EABEC02F0280E04
:1004A00073EC02F00A0EABEC02F0280E73EC02F0D3
:1004B0000A0EABEC02F00C0E73EC02F00A0EABEC81
:1004C00002F0BAEC02F0060E73EC02F00A0EABEC8E
:1004D00002F0C7EC02F01200046EEE5081EC02F064
:1004E000042EFBD71200036E03380F0B8A6E8A9816
:1004F00092EC02F003500F0B8A6E8A9892EC02F095
:100500001200036E03380F0B8A6E8A8892EC02F099
:1005100003500F0B8A6E8A8892EC02F00A0EABEC45
:1005200002F01200000000000000000000000000C7
:10053000000000008A8A00000000000000000000A7
:10054000000000008A9A1200026EFA0EABEC02F074
:10055000022EFBD71200006E003A0F0E0014016E3F
:10056000F00E0016B5EC02F01200000E0006015A63
:10057000FDE21200010E73EC02F0020EA4EC02F098
:10058000120073EC02F00A0EABEC02F01200400E07
:1005900073EC02F00A0EABEC02F0000E81EC02F0FC
:1005A0000A0EABEC02F0410E73EC02F00A0EABEC5B
:1005B00002F0040E81EC02F00A0EABEC02F0420EE7
:1005C00073EC02F00A0EABEC02F00A0E81EC02F0C2
:1005D0000A0EABEC02F0430E73EC02F00A0EABEC29
:1005E00002F0150E81EC02F00A0EABEC02F0440EA4
:1005F00073EC02F00A0EABEC02F01B0E81EC02F081
:100600000A0EABEC02F0450E73EC02F00A0EABECF6
:1006100002F0150E81EC02F00A0EABEC02F0460E71
:1006200073EC02F00A0EABEC02F01B0E81EC02F050
:100630000A0EABEC02F0470E73EC02F00A0EABECC4
:1006400002F00E0E81EC02F00A0EABEC02F0480E46
:1006500073EC02F00A0EABEC02F0000E81EC02F03B
:100660000A0EABEC02F0490E73EC02F00A0EABEC92
:1006700002F00A0E81EC02F00A0EABEC02F04A0E18
:1006800073EC02F00A0EABEC02F0150E81EC02F0F6
:100690000A0EABEC02F04B0E73EC02F00A0EABEC60
:1006A00002F0110E81EC02F00A0EABEC02F04C0EDF
:1006B00073EC02F00A0EABEC02F0110E81EC02F0CA
:1006C0000A0EABEC02F04D0E73EC02F00A0EABEC2E
:1006D00002F00A0E81EC02F00A0EABEC02F04E0EB4
:1006E00073EC02F00A0EABEC02F0040E81EC02F0A7
:1006F0000A0EABEC02F04F0E73EC02F00A0EABECFC
:1007000002F0000E81EC02F00A0EABEC02F0500E8B
:1007100073EC02F00A0EABEC02F0000E81EC02F07A
:100720000A0EABEC02F0510E73EC02F00A0EABECC9
:1007300002F0000E81EC02F00A0EABEC02F0520E59
:1007400073EC02F00A0EABEC02F0000E81EC02F04A
:100750000A0EABEC02F0530E73EC02F00A0EABEC97
:1007600002F0000E81EC02F00A0EABEC02F0540E27
:1007700073EC02F00A0EABEC02F0000E81EC02F01A
:100780000A0EABEC02F0550E73EC02F00A0EABEC65
:1007900002F0000E81EC02F00A0EABEC02F0560EF5
:1007A00073EC02F00A0EABEC02F00C0E81EC02F0DE
:1007B0000A0EABEC02F0570E73EC02F00A0EABEC33
:1007C00002F00C0E81EC02F00A0EABEC02F0580EB7
:1007D00073EC02F00A0EABEC02F0000E81EC02F0BA
:1007E0000A0EABEC02F0590E73EC02F00A0EABEC01
:1007F00002F0150E81EC02F00A0EABEC02F05A0E7C
:1008000073EC02F00A0EABEC02F00E0E81EC02F07B
:100810000A0EABEC02F05B0E73EC02F00A0EABECCE
:1008200002F01F0E81EC02F00A0EABEC02F05C0E3F
:1008300073EC02F00A0EABEC02F00E0E81EC02F04B
:100840000A0EABEC02F05D0E73EC02F00A0EABEC9C
:1008500002F0150E81EC02F00A0EABEC02F05E0E17
:1008600073EC02F00A0EABEC02F0000E81EC02F029
:100870000A0EABEC02F05F0E73EC02F00A0EABEC6A
:1008800002F0000E81EC02F00A0EABEC02F0600EFA
:1008900073EC02F00A0EABEC02F0000E81EC02F0F9
:1008A0000A0EABEC02F0610E73EC02F00A0EABEC38
:1008B00002F00F0E81EC02F00A0EABEC02F0620EB9
:1008C00073EC02F00A0EABEC02F01C0E81EC02F0AD
:1008D0000A0EABEC02F0630E73EC02F00A0EABEC06
:1008E00002F0180E81EC02F00A0EABEC02F0640E7E
:1008F00073EC02F00A0EABEC02F0180E81EC02F081
:100900000A0EABEC02F0650E73EC02F00A0EABECD3
:1009100002F01C0E81EC02F00A0EABEC02F0660E47
:1009200073EC02F00A0EABEC02F00F0E81EC02F059
:100930000A0EABEC02F0670E73EC02F00A0EABECA1
:1009400002F0000E81EC02F00A0EABEC02F0680E31
:1009500073EC02F00A0EABEC02F0000E81EC02F038
:100960000A0EABEC02F0690E73EC02F00A0EABEC6F
:1009700002F0000E81EC02F00A0EABEC02F06A0EFF
:1009800073EC02F00A0EABEC02F00A0E81EC02F0FE
:100990000A0EABEC02F06B0E73EC02F00A0EABEC3D
:1009A00002F0000E81EC02F00A0EABEC02F06C0ECD
:1009B00073EC02F00A0EABEC02F0000E81EC02F0D8
:1009C0000A0EABEC02F06D0E73EC02F00A0EABEC0B
:1009D00002F00A0E81EC02F00A0EABEC02F06E0E91
:1009E00073EC02F00A0EABEC02F00E0E81EC02F09A
:1009F0000A0EABEC02F06F0E73EC02F00A0EABECD9
:100A000002F0000E81EC02F00A0EABEC02F0700E68
:100A100073EC02F00A0EABEC02F0000E81EC02F077
:100A20000A0EABEC02F0710E73EC02F00A0EABECA6
:100A300002F0000E81EC02F00A0EABEC02F0720E36
:100A400073EC02F00A0EABEC02F00A0E81EC02F03D
:100A50000A0EABEC02F0730E73EC02F00A0EABEC74
:100A600002F0000E81EC02F00A0EABEC02F0740E04
:100A700073EC02F00A0EABEC02F0000E81EC02F017
:100A80000A0EABEC02F0750E73EC02F00A0EABEC42
:100A900002F00E0E81EC02F00A0EABEC02F0760EC4
:100AA00073EC02F00A0EABEC02F0000E81EC02F0E7
:100AB0000A0EABEC02F0770E73EC02F00A0EABEC10
:100AC00002F0000E81EC02F00A0EABEC02F0780EA0
:100AD00073EC02F00A0EABEC02F0000E81EC02F0B7
:100AE0000A0EABEC02F0790E73EC02F00A0EABECDE
:100AF00002F0000E81EC02F00A0EABEC02F07A0E6E
:100B000073EC02F00A0EABEC02F00A0E81EC02F07C
:100B10000A0EABEC02F07B0E73EC02F00A0EABECAB
:100B200002F0000E81EC02F00A0EABEC02F07C0E3B
:100B300073EC02F00A0EABEC02F0000E81EC02F056
:100B40000A0EABEC02F07D0E73EC02F00A0EABEC79
:100B500002F00E0E81EC02F00A0EABEC02F07E0EFB
:100B600073EC02F00A0EABEC02F00A0E81EC02F01C
:100B70000A0EABEC02F07F0E73EC02F00A0EABEC47
:100B800002F0000E81EC02F00A0EABEC02F0120053
:100B9000400E73EC02F00A0EABEC02F00E0E81EC8C
:100BA00002F00A0EABEC02F0410E73EC02F00A0EFA
:100BB000ABEC02F01F0E81EC02F00A0EABEC02F07F
:100BC000420E73EC02F00A0EABEC02F0150E81EC53
:100BD00002F00A0EABEC02F0430E73EC02F00A0EC8
:100BE000ABEC02F01F0E81EC02F00A0EABEC02F04F
:100BF000440E73EC02F00A0EABEC02F01F0E81EC17
:100C000002F00A0EABEC02F0450E73EC02F00A0E95
:100C1000ABEC02F01F0E81EC02F00A0EABEC02F01E
:100C2000460E73EC02F00A0EABEC02F0150E81ECEE
:100C300002F00A0EABEC02F0470E73EC02F00A0E63
:100C4000ABEC02F0000E81EC02F00A0EABEC02F00D
:100C50001200500E73EC02F00A0EABEC02F0000E24
:100C600081EC02F00A0EABEC02F0510E73EC02F0D4
:100C70000A0EABEC02F0000E81EC02F00A0EABECB7
:100C800002F0520E73EC02F00A0EABEC02F0000E12
:100C900081EC02F00A0EABEC02F0530E73EC02F0A2
:100CA0000A0EABEC02F00A0E81EC02F00A0EABEC7D
:100CB00002F0540E73EC02F00A0EABEC02F00A0ED6
:100CC00081EC02F00A0EABEC02F0550E73EC02F070
:100CD0000A0EABEC02F00E0E81EC02F00A0EABEC49
:100CE00002F0560E73EC02F00A0EABEC02F00E0EA0
:100CF00081EC02F00A0EABEC02F0570E73EC02F03E
:100D00000A0EABEC02F00E0E81EC02F00A0EABEC18
:100D100002F01200500E73EC02F00A0EABEC02F07F
:100D2000000E81EC02F00A0EABEC02F0510E73ECF7
:100D300002F00A0EABEC02F00A0E81EC02F00A0E91
:100D4000ABEC02F0520E73EC02F00A0EABEC02F0C8
:100D50000A0E81EC02F00A0EABEC02F0530E73ECBB
:100D600002F00A0EABEC02F01F0E81EC02F00A0E4C
:100D7000ABEC02F0540E73EC02F00A0EABEC02F096
:100D8000150E81EC02F00A0EABEC02F0550E73EC7E
:100D900002F00A0EABEC02F01B0E81EC02F00A0E20
:100DA000ABEC02F0560E73EC02F00A0EABEC02F064
:100DB0001F0E81EC02F00A0EABEC02F0570E73EC42
:100DC00002F00A0EABEC02F00E0E81EC02F00A0EFD
:100DD000ABEC02F01200500E73EC02F00A0EABEC1A
:100DE00002F01B0E81EC02F00A0EABEC02F0510E89
:100DF00073EC02F00A0EABEC02F00A0E81EC02F08A
:100E00000A0EABEC02F0520E73EC02F00A0EABECE1
:100E100002F01F0E81EC02F00A0EABEC02F0530E52
:100E200073EC02F00A0EABEC02F0150E81EC02F04E
:100E30000A0EABEC02F0540E73EC02F00A0EABECAF
:100E400002F01B0E81EC02F00A0EABEC02F0550E24
:100E500073EC02F00A0EABEC02F01F0E81EC02F014
:100E60000A0EABEC02F0560E73EC02F00A0EABEC7D
:100E700002F00E0E81EC02F00A0EABEC02F0570EFF
:100E800073EC02F00A0EABEC02F01F0E81EC02F0E4
:080E90000A0EABEC02F01200A7
:080E9800000E176E1200000E9F
:100EA000F86E000EF76E060EF66E0D0E146E09004B
:100EB000F55081EC02F0142EFAD71200000EF86EF5
:100EC000000EF76E140EF66E0D0E156E0900F5503D
:100ED00081EC02F0152EFAD71200000EF86E000E0B
:100EE000F76E220EF66E0D0E166E0900F55081ECAF
:100EF00002F0162EFAD712000F6E010E1726850E7D
:100F0000C1EC02F0270E81EC02F025EC09F0850E11
:100F1000C1EC02F02C0E81EC02F025EC09F0850EFC
:100F2000C1EC02F0200E81EC02F0C50EC1EC02F023
:100F3000270E81EC02F025EC09F0C50EC1EC02F0A1
:100F40002C0E81EC02F025EC09F0C90EC1EC02F088
:100F5000200E81EC02F0C80EC1EC02F0020E81EC12
:100F600002F025EC09F0C80EC1EC02F0200E81EC75
:100F700002F0C70EC1EC02F0020E81EC02F025EC8B
:100F800009F0C70EC1EC02F0200E81EC02F0C60E93
:100F9000C1EC02F0020E81EC02F025EC09F0C60E65
:100FA000C1EC02F0200E81EC02F0C50EC1EC02F0A3
:100FB000020E81EC02F025EC09F0C50EC1EC02F046
:100FC000200E81EC02F0020E81EC02F025EC09F01B
:100FD000C60EC1EC02F0200E81EC02F0020E81EC94
:100FE00002F025EC09F0C70EC1EC02F0200E81ECF6
:100FF00002F0020E81EC02F025EC09F0C80EC1EC03
:1010000002F0200E81EC02F0020E81EC02F0020EE2
:10101000176201D00AD0040E176201D006D0060E66
:10102000176201D002D00F501200010E0F2625ECDE
:1010300009F025EC09F025EC09F0C90EC1EC02F02D
:101040002A0E81EC02F025EC09F025EC09F0CA0E1D
:10105000C1EC02F02A0E81EC02F0890EC1EC02F024
:101060002A0E81EC02F0C80EC1EC02F02A0E81ECCF
:1010700002F025EC09F025EC09F0CB0EC1EC02F0F2
:101080002A0E81EC02F08A0EC1EC02F02A0E81ECED
:1010900002F0880EC1EC02F02A0E81EC02F0C70EBD
:1010A000C1EC02F02A0E81EC02F025EC09F025ECEF
:1010B00009F0CC0EC1EC02F02A0E81EC02F08B0E8E
:1010C000C1EC02F02A0E81EC02F0870EC1EC02F0B6
:1010D0002A0E81EC02F0C60EC1EC02F02A0E81EC61
:1010E00002F025EC09F025EC09F0CD0EC1EC02F080
:1010F0002A0E81EC02F08C0EC1EC02F02A0E81EC7B
:1011000002F0860EC1EC02F02A0E81EC02F0C50E50
:10111000C1EC02F02A0E81EC02F025EC09F025EC7E
:1011200009F0CE0EC1EC02F02A0E81EC02F08D0E19
:10113000C1EC02F02A0E81EC02F0850EC1EC02F047
:101140002A0E81EC02F0C40EC1EC02F02A0E81ECF2
:1011500002F025EC09F025EC09F0CF0EC1EC02F00D
:101160002A0E81EC02F08E0EC1EC02F02A0E81EC08
:1011700002F0840EC1EC02F02A0E81EC02F0C30EE4
:10118000C1EC02F02A0E81EC02F025EC09F025EC0E
:1011900009F08F0EC1EC02F02A0E81EC02F0830EF2
:1011A000C1EC02F02A0E81EC02F0050E136E25EC64
:1011B00009F025EC09F0830EC1EC02F04FEC07F0CA
:1011C000C30EC1EC02F05EEC07F025EC09F025EC53
:1011D00009F0830EC1EC02F05EEC07F0C30EC1EC27
:1011E00002F04FEC07F0132EE2D7830EC1EC02F0B1
:1011F0006DEC07F0C30EC1EC02F06DEC07F0010ED0
:101200000F6201D004D0020E0F6215D00AD029EC73
:1012100006F0C90EC1EC02F0020E81EC02F00F5094
:1012200012008AEC06F0C90EC1EC02F0020E81EC4D
:1012300002F00F501200EBEC06F0C90EC1EC02F008
:10124000020E81EC02F00F501200900E106E102E64
:1012500001D01200900E116E112E01D0F8D7900E11
:08126000126E122EFED7F8D722
:081268008D6AFF0E206E7CEC84
:1012700009F0120040EC09F00DD05EEC09F028D026
:10128000F00E966E538D0F0E846EFF0E206E7CEC6A
:1012900009F0120084A803D0000E0D6EEED784AAC8
:1012A00003D0010E0D6EE9D784AC03D0020E0D6E93
:1012B000E4D784AEEFD7030E0D6EDFD70F0E966E18
:1012C000538DF00E846EFF0E206E7CEC09F0120040
:1012D00084A003D0040E0E6E12D084A203D0050E9B
:1012E0000E6E0DD084A403D0060E0E6E08D084A618
:1012F000D1D7070E0E6E03D0202EFED71200000E9F
:101300000D6213D001D01200040E0E6202D0310E15
:101310001200050E0E6202D0320E1200060E0E6290
:1013200002D0330E1200460E1200010E0D6212D0D2
:1013300000D0040E0E6202D0340E1200050E0E62B2
:1013400002D0350E1200060E0E6202D0360E1200CA
:10135000450E1200020E0D6212D000D0040E0E6275
:1013600002D0370E1200050E0E6202D0380E1200A7
:10137000060E0E6202D0390E1200440E120000D08A
:10138000040E0E6202D0410E1200050E0E6202D053
:10139000300E1200060E0E6202D0420E1200430EF4
:0213A000120039
:0E13A200BAEC02F0000EF86E000EF76E300E80
:1013B000F66E100E1B6E0900F55081EC02F01B2E2C
:1013C000FAD71200BAEC02F0010E81EC02F0010E25
:1013D00081EC02F0010E81EC02F0C00EC1EC02F0D3
:1013E000050E81EC02F0030E81EC02F0C90EC1EC97
:1013F00002F0000E81EC02F0120058EC0AF00F0E21
:10140000206EC80EC1EC02F0B20E81EC02F0CA0EE2
:10141000C1EC02F0B20E81EC02F058EC0AF0C80EFA
:10142000C1EC02F0200E81EC02F0CA0EC1EC02F019
:10143000200E81EC02F058EC0AF0202EE2D7050EC7
:10144000206EC90EC1EC02F0000E81EC02F058ECE7
:101450000AF0C90EC1EC02F0200E81EC02F058EC4B
:101460000AF0202EEED7C90EC1EC02F0020E81EC7C
:1014700002F0C80EC1EC02F0280E81EC02F0CA0E98
:10148000C1EC02F0290E81EC02F058EC0AF058ECA5
:101490000AF058EC0AF0C80EC1EC02F0200E81EC04
:1014A00002F0CA0EC1EC02F0200E81EC02F0120034
:1014B000200E186E182E01D01200200E196E192E53
:0E14C00001D0F8D7200E1A6E1A2EFED7F8D7DC
:020000040030CA
:0100000015EA
:0100010013EB
:010002007F7E
:010003007F7D
:01000400F902
:010005008B6F
:010006009168
:01000800FFF8
:01000900C036
:01000A00FFF6
:01000B00E014
:01000C00FFF4
:01000D0040B2
:00000001FF
