:020000040000FA
:0400000080EF00F09D
:020004000000FA
:0A0006002A202A202A202A202A207E
:100010002A202A00202A202A202A202A202A202AB0
:100020002000202020202020202020202020200010
:100030005052455353204120544F20484154434887
:020040001200AC
:020042001200AA
:100100007F9C7F8E55EC02F0E8EC00F06AEC0AF080
:100110008AEF00F000000000000000EC0EF0FF0E7F
:10012000066E000E826FEEEC00F0826F410E82636D
:10013000F6D711EC0EF046EC02F02CEC0EF0FE0EB1
:10014000066EFE0E076E010E086EF40E056E030EAF
:100150000A6E000E096E99EC03F0DAEC05F0000E61
:10016000826FEEEC00F0826F410E826301D0F7D710
:10017000420E826304D0095021EC00F0F0D7430E08
:10018000826304D0095020EC00F0E9D7440E82636A
:1001900008D00950B4EC09F0F40E056EA6EC01F09D
:1001A000DED7450E826308D0095053EC0CF0F40EF4
:1001B000056EA6EC01F0D3D7460E8263D0D7095066
:1001C0009AEC0AF0096EF40E056EA6EC01F0C7D7A2
:1001D0008D6AFF0E206E30EC01F01200F4EC00F09E
:1001E0000DD012EC01F028D0F00E966E538D0F0E4C
:1001F000846EFF0E206E30EC01F0120084A803D054
:10020000000E806FEED784AA03D0010E806FE9D76D
:1002100084AC03D0020E806FE4D784AE76D0030E98
:10022000806FDFD70F0E966E538DF00E846EFF0E2B
:10023000206E30EC01F0120084A003D0040E816F18
:1002400012D084A203D0050E816F0DD084A403D0F8
:10025000060E816F08D084A6D1D7070E816F03D018
:10026000202EFED71200000E806313D001D01200A2
:10027000040E816302D0310E1200050E816302D09C
:10028000320E1200060E816302D0330E1200460EAB
:100290001200010E806312D000D0040E816302D0E0
:1002A000340E1200050E816302D0350E1200060EC8
:1002B000816302D0360E1200450E1200020E8063DA
:1002C00012D000D0040E816302D0370E1200050E4A
:1002D000816302D0380E1200060E816302D0390EFF
:1002E0001200440E120000D0040E816302D0410EB1
:1002F0001200050E816302D0300E1200060E8163DB
:1003000002D0420E1200430E1200FF0E066201D010
:1003100075D7062E73D7072E01D003D0FE0E066EBA
:100320006DD7082E01D003D0FE0E076E67D7010EE1
:10033000055EA6EC01F0000E0564C5EC01F0FE0EB2
:10034000066EFE0E076E010E086E58D7C00ED3EC77
:1003500002F0960E056004D0320E056008D00ED073
:10036000C00ED3EC02F0050E93EC02F01200C00EAA
:10037000D3EC02F0060E93EC02F01200C00ED3ECA8
:1003800002F0070E93EC02F01200010E0A5E020E5C
:100390000A6201D004D0010E0A621FD00FD0820E73
:1003A000D3EC02F0200E93EC02F0F40E056EC00EBA
:1003B000D3EC02F0050E93EC02F01200810ED3ECA8
:1003C00002F0200E93EC02F0F40E056EC00ED3EC9A
:1003D00002F0050E93EC02F01200CCEC02F0C90E14
:1003E000D3EC02F0000E93EC02F046EC02F046EC87
:1003F00002F046EC02F046EC02F0C90ED3EC02F03B
:10040000200E93EC02F0000E93EC02F046EC02F0AA
:10041000CA0ED3EC02F0200E93EC02F0000E93EC27
:1004200002F046EC02F0CB0ED3EC02F0200E93EC7F
:1004300002F0000E93EC02F046EC02F0CC0ED3EC8E
:1004400002F0200E93EC02F0000E93EC02F046EC6A
:1004500002F0CD0ED3EC02F0200E93EC02F0000E71
:1004600093EC02F046EC02F0CE0ED3EC02F0200E3C
:1004700093EC02F0000E93EC02F046EC02F0CF0E8B
:10048000D3EC02F0200E93EC02F03AD6FF0E0B6E86
:100490000B2E01D01200FF0E0C6E0C2E01D0F8D7DF
:0A04A000FF0E0D6E0D2EFED7F8D7EB
:0604AA008A6AC00E936E89
:1004B000280EB6EC02F0300E85EC02F00A0EBDEC10
:1004C00002F0280E85EC02F00A0EBDEC02F0280EB8
:1004D00085EC02F00A0EBDEC02F00C0E85EC02F089
:1004E0000A0EBDEC02F0CCEC02F0060E85EC02F038
:1004F0000A0EBDEC02F0D9EC02F01200046EEE50D0
:1005000093EC02F0042EFBD71200036E03380F0B9E
:100510008A6E8A98A4EC02F003500F0B8A6E8A98B8
:10052000A4EC02F01200036E03380F0B8A6E8A8867
:10053000A4EC02F003500F0B8A6E8A88A4EC02F040
:100540000A0EBDEC02F012000000000000000000E6
:1005500000000000000000008A8A00000000000087
:1005600000000000000000008A9A1200026EFA0EDD
:10057000BDEC02F0022EFBD71200006E003A0F0E07
:100580000014016EF00E0016C7EC02F01200000E0F
:100590000006015AFDE21200010E85EC02F0020E87
:1005A000B6EC02F0120085EC02F00A0EBDEC02F08F
:1005B0001200400E85EC02F00A0EBDEC02F0000EB7
:1005C00093EC02F00A0EBDEC02F0410E85EC02F055
:1005D0000A0EBDEC02F0040E93EC02F00A0EBDEC24
:1005E00002F0420E85EC02F00A0EBDEC02F00A0E9B
:1005F00093EC02F00A0EBDEC02F0430E85EC02F023
:100600000A0EBDEC02F0150E93EC02F00A0EBDECE2
:1006100002F0440E85EC02F00A0EBDEC02F01B0E57
:1006200093EC02F00A0EBDEC02F0450E85EC02F0F0
:100630000A0EBDEC02F0150E93EC02F00A0EBDECB2
:1006400002F0460E85EC02F00A0EBDEC02F01B0E25
:1006500093EC02F00A0EBDEC02F0470E85EC02F0BE
:100660000A0EBDEC02F00E0E93EC02F00A0EBDEC89
:1006700002F0480E85EC02F00A0EBDEC02F0000E0E
:1006800093EC02F00A0EBDEC02F0490E85EC02F08C
:100690000A0EBDEC02F00A0E93EC02F00A0EBDEC5D
:1006A00002F04A0E85EC02F00A0EBDEC02F0150EC7
:1006B00093EC02F00A0EBDEC02F04B0E85EC02F05A
:1006C0000A0EBDEC02F0110E93EC02F00A0EBDEC26
:1006D00002F04C0E85EC02F00A0EBDEC02F0110E99
:1006E00093EC02F00A0EBDEC02F04D0E85EC02F028
:1006F0000A0EBDEC02F00A0E93EC02F00A0EBDECFD
:1007000002F04E0E85EC02F00A0EBDEC02F0040E73
:1007100093EC02F00A0EBDEC02F04F0E85EC02F0F5
:100720000A0EBDEC02F0000E93EC02F00A0EBDECD6
:1007300002F0500E85EC02F00A0EBDEC02F0000E45
:1007400093EC02F00A0EBDEC02F0510E85EC02F0C3
:100750000A0EBDEC02F0000E93EC02F00A0EBDECA6
:1007600002F0520E85EC02F00A0EBDEC02F0000E13
:1007700093EC02F00A0EBDEC02F0530E85EC02F091
:100780000A0EBDEC02F0000E93EC02F00A0EBDEC76
:1007900002F0540E85EC02F00A0EBDEC02F0000EE1
:1007A00093EC02F00A0EBDEC02F0550E85EC02F05F
:1007B0000A0EBDEC02F0000E93EC02F00A0EBDEC46
:1007C00002F0560E85EC02F00A0EBDEC02F00C0EA3
:1007D00093EC02F00A0EBDEC02F0570E85EC02F02D
:1007E0000A0EBDEC02F00C0E93EC02F00A0EBDEC0A
:1007F00002F0580E85EC02F00A0EBDEC02F0000E7D
:1008000093EC02F00A0EBDEC02F0590E85EC02F0FA
:100810000A0EBDEC02F0150E93EC02F00A0EBDECD0
:1008200002F05A0E85EC02F00A0EBDEC02F00E0E3C
:1008300093EC02F00A0EBDEC02F05B0E85EC02F0C8
:100840000A0EBDEC02F01F0E93EC02F00A0EBDEC96
:1008500002F05C0E85EC02F00A0EBDEC02F00E0E0A
:1008600093EC02F00A0EBDEC02F05D0E85EC02F096
:100870000A0EBDEC02F0150E93EC02F00A0EBDEC70
:1008800002F05E0E85EC02F00A0EBDEC02F0000EE6
:1008900093EC02F00A0EBDEC02F05F0E85EC02F064
:1008A0000A0EBDEC02F0000E93EC02F00A0EBDEC55
:1008B00002F0600E85EC02F00A0EBDEC02F0000EB4
:1008C00093EC02F00A0EBDEC02F0610E85EC02F032
:1008D0000A0EBDEC02F00F0E93EC02F00A0EBDEC16
:1008E00002F0620E85EC02F00A0EBDEC02F01C0E66
:1008F00093EC02F00A0EBDEC02F0630E85EC02F000
:100900000A0EBDEC02F0180E93EC02F00A0EBDECDC
:1009100002F0640E85EC02F00A0EBDEC02F0180E37
:1009200093EC02F00A0EBDEC02F0650E85EC02F0CD
:100930000A0EBDEC02F01C0E93EC02F00A0EBDECA8
:1009400002F0660E85EC02F00A0EBDEC02F00F0E0E
:1009500093EC02F00A0EBDEC02F0670E85EC02F09B
:100960000A0EBDEC02F0000E93EC02F00A0EBDEC94
:1009700002F0680E85EC02F00A0EBDEC02F0000EEB
:1009800093EC02F00A0EBDEC02F0690E85EC02F069
:100990000A0EBDEC02F0000E93EC02F00A0EBDEC64
:1009A00002F06A0E85EC02F00A0EBDEC02F00A0EAF
:1009B00093EC02F00A0EBDEC02F06B0E85EC02F037
:1009C0000A0EBDEC02F0000E93EC02F00A0EBDEC34
:1009D00002F06C0E85EC02F00A0EBDEC02F0000E87
:1009E00093EC02F00A0EBDEC02F06D0E85EC02F005
:1009F0000A0EBDEC02F00A0E93EC02F00A0EBDECFA
:100A000002F06E0E85EC02F00A0EBDEC02F00E0E46
:100A100093EC02F00A0EBDEC02F06F0E85EC02F0D2
:100A20000A0EBDEC02F0000E93EC02F00A0EBDECD3
:100A300002F0700E85EC02F00A0EBDEC02F0000E22
:100A400093EC02F00A0EBDEC02F0710E85EC02F0A0
:100A50000A0EBDEC02F0000E93EC02F00A0EBDECA3
:100A600002F0720E85EC02F00A0EBDEC02F00A0EE6
:100A700093EC02F00A0EBDEC02F0730E85EC02F06E
:100A80000A0EBDEC02F0000E93EC02F00A0EBDEC73
:100A900002F0740E85EC02F00A0EBDEC02F0000EBE
:100AA00093EC02F00A0EBDEC02F0750E85EC02F03C
:100AB0000A0EBDEC02F00E0E93EC02F00A0EBDEC35
:100AC00002F0760E85EC02F00A0EBDEC02F0000E8C
:100AD00093EC02F00A0EBDEC02F0770E85EC02F00A
:100AE0000A0EBDEC02F0000E93EC02F00A0EBDEC13
:100AF00002F0780E85EC02F00A0EBDEC02F0000E5A
:100B000093EC02F00A0EBDEC02F0790E85EC02F0D7
:100B10000A0EBDEC02F0000E93EC02F00A0EBDECE2
:100B200002F07A0E85EC02F00A0EBDEC02F00A0E1D
:100B300093EC02F00A0EBDEC02F07B0E85EC02F0A5
:100B40000A0EBDEC02F0000E93EC02F00A0EBDECB2
:100B500002F07C0E85EC02F00A0EBDEC02F0000EF5
:100B600093EC02F00A0EBDEC02F07D0E85EC02F073
:100B70000A0EBDEC02F00E0E93EC02F00A0EBDEC74
:100B800002F07E0E85EC02F00A0EBDEC02F00A0EB9
:100B900093EC02F00A0EBDEC02F07F0E85EC02F041
:100BA0000A0EBDEC02F0000E93EC02F00A0EBDEC52
:100BB00002F01200400E85EC02F00A0EBDEC02F0CD
:100BC0000E0E93EC02F00A0EBDEC02F0410E85EC25
:100BD00002F00A0EBDEC02F01F0E93EC02F00A0EBA
:100BE000BDEC02F0420E85EC02F00A0EBDEC02F004
:100BF000150E93EC02F00A0EBDEC02F0430E85ECEC
:100C000002F00A0EBDEC02F01F0E93EC02F00A0E89
:100C1000BDEC02F0440E85EC02F00A0EBDEC02F0D1
:100C20001F0E93EC02F00A0EBDEC02F0450E85ECAF
:100C300002F00A0EBDEC02F01F0E93EC02F00A0E59
:100C4000BDEC02F0460E85EC02F00A0EBDEC02F09F
:100C5000150E93EC02F00A0EBDEC02F0470E85EC87
:100C600002F00A0EBDEC02F0000E93EC02F00A0E48
:100C7000BDEC02F01200500E85EC02F00A0EBDEC45
:100C800002F0000E93EC02F00A0EBDEC02F0510EE1
:100C900085EC02F00A0EBDEC02F0000E93EC02F0BF
:100CA0000A0EBDEC02F0520E85EC02F00A0EBDEC0D
:100CB00002F0000E93EC02F00A0EBDEC02F0530EAF
:100CC00085EC02F00A0EBDEC02F00A0E93EC02F085
:100CD0000A0EBDEC02F0540E85EC02F00A0EBDECDB
:100CE00002F00A0E93EC02F00A0EBDEC02F0550E73
:100CF00085EC02F00A0EBDEC02F00E0E93EC02F051
:100D00000A0EBDEC02F0560E85EC02F00A0EBDECA8
:100D100002F00E0E93EC02F00A0EBDEC02F0570E3C
:100D200085EC02F00A0EBDEC02F00E0E93EC02F020
:100D30000A0EBDEC02F01200500E85EC02F00A0E15
:100D4000BDEC02F0000E93EC02F00A0EBDEC02F0D6
:100D5000510E85EC02F00A0EBDEC02F00A0E93EC87
:100D600002F00A0EBDEC02F0520E85EC02F00A0E03
:100D7000BDEC02F00A0E93EC02F00A0EBDEC02F09C
:100D8000530E85EC02F00A0EBDEC02F01F0E93EC40
:100D900002F00A0EBDEC02F0540E85EC02F00A0ED1
:100DA000BDEC02F0150E93EC02F00A0EBDEC02F061
:100DB000550E85EC02F00A0EBDEC02F01B0E93EC12
:100DC00002F00A0EBDEC02F0560E85EC02F00A0E9F
:100DD000BDEC02F01F0E93EC02F00A0EBDEC02F027
:100DE000570E85EC02F00A0EBDEC02F00E0E93ECED
:100DF00002F00A0EBDEC02F01200500E85EC02F07B
:100E00000A0EBDEC02F01B0E93EC02F00A0EBDECD4
:100E100002F0510E85EC02F00A0EBDEC02F00A0E53
:100E200093EC02F00A0EBDEC02F0520E85EC02F0DB
:100E30000A0EBDEC02F01F0E93EC02F00A0EBDECA0
:100E400002F0530E85EC02F00A0EBDEC02F0150E16
:100E500093EC02F00A0EBDEC02F0540E85EC02F0A9
:100E60000A0EBDEC02F01B0E93EC02F00A0EBDEC74
:100E700002F0550E85EC02F00A0EBDEC02F01F0EDA
:100E800093EC02F00A0EBDEC02F0560E85EC02F077
:100E90000A0EBDEC02F00E0E93EC02F00A0EBDEC51
:100EA00002F0570E85EC02F00A0EBDEC02F01F0EA8
:100EB00093EC02F00A0EBDEC02F01200400E85EC3D
:100EC00002F00A0EBDEC02F0040E93EC02F00A0EE2
:100ED000BDEC02F0410E85EC02F00A0EBDEC02F012
:100EE000040E93EC02F00A0EBDEC02F0420E85EC0B
:100EF00002F00A0EBDEC02F00E0E93EC02F00A0EA8
:100F0000BDEC02F0430E85EC02F00A0EBDEC02F0DF
:100F1000150E93EC02F00A0EBDEC02F0440E85ECC7
:100F200002F00A0EBDEC02F01B0E93EC02F00A0E6A
:100F3000BDEC02F0450E85EC02F00A0EBDEC02F0AD
:100F4000150E93EC02F00A0EBDEC02F0460E85EC95
:100F500002F00A0EBDEC02F00E0E93EC02F00A0E47
:100F6000BDEC02F0470E85EC02F00A0EBDEC02F07B
:100F7000000E93EC02F00A0EBDEC02F01200600EBF
:100F800085EC02F00A0EBDEC02F0040E93EC02F0C8
:100F90000A0EBDEC02F0610E85EC02F00A0EBDEC0B
:100FA00002F0040E93EC02F00A0EBDEC02F0620EA9
:100FB00085EC02F00A0EBDEC02F00E0E93EC02F08E
:100FC0000A0EBDEC02F0630E85EC02F00A0EBDECD9
:100FD00002F01B0E93EC02F00A0EBDEC02F0640E60
:100FE00085EC02F00A0EBDEC02F0150E93EC02F057
:100FF0000A0EBDEC02F0650E85EC02F00A0EBDECA7
:1010000002F01B0E93EC02F00A0EBDEC02F0660E2D
:1010100085EC02F00A0EBDEC02F00E0E93EC02F02D
:101020000A0EBDEC02F0670E85EC02F00A0EBDEC74
:1010300002F0000E93EC02F00A0EBDEC02F012007A
:101040008F0ED3EC02F0000E93EC02F012008F0E24
:10105000D3EC02F0040E93EC02F012008F0ED3ECEE
:1010600002F0200E93EC02F0120020EC08F0C90E02
:10107000D3EC02F0200E93EC02F0890ED3EC02F0D8
:10108000020E93EC02F05BEC0AF027EC08F0890EFC
:10109000D3EC02F0200E93EC02F0C90ED3EC02F078
:1010A000020E93EC02F05BEC0AF0120020EC08F068
:1010B000C90ED3EC02F0200E93EC02F0880ED3ECB4
:1010C00002F0020E93EC02F05BEC0AF027EC08F061
:1010D000880ED3EC02F0200E93EC02F0C70ED3EC96
:1010E00002F0020E93EC02F05BEC0AF020EC08F048
:1010F000C70ED3EC02F0200E93EC02F0860ED3EC78
:1011000002F0020E93EC02F05BEC0AF027EC08F020
:10111000860ED3EC02F0200E93EC02F0C50ED3EC59
:1011200002F0020E93EC02F05BEC0AF020EC08F007
:10113000C50ED3EC02F0200E93EC02F0860ED3EC39
:1011400002F0020E93EC02F05BEC0AF027EC08F0E0
:10115000860ED3EC02F0200E93EC02F0C70ED3EC17
:1011600002F0020E93EC02F05BEC0AF020EC08F0C7
:10117000C70ED3EC02F0200E93EC02F0880ED3ECF5
:1011800002F0020E93EC02F05BEC0AF027EC08F0A0
:10119000880ED3EC02F0200E93EC02F0C90ED3ECD3
:1011A00002F0020E93EC02F05BEC0AF020EC08F087
:1011B000C90ED3EC02F0200E93EC02F08A0ED3ECB1
:1011C00002F0020E93EC02F05BEC0AF027EC08F060
:1011D0008A0ED3EC02F0200E93EC02F0CB0ED3EC8F
:1011E00002F0020E93EC02F05BEC0AF020EC08F047
:1011F000CB0ED3EC02F0200E93EC02F08C0ED3EC6D
:1012000002F0020E93EC02F05BEC0AF027EC08F01F
:101210008C0ED3EC02F0200E93EC02F0CD0ED3EC4A
:1012200002F0020E93EC02F05BEC0AF020EC08F006
:10123000CD0ED3EC02F0200E93EC02F08C0ED3EC2A
:1012400002F0020E93EC02F05BEC0AF027EC08F0DF
:101250008C0ED3EC02F0200E93EC02F0CB0ED3EC0C
:1012600002F0020E93EC02F05BEC0AF020EC08F0C6
:10127000CB0ED3EC02F0200E93EC02F08A0ED3ECEE
:1012800002F0020E93EC02F05BEC0AF027EC08F09F
:101290008A0ED3EC02F0200E93EC02F0C90ED3ECD0
:1012A00002F0020E93EC02F05BEC0AF012000A0E60
:1012B000156E20EC08F0CA0ED3EC02F0CD0E93ECC4
:1012C00002F0C80ED3EC02F0CD0E93EC02F05BEC12
:1012D0000AF027EC08F0CA0ED3EC02F0200E93ECD3
:1012E00002F0C80ED3EC02F0200E93EC02F08A0E4E
:1012F000D3EC02F02E0E93EC02F0880ED3EC02F049
:101300002E0E93EC02F05BEC0AF08A0ED3EC02F0A6
:10131000200E93EC02F0880ED3EC02F0200E93EC3A
:1013200002F0152EC6D720EC08F0CA0ED3EC02F05E
:10133000CD0E93EC02F0C80ED3EC02F0CD0E93EC80
:1013400002F05BEC0AF027EC08F0CA0ED3EC02F0D6
:10135000200E93EC02F0C80ED3EC02F0200E93ECBA
:1013600002F05BEC0AF012000E6E5EEC07F0BFECD0
:1013700007F00A0E126E040E136E020E146E000EAB
:101380000E6201D008D0010E0E6201D01FD0020EF5
:101390000E6264D042D020EC08F05BEC0AF027EC3F
:1013A00008F05BEC0AF035EC08F0122EF4D720ECD4
:1013B00008F05BEC0AF027EC08F05BEC0AF02EEC8E
:1013C00008F0DAEC05F059EC04F0120020EC08F01B
:1013D0005BEC0AF027EC08F05BEC0AF035EC08F067
:1013E000132EF4D720EC08F05BEC0AF027EC08F0A1
:1013F0005BEC0AF056EC08F0142EFCD720EC08F059
:101400005BEC0AF027EC08F05BEC0AF02EEC08F03D
:10141000DAEC05F059EC04F0120020EC08F05BEC7B
:101420000AF027EC08F05BEC0AF057EC09F056ECF8
:1014300008F057EC09F056EC08F057EC09F020ECF6
:1014400008F05BEC0AF027EC08F05BEC0AF02EECFD
:1014500008F0DAEC05F059EC04F0120020EC08F08A
:101460005BEC0AF027EC08F05BEC0AF035EC08F0D6
:1014700035EC08F057EC09F035EC08F035EC08F0E5
:1014800056EC08F035EC08F035EC08F057EC09F0B4
:1014900035EC08F035EC08F020EC08F05BEC0AF0D5
:1014A00027EC08F05BEC0AF02EEC08F0DAEC05F023
:1014B00059EC04F01200900E0F6E0F2E01D01200A6
:1014C000900E106E102E01D0F8D7900E116E112EC6
:0414D000FED7F8D774
:0C14D400000E326E1200000EF86E000ECA
:1014E000F76E060EF66E0D0E2F6E0900F55093EC9A
:1014F00002F02F2EFAD71200000EF86E000EF76ED3
:10150000140EF66E0D0E306E0900F55093EC02F0DD
:10151000302EFAD71200000EF86E000EF76E220E73
:10152000F66E0D0E316E0900F55093EC02F0312E7F
:10153000FAD712002A6E010E3226850ED3EC02F085
:10154000270E93EC02F044EC0CF0850ED3EC02F085
:101550002C0E93EC02F044EC0CF0850ED3EC02F070
:10156000200E93EC02F0C50ED3EC02F0270E93ECA4
:1015700002F044EC0CF0C50ED3EC02F02C0E93EC10
:1015800002F044EC0CF0C90ED3EC02F0200E93EC08
:1015900002F0C80ED3EC02F0020E93EC02F044EC21
:1015A0000CF0C80ED3EC02F0200E93EC02F0C70E44
:1015B000D3EC02F0020E93EC02F044EC0CF0C70EF8
:1015C000D3EC02F0200E93EC02F0C60ED3EC02F046
:1015D000020E93EC02F044EC0CF0C60ED3EC02F0D9
:1015E000200E93EC02F0C50ED3EC02F0020E93EC49
:1015F00002F044EC0CF0C50ED3EC02F0200E93EC9C
:1016000002F0020E93EC02F044EC0CF0C60ED3ECA8
:1016100002F0200E93EC02F0020E93EC02F044EC88
:101620000CF0C70ED3EC02F0200E93EC02F0020E89
:1016300093EC02F044EC0CF0C80ED3EC02F0200E58
:1016400093EC02F0020E93EC02F03250020E326282
:1016500001D00AD0040E326201D006D0060E3262EA
:1016600001D002D02A501200010E2A2644EC0CF0C0
:1016700044EC0CF044EC0CF0C90ED3EC02F02A0E52
:1016800093EC02F044EC0CF044EC0CF0CA0ED3ECFA
:1016900002F02A0E93EC02F0890ED3EC02F02A0E2F
:1016A00093EC02F0C80ED3EC02F02A0E93EC02F099
:1016B00044EC0CF044EC0CF0CB0ED3EC02F02A0E10
:1016C00093EC02F08A0ED3EC02F02A0E93EC02F0B7
:1016D000880ED3EC02F02A0E93EC02F0C70ED3EC86
:1016E00002F02A0E93EC02F044EC0CF044EC0CF007
:1016F000CC0ED3EC02F02A0E93EC02F08B0ED3EC5E
:1017000002F02A0E93EC02F0870ED3EC02F02A0EC0
:1017100093EC02F0C60ED3EC02F02A0E93EC02F02A
:1017200044EC0CF044EC0CF0CD0ED3EC02F02A0E9D
:1017300093EC02F08C0ED3EC02F02A0E93EC02F044
:10174000860ED3EC02F02A0E93EC02F0C50ED3EC19
:1017500002F02A0E93EC02F044EC0CF044EC0CF096
:10176000CE0ED3EC02F02A0E93EC02F08D0ED3ECE9
:1017700002F02A0E93EC02F0850ED3EC02F02A0E52
:1017800093EC02F0C40ED3EC02F02A0E93EC02F0BC
:1017900044EC0CF044EC0CF0CF0ED3EC02F02A0E2B
:1017A00093EC02F08E0ED3EC02F02A0E93EC02F0D2
:1017B000840ED3EC02F02A0E93EC02F0C30ED3ECAD
:1017C00002F02A0E93EC02F044EC0CF044EC0CF026
:1017D0008F0ED3EC02F02A0E93EC02F0830ED3ECC2
:1017E00002F02A0E93EC02F0050E2E6E44EC0CF083
:1017F00044EC0CF0830ED3EC02F06DEC0AF0C30E57
:10180000D3EC02F07CEC0AF044EC0CF044EC0CF06D
:10181000830ED3EC02F07CEC0AF0C30ED3EC02F0A2
:101820006DEC0AF02E2EE2D7830ED3EC02F08BEC97
:101830000AF0C30ED3EC02F08BEC0AF0010E2A6220
:1018400001D004D0020E2A6215D00AD03BEC06F07B
:10185000C90ED3EC02F0020E93EC02F02A501200F3
:101860009CEC06F0C90ED3EC02F0020E93EC02F0F1
:101870002A501200FDEC06F0C90ED3EC02F0020E65
:1018800093EC02F02A501200900E2B6E2B2E01D0FA
:101890001200900E2C6E2C2E01D0F8D7900E2D6ECB
:0618A0002D2EFED7F8D743
:0A18A600880ED3EC02F03F0E93EC25
:1018B00002F02B0E93EC02F03F0E93EC02F03D0E83
:1018C00093EC02F03F0E93EC02F0000E266E000E39
:1018D000206E000E216E200E226E200E236E0F0E43
:1018E000246E200E286E41EC0DF024C020F025C09F
:1018F00022F0F1EC0DF041EC0DF024C021F025C0F8
:1019000023F00F0E206201D0E0D70F0E216201D02C
:10191000DCD7880ED3EC02F0225093EC02F08A0E52
:10192000D3EC02F0235093EC02F0F1EC0DF0F1EC6B
:101930000DF02050262621502626000E266203D0C8
:10194000300E276E7BD0010E266203D0310E276E3B
:1019500075D0020E266203D0320E276E6FD0030EB2
:10196000266203D0330E276E69D0040E266203D0A0
:10197000340E276E63D0050E266203D0350E276E17
:101980005DD0060E266203D0360E276E57D0070EA6
:10199000266203D0370E276E51D0080E266203D080
:1019A000380E276E4BD0090E266203D0390E276EF3
:1019B00045D00A0E266205D0310E276E300E286EF5
:1019C0003DD00B0E266205D0310E276E310E286EEB
:1019D00035D00C0E266205D0310E276E320E286EE1
:1019E0002DD00D0E266205D0310E276E330E286ED7
:1019F00025D00E0E266205D0310E276E340E286ECD
:101A00001DD00F0E266205D0310E276E350E286EC2
:101A100015D0100E266205D0310E276E360E286EB8
:101A20000DD0110E266205D0310E276E370E286EAE
:101A300005D0310E276E380E286E00D08C0ED3ECF8
:101A400002F0275093EC02F0285093EC02F0F1ECF6
:101A50000DF0F1EC0DF0880ED3EC02F0200E93ECBB
:101A600002F0200E93EC02F0200E93EC02F0200E18
:101A700093EC02F0200E93EC02F0200E93EC02F0B7
:101A80001200FF0E296E49EC0DF00DD067EC0DF041
:101A900028D0F00E966E538D0F0E846EFF0E296EB9
:101AA00085EC0DF0120084A803D0000E1B6EEED75B
:101AB00084AA03D0010E1B6EE9D784AC03D0020EBA
:101AC0001B6EE4D784AEEFD7030E1B6EDFD70F0E6D
:101AD000966E538DF00E846EFF0E296E85EC0DF020
:101AE000120084A003D0040E1C6E12D084A203D076
:101AF000050E1C6E0DD084A403D0060E1C6E08D0FB
:101B000084A6D1D7070E1C6E03D0292EFED7120053
:101B1000000E1B621AD001D01200040E1C6205D008
:101B2000010E246E310E256E1200050E1C6205D0CA
:101B3000020E246E320E256E1200060E1C6204D0B8
:101B4000030E246E330E256E1200010E1B621AD096
:101B500000D0040E1C6205D0040E246E340E256ED7
:101B60001200050E1C6205D0050E246E350E256E82
:101B70001200060E1C6205D0060E246E360E256E6F
:101B800012001200020E1B621AD000D0040E1C625A
:101B900005D0070E246E370E256E1200050E1C624E
:101BA00005D0080E246E380E256E1200060E1C623B
:101BB00005D0090E246E390E256E1200120000D0D9
:101BC000040E1C6201D01200050E1C6205D0000E2E
:101BD000246E300E256E1200060E1C6201D012001B
:101BE0001200900E1D6E1D2E01D01200900E1E6E62
:101BF0001E2E01D0F8D7900E1F6E1F2EFED7F8D7DD
:101C0000CCEC02F0000EF86E000EF76E300EF66EA1
:101C1000100E196E0900F55093EC02F0192EFAD748
:101C20001200CCEC02F0010E93EC02F0010E93ECEA
:101C300002F0010E93EC02F0C00ED3EC02F0050EA0
:101C400093EC02F0030E93EC02F0C90ED3EC02F019
:101C5000000E93EC02F01200050E1A6EC80ED3ECC3
:101C600002F0B20E93EC02F0CA0ED3EC02F0B20E08
:101C700093EC02F081EC0EF0C80ED3EC02F0200ED3
:101C800093EC02F0CA0ED3EC02F0200E93EC02F0BB
:101C900081EC0EF01A2EE2D7050E1A6EC90ED3ECA7
:101CA00002F0000E93EC02F081EC0EF0C90ED3ECC2
:101CB00002F0200E93EC02F081EC0EF01A2EEED71B
:101CC000C90ED3EC02F0020E93EC02F0C80ED3EC76
:101CD00002F0280E93EC02F0CA0ED3EC02F0290EAB
:101CE00093EC02F081EC0EF0C80ED3EC02F0200E63
:101CF00093EC02F0CA0ED3EC02F0200E93EC02F04B
:101D00001200900E166E162E01D01200900E176E55
:101D1000172E01D0F8D7900E186E182EFED7F8D7D0
:020000040030CA
:0100000015EA
:0100010013EB
:010002007F7E
:010003007F7D
:01000400F902
:010005008B6F
:010006009168
:01000800FFF8
:01000900C036
:01000A00FFF6
:01000B00E014
:01000C00FFF4
:01000D0040B2
:00000001FF
