:020000040000FA
:0400000080EF00F09D
:020004000000FA
:0A000600414243004445460030002B
:100100007F9C7F8E000000000000ABEC00F089EFC8
:1001100000F093EC00F0C00E27EC01F093EC00F03F
:10012000000E0A6E14D0000EF86E000EF76E0A0E66
:10013000F66E030E0B6E0900F550EAEC00F00B2E84
:10014000FAD71200FF0E0C6E0C2EFED71200000024
:06015000000000000000A9
:0A0156008A6AC00E936E280E0DECAD
:1001600001F0300EDCEC00F00A0E14EC01F0280E69
:10017000DCEC00F00A0E14EC01F0280EDCEC00F0D0
:100180000A0E14EC01F00C0EDCEC00F00A0E14EC7C
:1001900001F023EC01F0020E0DEC01F0060EDCEC98
:1001A00000F00A0E14EC01F01200046EEE50EAECBE
:1001B00000F0042EFBD71200036E03380F0B8A6E7B
:1001C0008A98FBEC00F003500F0B8A6E8A98FBECC8
:1001D00000F01200036E03380F0B8A6E8A88FBEC66
:1001E00000F003500F0B8A6E8A88FBEC00F00A0EB9
:1001F00014EC01F0120000000000000000000000FC
:100200000000000000008A8A0000000000000000DA
:100210000000000000008A9A1200026EFA0E14EC30
:1002200001F0022EFBD71200006E003A0F0E0014F0
:10023000016EF00E00161EEC01F01200000E00061A
:10024000015AFDE21200010EDCEC00F01200DCECC1
:0A02500000F00A0E14EC01F0120099
:020000040030CA
:0100000015EA
:0100010013EB
:010002007F7E
:010003007F7D
:01000400F902
:010005008B6F
:010006009168
:01000800FFF8
:01000900C036
:01000A00FFF6
:01000B00E014
:01000C00FFF4
:01000D0040B2
:00000001FF
