:020000040000FA
:0400000080EF00F09D
:020004000000FA
:0A000600050E466EC10E1CEC03F05F
:10001000040EDCEC02F08A0E1CEC03F05A0EDCEC51
:1000200002F038EC00F05A0EDCEC02F038EC00F094
:100030005A0EDCEC02F038EC00F08A0E1CEC03F0F7
:10004000200EDCEC02F038EC00F0200EDCEC02F0CC
:1000500038EC00F0200EDCEC02F038EC00F0462E1C
:10006000DAD7C10E1CEC03F0030EDCEC02F0120038
:10007000900E476E472E01D01200900E486E482E0B
:0E00800001D0F8D7900E496E492EFED7F8D762
:02008E0057EC2D
:1000900000F0120092862587010EC26E300EC16EEE
:1000A000F60EC06E1200C282C2B2FED7120053EC2E
:1000B00000F0C450436EC350426E1200446E443888
:1000C00063EC00F044500F0B456E0A0E4560070FBD
:0600D000260F452412007A
:0A00D6002A202A202A202A202A20AE
:1000E0002A202A00202A202A202A202A202A202AE0
:1000F0002000202020202020202020202020200040
:100100007F9C7F8E9EEC02F00BEC01F01AEC0DF060
:100110004AEC00F0000E976E8EEF00F00000000039
:100120000000A3EC10F0FF0E066E000E826F11ECC3
:1001300001F0826F410E8263F6D7B4EC10F08FECC1
:1001400002F0C5EC10F08FEC02F047EC00F0C80EA6
:10015000426401D007D0C20E1CEC03F02A0EDCEC86
:1001600002F0F1D7C20E1CEC03F0D70EDCEC02F06B
:10017000E0EC10F0FE0E066EFE0E076E050E086E29
:10018000F40E056E030E0A6E000E096EE2EC03F02B
:1001900023EC06F0000E826F11EC01F0826F410E2D
:1001A000826301D0F7D7420E826308D00950F1EC88
:1001B0000EF0F40E056EECEC01F0ECD7430E82630A
:1001C00008D0095003EC00F0F40E056EECEC01F0E1
:1001D000E1D7440E826308D0095064EC0CF0F40EB1
:1001E000056EECEC01F0D6D7450E826308D00950BD
:1001F00069EC08F0F40E056EECEC01F0CBD7460E7E
:100200008263C8D709504AEC0DF0096EF40E056EF2
:10021000ECEC01F0BFD78D6AFF0E206E53EC01F0BD
:10022000120017EC01F00DD035EC01F028D0F00EE3
:10023000966E538D0F0E846EFF0E206E53EC01F000
:10024000120084A803D0000E806FEED784AA03D0DA
:10025000010E806FE9D784AC03D0020E806FE4D723
:1002600084AE76D0030E806FDFD70F0E966E538D5F
:10027000F00E846EFF0E206E53EC01F0120084A08D
:1002800003D0040E816F12D084A203D0050E816FBB
:100290000DD084A403D0060E816F08D084A6D1D7D8
:1002A000070E816F03D0202EFED71200000E806350
:1002B00013D001D01200040E816302D0310E12005F
:1002C000050E816302D0320E1200060E816302D049
:1002D000330E1200460E1200010E806312D000D0C1
:1002E000040E816302D0340E1200050E816302D029
:1002F000350E1200060E816302D0360E1200450E36
:100300001200020E806312D000D0040E816302D06E
:10031000370E1200050E816302D0380E1200060E51
:10032000816302D0390E1200440E120000D0040E78
:10033000816302D0410E1200050E816302D0300E9F
:100340001200060E816302D0420E1200430E12000C
:10035000FF0E066201D075D7062E73D7072E01D087
:1003600003D0FE0E066E6DD7082E01D005D0FE0E0E
:10037000066EFE0E076E65D7010E055E05C085FF91
:10038000ECEC01F0000E05640DEC02F0FE0E066EC2
:10039000FE0E076E050E086E54D747EC00F0DB0E1C
:1003A000426401D00BD0C80E42600FD000D0C20E04
:1003B0001CEC03F02A0EDCEC02F01200C20E1CEC66
:1003C00003F0D70EDCEC02F01200C20E1CEC03F0BE
:1003D000200EDCEC02F01200CDEC01F0C00E1CECA3
:1003E00003F0960E056004D0320E056008D00ED0E2
:1003F000C00E1CEC03F0050EDCEC02F01200C00E87
:100400001CEC03F0060EDCEC02F01200C00E1CEC3B
:1004100003F0070EDCEC02F01200010E0A5E020E81
:100420000A6201D004D0010E0A621FD00FD0820EE2
:100430001CEC03F0200EDCEC02F0F40E056EC00E96
:100440001CEC03F0050EDCEC02F01200810E1CEC3B
:1004500003F0200EDCEC02F0F40E056EC00E1CEC76
:1004600003F0050EDCEC02F012004AD615EC03F0A6
:10047000C90E1CEC03F0000EDCEC02F08FEC02F075
:100480008FEC02F08FEC02F08FEC02F0C90E1CEC46
:1004900003F0200EDCEC02F0000EDCEC02F08FEC3E
:1004A00002F0CA0E1CEC03F0200EDCEC02F0000E91
:1004B000DCEC02F08FEC02F0CB0E1CEC03F0200E13
:1004C000DCEC02F0000EDCEC02F08FEC02F0CC0E63
:1004D0001CEC03F0200EDCEC02F0000EDCEC02F071
:1004E0008FEC02F0CD0E1CEC03F0200EDCEC02F0E1
:1004F000000EDCEC02F08FEC02F0CE0E1CEC03F0F0
:10050000200EDCEC02F0000EDCEC02F08FEC02F0CE
:10051000CF0E1CEC03F0200EDCEC02F0F1D5FF0E48
:100520000B6E0B2E01D01200FF0E0C6E0C2E01D0A4
:0C053000F8D7FF0E0D6E0D2EFED7F8D789
:04053C008A6AC00EF9
:10054000936E280EFFEC02F0300ECEEC02F00A0E95
:1005500006EC03F0280ECEEC02F00A0E06EC03F0D7
:10056000280ECEEC02F00A0E06EC03F00C0ECEECD8
:1005700002F00A0E06EC03F015EC03F0060ECEECCA
:1005800002F00A0E06EC03F022EC03F01200046EF7
:10059000EE50DCEC02F0042EFBD71200036E0338A1
:1005A0000F0B8A6E8A98EDEC02F003500F0B8A6EE7
:1005B0008A98EDEC02F01200036E03380F0B8A6E7E
:1005C0008A88EDEC02F003500F0B8A6E8A88EDECFE
:1005D00002F00A0E06EC03F012000000000000001A
:1005E000000000000000000000008A8A00000000F7
:1005F000000000000000000000008A9A1200026E55
:10060000FA0E06EC03F0022EFBD71200006E003A41
:100610000F0E0014016EF00E001610EC03F0120025
:10062000000E0006015AFDE21200010ECEEC02F0AF
:10063000020EFFEC02F01200CEEC02F00A0E06EC05
:1006400003F01200400ECEEC02F00A0E06EC03F0AE
:10065000000EDCEC02F00A0E06EC03F0410ECEECCC
:1006600002F00A0E06EC03F0040EDCEC02F00A0EB7
:1006700006EC03F0420ECEEC02F00A0E06EC03F09C
:100680000A0EDCEC02F00A0E06EC03F0430ECEEC90
:1006900002F00A0E06EC03F0150EDCEC02F00A0E76
:1006A00006EC03F0440ECEEC02F00A0E06EC03F06A
:1006B0001B0EDCEC02F00A0E06EC03F0450ECEEC4D
:1006C00002F00A0E06EC03F0150EDCEC02F00A0E46
:1006D00006EC03F0460ECEEC02F00A0E06EC03F038
:1006E0001B0EDCEC02F00A0E06EC03F0470ECEEC1B
:1006F00002F00A0E06EC03F00E0EDCEC02F00A0E1D
:1007000006EC03F0480ECEEC02F00A0E06EC03F005
:10071000000EDCEC02F00A0E06EC03F0490ECEEC03
:1007200002F00A0E06EC03F00A0EDCEC02F00A0EF0
:1007300006EC03F04A0ECEEC02F00A0E06EC03F0D3
:10074000150EDCEC02F00A0E06EC03F04B0ECEECBC
:1007500002F00A0E06EC03F0110EDCEC02F00A0EB9
:1007600006EC03F04C0ECEEC02F00A0E06EC03F0A1
:10077000110EDCEC02F00A0E06EC03F04D0ECEEC8E
:1007800002F00A0E06EC03F00A0EDCEC02F00A0E90
:1007900006EC03F04E0ECEEC02F00A0E06EC03F06F
:1007A000040EDCEC02F00A0E06EC03F04F0ECEEC69
:1007B00002F00A0E06EC03F0000EDCEC02F00A0E6A
:1007C00006EC03F0500ECEEC02F00A0E06EC03F03D
:1007D000000EDCEC02F00A0E06EC03F0510ECEEC3B
:1007E00002F00A0E06EC03F0000EDCEC02F00A0E3A
:1007F00006EC03F0520ECEEC02F00A0E06EC03F00B
:10080000000EDCEC02F00A0E06EC03F0530ECEEC08
:1008100002F00A0E06EC03F0000EDCEC02F00A0E09
:1008200006EC03F0540ECEEC02F00A0E06EC03F0D8
:10083000000EDCEC02F00A0E06EC03F0550ECEECD6
:1008400002F00A0E06EC03F0000EDCEC02F00A0ED9
:1008500006EC03F0560ECEEC02F00A0E06EC03F0A6
:100860000C0EDCEC02F00A0E06EC03F0570ECEEC98
:1008700002F00A0E06EC03F00C0EDCEC02F00A0E9D
:1008800006EC03F0580ECEEC02F00A0E06EC03F074
:10089000000EDCEC02F00A0E06EC03F0590ECEEC72
:1008A00002F00A0E06EC03F0150EDCEC02F00A0E64
:1008B00006EC03F05A0ECEEC02F00A0E06EC03F042
:1008C0000E0EDCEC02F00A0E06EC03F05B0ECEEC32
:1008D00002F00A0E06EC03F01F0EDCEC02F00A0E2A
:1008E00006EC03F05C0ECEEC02F00A0E06EC03F010
:1008F0000E0EDCEC02F00A0E06EC03F05D0ECEEC00
:1009000002F00A0E06EC03F0150EDCEC02F00A0E03
:1009100006EC03F05E0ECEEC02F00A0E06EC03F0DD
:10092000000EDCEC02F00A0E06EC03F05F0ECEECDB
:1009300002F00A0E06EC03F0000EDCEC02F00A0EE8
:1009400006EC03F0600ECEEC02F00A0E06EC03F0AB
:10095000000EDCEC02F00A0E06EC03F0610ECEECA9
:1009600002F00A0E06EC03F00F0EDCEC02F00A0EA9
:1009700006EC03F0620ECEEC02F00A0E06EC03F079
:100980001C0EDCEC02F00A0E06EC03F0630ECEEC5B
:1009900002F00A0E06EC03F0180EDCEC02F00A0E70
:1009A00006EC03F0640ECEEC02F00A0E06EC03F047
:1009B000180EDCEC02F00A0E06EC03F0650ECEEC2D
:1009C00002F00A0E06EC03F01C0EDCEC02F00A0E3C
:1009D00006EC03F0660ECEEC02F00A0E06EC03F015
:1009E0000F0EDCEC02F00A0E06EC03F0670ECEEC04
:1009F00002F00A0E06EC03F0000EDCEC02F00A0E28
:100A000006EC03F0680ECEEC02F00A0E06EC03F0E2
:100A1000000EDCEC02F00A0E06EC03F0690ECEECE0
:100A200002F00A0E06EC03F0000EDCEC02F00A0EF7
:100A300006EC03F06A0ECEEC02F00A0E06EC03F0B0
:100A40000A0EDCEC02F00A0E06EC03F06B0ECEECA4
:100A500002F00A0E06EC03F0000EDCEC02F00A0EC7
:100A600006EC03F06C0ECEEC02F00A0E06EC03F07E
:100A7000000EDCEC02F00A0E06EC03F06D0ECEEC7C
:100A800002F00A0E06EC03F00A0EDCEC02F00A0E8D
:100A900006EC03F06E0ECEEC02F00A0E06EC03F04C
:100AA0000E0EDCEC02F00A0E06EC03F06F0ECEEC3C
:100AB00002F00A0E06EC03F0000EDCEC02F00A0E67
:100AC00006EC03F0700ECEEC02F00A0E06EC03F01A
:100AD000000EDCEC02F00A0E06EC03F0710ECEEC18
:100AE00002F00A0E06EC03F0000EDCEC02F00A0E37
:100AF00006EC03F0720ECEEC02F00A0E06EC03F0E8
:100B00000A0EDCEC02F00A0E06EC03F0730ECEECDB
:100B100002F00A0E06EC03F0000EDCEC02F00A0E06
:100B200006EC03F0740ECEEC02F00A0E06EC03F0B5
:100B3000000EDCEC02F00A0E06EC03F0750ECEECB3
:100B400002F00A0E06EC03F00E0EDCEC02F00A0EC8
:100B500006EC03F0760ECEEC02F00A0E06EC03F083
:100B6000000EDCEC02F00A0E06EC03F0770ECEEC81
:100B700002F00A0E06EC03F0000EDCEC02F00A0EA6
:100B800006EC03F0780ECEEC02F00A0E06EC03F051
:100B9000000EDCEC02F00A0E06EC03F0790ECEEC4F
:100BA00002F00A0E06EC03F0000EDCEC02F00A0E76
:100BB00006EC03F07A0ECEEC02F00A0E06EC03F01F
:100BC0000A0EDCEC02F00A0E06EC03F07B0ECEEC13
:100BD00002F00A0E06EC03F0000EDCEC02F00A0E46
:100BE00006EC03F07C0ECEEC02F00A0E06EC03F0ED
:100BF000000EDCEC02F00A0E06EC03F07D0ECEECEB
:100C000002F00A0E06EC03F00E0EDCEC02F00A0E07
:100C100006EC03F07E0ECEEC02F00A0E06EC03F0BA
:100C20000A0EDCEC02F00A0E06EC03F07F0ECEECAE
:100C300002F00A0E06EC03F0000EDCEC02F00A0EE5
:100C400006EC03F01200400ECEEC02F00A0E06ECA9
:100C500003F00E0EDCEC02F00A0E06EC03F0410E7F
:100C6000CEEC02F00A0E06EC03F01F0EDCEC02F0F4
:100C70000A0E06EC03F0420ECEEC02F00A0E06EC71
:100C800003F0150EDCEC02F00A0E06EC03F0430E46
:100C9000CEEC02F00A0E06EC03F01F0EDCEC02F0C4
:100CA0000A0E06EC03F0440ECEEC02F00A0E06EC3F
:100CB00003F01F0EDCEC02F00A0E06EC03F0450E0A
:100CC000CEEC02F00A0E06EC03F01F0EDCEC02F094
:100CD0000A0E06EC03F0460ECEEC02F00A0E06EC0D
:100CE00003F0150EDCEC02F00A0E06EC03F0470EE2
:100CF000CEEC02F00A0E06EC03F0000EDCEC02F083
:100D00000A0E06EC03F01200500ECEEC02F00A0EB2
:100D100006EC03F0000EDCEC02F00A0E06EC03F029
:100D2000510ECEEC02F00A0E06EC03F0000EDCECE5
:100D300002F00A0E06EC03F0520ECEEC02F00A0EA0
:100D400006EC03F0000EDCEC02F00A0E06EC03F0F9
:100D5000530ECEEC02F00A0E06EC03F00A0EDCECA9
:100D600002F00A0E06EC03F0540ECEEC02F00A0E6E
:100D700006EC03F00A0EDCEC02F00A0E06EC03F0BF
:100D8000550ECEEC02F00A0E06EC03F00E0EDCEC73
:100D900002F00A0E06EC03F0560ECEEC02F00A0E3C
:100DA00006EC03F00E0EDCEC02F00A0E06EC03F08B
:100DB000570ECEEC02F00A0E06EC03F00E0EDCEC41
:100DC00002F00A0E06EC03F01200500ECEEC02F018
:100DD0000A0E06EC03F0000EDCEC02F00A0E06EC44
:100DE00003F0510ECEEC02F00A0E06EC03F00A0EF0
:100DF000DCEC02F00A0E06EC03F0520ECEEC02F030
:100E00000A0E06EC03F00A0EDCEC02F00A0E06EC09
:100E100003F0530ECEEC02F00A0E06EC03F01F0EA8
:100E2000DCEC02F00A0E06EC03F0540ECEEC02F0FD
:100E30000A0E06EC03F0150EDCEC02F00A0E06ECCE
:100E400003F0550ECEEC02F00A0E06EC03F01B0E7A
:100E5000DCEC02F00A0E06EC03F0560ECEEC02F0CB
:100E60000A0E06EC03F01F0EDCEC02F00A0E06EC94
:100E700003F0570ECEEC02F00A0E06EC03F00E0E55
:100E8000DCEC02F00A0E06EC03F01200500ECEEC81
:100E900002F00A0E06EC03F01B0EDCEC02F00A0E68
:100EA00006EC03F0510ECEEC02F00A0E06EC03F055
:100EB0000A0EDCEC02F00A0E06EC03F0520ECEEC49
:100EC00002F00A0E06EC03F01F0EDCEC02F00A0E34
:100ED00006EC03F0530ECEEC02F00A0E06EC03F023
:100EE000150EDCEC02F00A0E06EC03F0540ECEEC0C
:100EF00002F00A0E06EC03F01B0EDCEC02F00A0E08
:100F000006EC03F0550ECEEC02F00A0E06EC03F0F0
:100F10001F0EDCEC02F00A0E06EC03F0560ECEECCF
:100F200002F00A0E06EC03F00E0EDCEC02F00A0EE4
:100F300006EC03F0570ECEEC02F00A0E06EC03F0BE
:100F40001F0EDCEC02F00A0E06EC03F01200400E5D
:100F5000CEEC02F00A0E06EC03F0040EDCEC02F01C
:100F60000A0E06EC03F0410ECEEC02F00A0E06EC7F
:100F700003F0040EDCEC02F00A0E06EC03F0420E65
:100F8000CEEC02F00A0E06EC03F00E0EDCEC02F0E2
:100F90000A0E06EC03F0430ECEEC02F00A0E06EC4D
:100FA00003F0150EDCEC02F00A0E06EC03F0440E22
:100FB000CEEC02F00A0E06EC03F01B0EDCEC02F0A5
:100FC0000A0E06EC03F0450ECEEC02F00A0E06EC1B
:100FD00003F0150EDCEC02F00A0E06EC03F0460EF0
:100FE000CEEC02F00A0E06EC03F00E0EDCEC02F082
:100FF0000A0E06EC03F0470ECEEC02F00A0E06ECE9
:1010000003F0000EDCEC02F00A0E06EC03F0120016
:10101000600ECEEC02F00A0E06EC03F0040EDCECDF
:1010200002F00A0E06EC03F0610ECEEC02F00A0E9E
:1010300006EC03F0040EDCEC02F00A0E06EC03F002
:10104000620ECEEC02F00A0E06EC03F00E0EDCECA3
:1010500002F00A0E06EC03F0630ECEEC02F00A0E6C
:1010600006EC03F01B0EDCEC02F00A0E06EC03F0BB
:10107000640ECEEC02F00A0E06EC03F0150EDCEC6A
:1010800002F00A0E06EC03F0650ECEEC02F00A0E3A
:1010900006EC03F01B0EDCEC02F00A0E06EC03F08B
:1010A000660ECEEC02F00A0E06EC03F00E0EDCEC3F
:1010B00002F00A0E06EC03F0670ECEEC02F00A0E08
:1010C00006EC03F0000EDCEC02F00A0E06EC03F076
:0210D00012000C
:0E10D200880E1CEC03F03F0EDCEC02F02B0E3F
:1010E000DCEC02F03F0EDCEC02F03D0EDCEC02F03A
:1010F0003F0EDCEC02F0000E266E000E206E000E9D
:10110000216E200E226E200E236E010E276E200E01
:101110002C6E08EC0AF027C020F0C1EC0AF008ECB5
:101120000AF027C021F0000E206203D0300E226E9C
:1011300033D0010E206203D0310E226E2DD0020E6C
:10114000206203D0320E226E27D0030E206203D01D
:10115000330E226E21D0040E206203D0340E226E94
:101160001BD0050E206203D0350E226E15D0060E60
:10117000206203D0360E226E0FD0070E206203D0FD
:10118000370E226E09D0080E206203D0380E226E70
:1011900003D0390E226E00D0000E216203D0300E33
:1011A000236E33D0010E216203D0310E236E2DD079
:1011B000020E216203D0320E236E27D0030E21626D
:1011C00003D0330E236E21D0040E216203D0340EDF
:1011D000236E1BD0050E216203D0350E236E15D071
:1011E000060E216203D0360E236E0FD0070E216249
:1011F00003D0370E236E09D0080E216203D0380EBB
:10120000236E03D0390E236E00D0880E1CEC03F041
:101210002250DCEC02F08A0E1CEC03F02350DCECD4
:1012200002F02050262621502626090E266466D07C
:1012300000D0C1EC0AF0C1EC0AF008EC0AF025C0BD
:101240002DF08C0E1CEC03F02D50DCEC02F0C1EC08
:101250000AF008EC0AF025C02EF0C1EC0AF02E507E
:10126000DCEC02F00A0E266205D0310E2B6E300E39
:101270002C6E3DD00B0E266205D0310E2B6E310E3A
:101280002C6E35D00C0E266205D0310E2B6E320E30
:101290002C6E2DD00D0E266205D0310E2B6E330E26
:1012A0002C6E25D00E0E266205D0310E2B6E340E1C
:1012B0002C6E1DD00F0E266205D0310E2B6E350E12
:1012C0002C6E15D0100E266205D0310E2B6E360E08
:1012D0002C6E0DD0110E266205D0310E2B6E370EFE
:1012E0002C6E05D0310E2B6E380E2C6E00D02B508C
:1012F0002D624FD02C502E624CD066D0C1EC0AF03B
:10130000C1EC0AF008EC0AF025C02DF08C0E1CECA4
:1013100003F02D50DCEC02F0000E266203D0300EFC
:101320002B6E33D0010E266203D0310E2B6E2DD0E2
:10133000020E266203D0320E2B6E27D0030E2662D9
:1013400003D0330E2B6E21D0040E266203D0340E50
:101350002B6E1BD0050E266203D0350E2B6E15D0DA
:10136000060E266203D0360E2B6E0FD0070E2662B5
:1013700003D0370E2B6E09D0080E266203D0380E2C
:101380002B6E03D0390E2B6E00D02B502D6201D066
:101390001BD08F0E1CEC03F0070EDCEC02F0C1EC4E
:1013A0000AF08C0E1CEC03F0200EDCEC02F0200E98
:1013B000DCEC02F0200EDCEC02F08F0E1CEC03F0F3
:1013C000200EDCEC02F031D78F0E1CEC03F0050E82
:1013D000DCEC02F0C1EC0AF0880E1CEC03F0200EED
:1013E000DCEC02F0200EDCEC02F0200EDCEC02F073
:1013F000200EDCEC02F0200EDCEC02F0200EDCEC27
:1014000002F0200EDCEC02F0200EDCEC02F0120008
:10141000FF0E2F6E10EC0AF00DD037EC0AF031D031
:10142000F00E966E538D0F0E846EFF0E2F6E55ECE0
:101430000AF01200010E27260A0E276204D000D0FF
:10144000010E276E00D084A803D0000E1B6EE5D7D6
:1014500084AA03D0010E1B6EE0D784AC03D0020E29
:101460001B6EDBD784AEE6D7030E1B6ED6D70F0EEE
:10147000966E538DF00E846EFF0E2F6E55EC0AF0B3
:10148000120084A003D0040E1C6E12D084A203D0DC
:10149000050E1C6E0DD084A403D0060E1C6E08D061
:1014A00084A6C8D7070E1C6E03D02F2EFED71200BD
:1014B000000E1B621AD001D01200040E1C6205D06F
:1014C000010E246E310E256E1200050E1C6205D031
:1014D000020E246E320E256E1200060E1C6204D01F
:1014E000030E246E330E256E1200010E1B621AD0FD
:1014F00000D0040E1C6205D0040E246E340E256E3E
:101500001200050E1C6205D0050E246E350E256EE8
:101510001200060E1C6205D0060E246E360E256ED5
:1015200012001200020E1B621AD000D0040E1C62C0
:1015300005D0070E246E370E256E1200050E1C62B4
:1015400005D0080E246E380E256E1200060E1C62A1
:1015500005D0090E246E390E256E1200120000D03F
:10156000040E1C6201D01200050E1C6205D0000E94
:10157000246E300E256E1200060E1C6201D0120081
:101580001200900E1D6E1D2E01D01200900E1E6EC8
:101590001E2E01D0F8D7900E1F6E1F2EFED7F8D743
:1015A0008F0E1CEC03F0000EDCEC02F012008F0E2C
:1015B0001CEC03F0040EDCEC02F012008F0E1CECAD
:1015C00003F0200EDCEC02F01200D0EC0AF0C90EA1
:1015D0001CEC03F0200EDCEC02F0890E1CEC03F096
:1015E000020EDCEC02F00BEC0DF0D7EC0AF0890EE9
:1015F0001CEC03F0200EDCEC02F0C90E1CEC03F036
:10160000020EDCEC02F00BEC0DF01200D0EC0AF054
:10161000C90E1CEC03F0200EDCEC02F0880E1CEC72
:1016200003F0020EDCEC02F00BEC0DF0D7EC0AF04C
:10163000880E1CEC03F0200EDCEC02F0C70E1CEC54
:1016400003F0020EDCEC02F00BEC0DF0D0EC0AF033
:10165000C70E1CEC03F0200EDCEC02F0860E1CEC36
:1016600003F0020EDCEC02F00BEC0DF0D7EC0AF00C
:10167000860E1CEC03F0200EDCEC02F0C50E1CEC18
:1016800003F0020EDCEC02F00BEC0DF0D0EC0AF0F3
:10169000C50E1CEC03F0200EDCEC02F0860E1CECF8
:1016A00003F0020EDCEC02F00BEC0DF0D7EC0AF0CC
:1016B000860E1CEC03F0200EDCEC02F0C70E1CECD6
:1016C00003F0020EDCEC02F00BEC0DF0D0EC0AF0B3
:1016D000C70E1CEC03F0200EDCEC02F0880E1CECB4
:1016E00003F0020EDCEC02F00BEC0DF0D7EC0AF08C
:1016F000880E1CEC03F0200EDCEC02F0C90E1CEC92
:1017000003F0020EDCEC02F00BEC0DF0D0EC0AF072
:10171000C90E1CEC03F0200EDCEC02F08A0E1CEC6F
:1017200003F0020EDCEC02F00BEC0DF0D7EC0AF04B
:101730008A0E1CEC03F0200EDCEC02F0CB0E1CEC4D
:1017400003F0020EDCEC02F00BEC0DF0D0EC0AF032
:10175000CB0E1CEC03F0200EDCEC02F08C0E1CEC2B
:1017600003F0020EDCEC02F00BEC0DF0D7EC0AF00B
:101770008C0E1CEC03F0200EDCEC02F0CD0E1CEC09
:1017800003F0020EDCEC02F00BEC0DF0D0EC0AF0F2
:10179000CD0E1CEC03F0200EDCEC02F08C0E1CECE9
:1017A00003F0020EDCEC02F00BEC0DF0D7EC0AF0CB
:1017B0008C0E1CEC03F0200EDCEC02F0CB0E1CECCB
:1017C00003F0020EDCEC02F00BEC0DF0D0EC0AF0B2
:1017D000CB0E1CEC03F0200EDCEC02F08A0E1CECAD
:1017E00003F0020EDCEC02F00BEC0DF0D7EC0AF08B
:1017F0008A0E1CEC03F0200EDCEC02F0C90E1CEC8F
:1018000003F0020EDCEC02F00BEC0DF012000A0EFD
:10181000156ED0EC0AF0CA0E1CEC03F0CD0EDCEC19
:1018200002F0C80E1CEC03F0CD0EDCEC02F00BEC69
:101830000DF0D7EC0AF0CA0E1CEC03F0200EDCEC25
:1018400002F0C80E1CEC03F0200EDCEC02F08A0E55
:101850001CEC03F02E0EDCEC02F0880E1CEC03F006
:101860002E0EDCEC02F00BEC0DF08A0E1CEC03F0FB
:10187000200EDCEC02F0880E1CEC03F0200EDCECF9
:1018800002F0152EC6D7D0EC0AF0CA0E1CEC03F0FD
:10189000CD0EDCEC02F0C80E1CEC03F0CD0EDCEC3F
:1018A00002F00BEC0DF0D7EC0AF0CA0E1CEC03F0C2
:1018B000200EDCEC02F0C80E1CEC03F0200EDCEC79
:1018C00002F00BEC0DF012000E6EA7EC07F008EC26
:1018D00008F00A0E126E040E136E020E146E000E45
:1018E0000E6201D008D0010E0E6201D01FD0020E90
:1018F0000E6264D042D0D0EC0AF00BEC0DF0D7ECC5
:101900000AF00BEC0DF0E5EC0AF0122EF4D7D0EC57
:101910000AF00BEC0DF0D7EC0AF00BEC0DF0DEEC5E
:101920000AF023EC06F0A2EC04F01200D0EC0AF06E
:101930000BEC0DF0D7EC0AF00BEC0DF0E5EC0AF037
:10194000132EF4D7D0EC0AF00BEC0DF0D7EC0AF024
:101950000BEC0DF006EC0BF0142EFCD7D0EC0AF0DB
:101960000BEC0DF0D7EC0AF00BEC0DF0DEEC0AF00E
:1019700023EC06F0A2EC04F01200D0EC0AF00BEC21
:101980000DF0D7EC0AF00BEC0DF007EC0CF006ECC8
:101990000BF007EC0CF006EC0BF007EC0CF0D0ECC5
:1019A0000AF00BEC0DF0D7EC0AF00BEC0DF0DEECCE
:1019B0000AF023EC06F0A2EC04F01200D0EC0AF0DE
:1019C0000BEC0DF0D7EC0AF00BEC0DF0E5EC0AF0A7
:1019D000E5EC0AF007EC0CF0E5EC0AF0E5EC0AF0B7
:1019E00006EC0BF0E5EC0AF0E5EC0AF007EC0CF085
:1019F000E5EC0AF0E5EC0AF0D0EC0AF00BEC0DF0A7
:101A0000D7EC0AF00BEC0DF0DEEC0AF023EC06F05C
:101A1000A2EC04F01200700E0F6E0F2E01D0120017
:101A2000700E106E102E01D0F8D7600E116E112EB0
:041A3000FED7F8D70E
:0C1A3400000E416E1200000EF86E000E55
:101A4000F76ED60EF66E0D0E3E6E0900F550DCEC0C
:101A500002F03E2EFAD71200000EF86E000EF76E5E
:101A6000E40EF66E0D0E3F6E0900F550DCEC02F050
:101A70003F2EFAD71200000EF86E000EF76EF20E2F
:101A8000F66E0D0E406E0900F550DCEC02F0402EB3
:101A9000FAD71200396E010E4126850E1CEC03F0B8
:101AA000270EDCEC02F0E2EC0EF0850E1CEC03F0ED
:101AB0002C0EDCEC02F0E2EC0EF0850E1CEC03F0D8
:101AC000200EDCEC02F0C50E1CEC03F0270EDCEC63
:101AD00002F0E2EC0EF0C50E1CEC03F02C0EDCEC78
:101AE00002F0E2EC0EF0C90E1CEC03F0200EDCEC70
:101AF00002F0C80E1CEC03F0020EDCEC02F0E2EC8B
:101B00000EF0C80E1CEC03F0200EDCEC02F0C70E49
:101B10001CEC03F0020EDCEC02F0E2EC0EF0C70E5F
:101B20001CEC03F0200EDCEC02F0C60E1CEC03F003
:101B3000020EDCEC02F0E2EC0EF0C60E1CEC03F040
:101B4000200EDCEC02F0C50E1CEC03F0020EDCEC07
:101B500002F0E2EC0EF0C50E1CEC03F0200EDCEC03
:101B600002F0020EDCEC02F0E2EC0EF0C60E1CEC11
:101B700003F0200EDCEC02F0020EDCEC02F0E2ECF2
:101B80000EF0C70E1CEC03F0200EDCEC02F0020E8F
:101B9000DCEC02F0E2EC0EF0C80E1CEC03F0200EC0
:101BA000DCEC02F0020EDCEC02F04150020E41626D
:101BB00001D00AD0040E416201D006D0060E416267
:101BC00001D002D039501200010E3926E2EC0EF09D
:101BD000E2EC0EF0E2EC0EF0C90E1CEC03F02A0E63
:101BE000DCEC02F0E2EC0EF0CA0E1CEC03F02A0E64
:101BF000DCEC02F0890E1CEC03F02A0EDCEC02F0A7
:101C0000C80E1CEC03F02A0EDCEC02F0E2EC0EF045
:101C1000CB0E1CEC03F02A0EDCEC02F08A0E1CEC5E
:101C200003F02A0EDCEC02F0880E1CEC03F02A0E06
:101C3000DCEC02F0C70E1CEC03F02A0EDCEC02F028
:101C4000E2EC0EF0CC0E1CEC03F02A0EDCEC02F001
:101C50008B0E1CEC03F02A0EDCEC02F0870E1CEC61
:101C600003F02A0EDCEC02F0C60E1CEC03F02A0E88
:101C7000DCEC02F0E2EC0EF0CD0E1CEC03F02A0ED0
:101C8000DCEC02F08C0E1CEC03F02A0EDCEC02F013
:101C9000860E1CEC03F02A0EDCEC02F0C50E1CECE8
:101CA00003F02A0EDCEC02F0E2EC0EF0CE0E1CEC9F
:101CB00003F02A0EDCEC02F08D0E1CEC03F02A0E71
:101CC000DCEC02F0850E1CEC03F02A0EDCEC02F0DA
:101CD000C40E1CEC03F02A0EDCEC02F0E2EC0EF079
:101CE000CF0E1CEC03F02A0EDCEC02F08E0E1CEC86
:101CF00003F02A0EDCEC02F0840E1CEC03F02A0E3A
:101D0000DCEC02F0C30E1CEC03F02A0EDCEC02F05B
:101D1000E2EC0EF08F0E1CEC03F02A0EDCEC02F06D
:101D2000830E1CEC03F02A0EDCEC02F0050E3D6E77
:101D3000E2EC0EF0830E1CEC03F01DEC0DF0C30E74
:101D40001CEC03F02CEC0DF0E2EC0EF0830E1CEC1E
:101D500003F02CEC0DF0C30E1CEC03F01DEC0DF0A9
:101D60003D2EE6D7830E1CEC03F03BEC0DF0C30ECA
:101D70001CEC03F03BEC0DF0010E396201D004D0F5
:101D8000020E396215D00AD084EC06F0C90E1CECA4
:101D900003F0020EDCEC02F039501200E5EC06F024
:101DA000C90E1CEC03F0020EDCEC02F039501200FC
:101DB00046EC07F0C90E1CEC03F0020EDCEC02F05E
:101DC00039501200900E3A6E3A2E01D01200900E49
:101DD0003B6E3B2E01D0F8D7900E3C6E3C2EFED7CA
:021DE000F8D732
:0E1DE200C90E1CEC03F0200EDCEC02F0020E29
:101DF000DCEC02F094EC10F0CA0E1CEC03F0200EA8
:101E0000DCEC02F0020EDCEC02F094EC10F0CB0EF5
:101E10001CEC03F0200EDCEC02F0020EDCEC02F015
:101E200094EC10F0CC0E1CEC03F0200EDCEC02F075
:101E3000020EDCEC02F094EC10F0CD0E1CEC03F082
:101E4000200EDCEC02F0020EDCEC02F094EC10F060
:101E5000CE0E1CEC03F0200EDCEC02F0020EDCECEB
:101E600002F094EC10F00A0E366E0A0E376E0A0E6F
:101E7000376EC30E1CEC03F0200EDCEC02F0000EFB
:101E8000DCEC02F094EC10F0C40E1CEC03F0200E1D
:101E9000DCEC02F0000EDCEC02F094EC10F0C50E6D
:101EA0001CEC03F0200EDCEC02F0000EDCEC02F087
:101EB00094EC10F0C60E1CEC03F0200EDCEC02F0EB
:101EC000000EDCEC02F094EC10F0C70E1CEC03F0FA
:101ED000200EDCEC02F0000EDCEC02F094EC10F0D2
:101EE000C80E1CEC03F0200EDCEC02F0000EDCEC63
:101EF00002F094EC10F0C90E1CEC03F0200EDCECA8
:101F000002F0000EDCEC02F094EC10F0CA0E1CECB7
:101F100003F0200EDCEC02F0000EDCEC02F094EC9E
:101F200010F0CB0E1CEC03F0200EDCEC02F0000EE7
:101F3000DCEC02F094EC10F0CC0E1CEC03F0200E64
:101F4000DCEC02F0000EDCEC02F094EC10F0CD0EB4
:101F50001CEC03F0200EDCEC02F0000EDCEC02F0D6
:101F600094EC10F0AFD0CF0E1CEC03F0200EDCECA4
:101F700002F08F0E1CEC03F0020EDCEC02F036C017
:101F800033F0362E01D00AD037C034F0342E01D0D1
:101F9000F8D738C035F0352EFED7F8D7CE0E1CEC6A
:101FA00003F0200EDCEC02F0000EDCEC02F094EC0E
:101FB00010F094EC10F094EC10F0CF0E1CEC03F049
:101FC000200EDCEC02F08F0E1CEC03F0200EDCEC9B
:101FD00002F0CF0E1CEC03F0020EDCEC02F043D753
:101FE000CE0E1CEC03F0200EDCEC02F0000EDCEC5C
:101FF00002F094EC10F0CF0E1CEC03F0200EDCECA1
:1020000002F094EC10F094EC10F0CF0E1CEC03F006
:10201000020EDCEC02F094EC10F0CF0E1CEC03F09E
:10202000200EDCEC02F0CE0E1CEC03F0020EDCEC19
:1020300002F094EC10F0CE0E1CEC03F0200EDCEC61
:1020400002F0CD0E1CEC03F0020EDCEC02F094EC7E
:1020500010F0CD0E1CEC03F0200EDCEC02F0CC0EE8
:102060001CEC03F0020EDCEC02F094EC10F0CC0E51
:102070001CEC03F0200EDCEC02F0CB0E1CEC03F0A9
:10208000020EDCEC02F094EC10F0CB0E1CEC03F032
:10209000200EDCEC02F0CA0E1CEC03F0020EDCECAD
:1020A00002F094EC10F0CA0E1CEC03F0200EDCECF5
:1020B00002F0C90E1CEC03F0020EDCEC02F094EC12
:1020C00010F0120065EC10F00AD0F00E966E538DF1
:1020D0000F0E846EFF0E206E91EC10F01200300E89
:1020E000336E332E01D07CD7010E365E300E346E47
:1020F000342E01D0F6D7010E375E300E356E010E4C
:10210000385E03D0352EFBD7F3D784A801D02BD768
:1021100084AA01D028D784AC01D025D784AEF2D7C9
:1021200022D7202EFED71200900E306E302E01D016
:102130001200900E316E312E01D0F8D7900E326E13
:06214000322EFED7F8D795
:0A21460015EC03F0000EF86E220EF7
:10215000F76E880EF66E100E196E0900F550DCEC65
:1021600002F0192EFAD7120015EC03F0000EF86EEB
:10217000220EF76E980EF66E0F0E196E0900F550CE
:10218000DCEC02F0192EFAD7120015EC03F0010E68
:10219000DCEC02F0010EDCEC02F0010EDCEC02F0F3
:1021A000C00E1CEC03F0050EDCEC02F0030EDCECC0
:1021B00002F0C90E1CEC03F0000EDCEC02F0120081
:1021C000050E1A6EC80E1CEC03F0B20EDCEC02F029
:1021D000CA0E1CEC03F0B20EDCEC02F035EC11F090
:1021E000C80E1CEC03F0200EDCEC02F0CA0E1CEC56
:1021F00003F0200EDCEC02F035EC11F01A2EE2D7E1
:10220000050E1A6EC90E1CEC03F0000EDCEC02F099
:1022100035EC11F0C90E1CEC03F0200EDCEC02F0E2
:1022200035EC11F01A2EEED7C90E1CEC03F0020E9D
:10223000DCEC02F0C80E1CEC03F0280EDCEC02F023
:10224000CA0E1CEC03F0290EDCEC02F035EC11F0A8
:10225000C80E1CEC03F0200EDCEC02F0CA0E1CECE5
:1022600003F0200EDCEC02F01200900E166E162E1B
:1022700001D01200900E176E172E01D0F8D7900ED5
:08228000186E182EFED7F8D7E6
:08228800505245535320412040
:10229000544F205354415254202048454154205417
:0822A0004F204841544348005F
:020000040030CA
:0100000015EA
:0100010013EB
:010002007F7E
:010003007F7D
:01000400F902
:010005008B6F
:010006009168
:01000800FFF8
:01000900C036
:01000A00FFF6
:01000B00E014
:01000C00FFF4
:01000D0040B2
:00000001FF
