:020000040000FA
:0400000080EF00F09D
:020004000000FA
:0A000600050E426EC10EDBEC02F0A5
:10001000040E9BEC02F08A0EDBEC02F05A0E9BEC15
:1000200002F038EC00F05A0E9BEC02F038EC00F0D5
:100030005A0E9BEC02F038EC00F08A0EDBEC02F07A
:10004000200E9BEC02F038EC00F0200E9BEC02F04E
:1000500038EC00F0200E9BEC02F038EC00F0422E61
:10006000DAD7C10EDBEC02F0030E9BEC02F01200BB
:10007000900E436E432E01D01200900E446E442E1B
:0E00800001D0F8D7900E456E452EFED7F8D76A
:02008E002A2026
:100090002A202A202A202A202A202A00202A202A30
:1000A000202A202A202A202A200020202020202048
:0800B000202020202020200068
:0800B800505245535320412032
:0800C000544F2048415443480D
:100100007F9C7F8E5DEC02F0F0EC00F0D9EC0CF0FF
:100110008AEF00F000000000000060EC10F0FF0E1D
:10012000066E000E826FF6EC00F0826F410E826365
:10013000F6D771EC10F04EEC02F08CEC10F0FE0EE5
:10014000066EFE0E076E010E086EF40E056E030EAF
:100150000A6E000E096EA1EC03F0E2EC05F0000E51
:10016000826FF6EC00F0826F410E826301D0F7D708
:10017000420E826308D00950B0EC0EF0F40E056E0A
:10018000AEEC01F0ECD7430E826308D0095003ECCB
:1001900000F0F40E056EAEEC01F0E1D7440E826380
:1001A00008D0095023EC0CF0F40E056EAEEC01F013
:1001B000D6D7450E826308D0095028EC08F0F40E1B
:1001C000056EAEEC01F0CBD7460E8263C8D709505E
:1001D00009EC0DF0096EF40E056EAEEC01F0BFD720
:1001E0008D6AFF0E206E38EC01F01200FCEC00F07E
:1001F0000DD01AEC01F028D0F00E966E538D0F0E34
:10020000846EFF0E206E38EC01F0120084A803D03B
:10021000000E806FEED784AA03D0010E806FE9D75D
:1002200084AC03D0020E806FE4D784AE76D0030E88
:10023000806FDFD70F0E966E538DF00E846EFF0E1B
:10024000206E38EC01F0120084A003D0040E816F00
:1002500012D084A203D0050E816F0DD084A403D0E8
:10026000060E816F08D084A6D1D7070E816F03D008
:10027000202EFED71200000E806313D001D0120092
:10028000040E816302D0310E1200050E816302D08C
:10029000320E1200060E816302D0330E1200460E9B
:1002A0001200010E806312D000D0040E816302D0D0
:1002B000340E1200050E816302D0350E1200060EB8
:1002C000816302D0360E1200450E1200020E8063CA
:1002D00012D000D0040E816302D0370E1200050E3A
:1002E000816302D0380E1200060E816302D0390EEF
:1002F0001200440E120000D0040E816302D0410EA1
:100300001200050E816302D0300E1200060E8163CA
:1003100002D0420E1200430E1200FF0E066201D000
:1003200075D7062E73D7072E01D003D0FE0E066EAA
:100330006DD7082E01D003D0FE0E076E67D7010ED1
:10034000055EAEEC01F0000E0564CDEC01F0FE0E92
:10035000066EFE0E076E010E086E58D7C00EDBEC5F
:1003600002F0960E056004D0320E056008D00ED063
:10037000C00EDBEC02F0050E9BEC02F01200C00E8A
:10038000DBEC02F0060E9BEC02F01200C00EDBEC80
:1003900002F0070E9BEC02F01200010E0A5E020E44
:1003A0000A6201D004D0010E0A621FD00FD0820E63
:1003B000DBEC02F0200E9BEC02F0F40E056EC00E9A
:1003C000DBEC02F0050E9BEC02F01200810EDBEC80
:1003D00002F0200E9BEC02F0F40E056EC00EDBEC7A
:1003E00002F0050E9BEC02F01200D4EC02F0C90EF4
:1003F000DBEC02F0000E9BEC02F04EEC02F04EEC57
:1004000002F04EEC02F04EEC02F0C90EDBEC02F012
:10041000200E9BEC02F0000E9BEC02F04EEC02F082
:10042000CA0EDBEC02F0200E9BEC02F0000E9BECFF
:1004300002F04EEC02F0CB0EDBEC02F0200E9BEC57
:1004400002F0000E9BEC02F04EEC02F0CC0EDBEC66
:1004500002F0200E9BEC02F0000E9BEC02F04EEC42
:1004600002F0CD0EDBEC02F0200E9BEC02F0000E51
:100470009BEC02F04EEC02F0CE0EDBEC02F0200E14
:100480009BEC02F0000E9BEC02F04EEC02F0CF0E63
:10049000DBEC02F0200E9BEC02F032D6FF0E0B6E6E
:1004A0000B2E01D01200FF0E0C6E0C2E01D0F8D7CF
:0A04B000FF0E0D6E0D2EFED7F8D7DB
:0604BA008A6AC00E936E79
:1004C000280EBEEC02F0300E8DEC02F00A0EC5ECE8
:1004D00002F0280E8DEC02F00A0EC5EC02F0280E98
:1004E0008DEC02F00A0EC5EC02F00C0E8DEC02F061
:1004F0000A0EC5EC02F0D4EC02F0060E8DEC02F010
:100500000A0EC5EC02F0E1EC02F01200046EEE50AF
:100510009BEC02F0042EFBD71200036E03380F0B86
:100520008A6E8A98ACEC02F003500F0B8A6E8A98A0
:10053000ACEC02F01200036E03380F0B8A6E8A884F
:10054000ACEC02F003500F0B8A6E8A88ACEC02F020
:100550000A0EC5EC02F012000000000000000000CE
:1005600000000000000000008A8A00000000000077
:1005700000000000000000008A9A1200026EFA0ECD
:10058000C5EC02F0022EFBD71200006E003A0F0EEF
:100590000014016EF00E0016CFEC02F01200000EF7
:1005A0000006015AFDE21200010E8DEC02F0020E6F
:1005B000BEEC02F012008DEC02F00A0EC5EC02F067
:1005C0001200400E8DEC02F00A0EC5EC02F0000E97
:1005D0009BEC02F00A0EC5EC02F0410E8DEC02F02D
:1005E0000A0EC5EC02F0040E9BEC02F00A0EC5ECFC
:1005F00002F0420E8DEC02F00A0EC5EC02F00A0E7B
:100600009BEC02F00A0EC5EC02F0430E8DEC02F0FA
:100610000A0EC5EC02F0150E9BEC02F00A0EC5ECBA
:1006200002F0440E8DEC02F00A0EC5EC02F01B0E37
:100630009BEC02F00A0EC5EC02F0450E8DEC02F0C8
:100640000A0EC5EC02F0150E9BEC02F00A0EC5EC8A
:1006500002F0460E8DEC02F00A0EC5EC02F01B0E05
:100660009BEC02F00A0EC5EC02F0470E8DEC02F096
:100670000A0EC5EC02F00E0E9BEC02F00A0EC5EC61
:1006800002F0480E8DEC02F00A0EC5EC02F0000EEE
:100690009BEC02F00A0EC5EC02F0490E8DEC02F064
:1006A0000A0EC5EC02F00A0E9BEC02F00A0EC5EC35
:1006B00002F04A0E8DEC02F00A0EC5EC02F0150EA7
:1006C0009BEC02F00A0EC5EC02F04B0E8DEC02F032
:1006D0000A0EC5EC02F0110E9BEC02F00A0EC5ECFE
:1006E00002F04C0E8DEC02F00A0EC5EC02F0110E79
:1006F0009BEC02F00A0EC5EC02F04D0E8DEC02F000
:100700000A0EC5EC02F00A0E9BEC02F00A0EC5ECD4
:1007100002F04E0E8DEC02F00A0EC5EC02F0040E53
:100720009BEC02F00A0EC5EC02F04F0E8DEC02F0CD
:100730000A0EC5EC02F0000E9BEC02F00A0EC5ECAE
:1007400002F0500E8DEC02F00A0EC5EC02F0000E25
:100750009BEC02F00A0EC5EC02F0510E8DEC02F09B
:100760000A0EC5EC02F0000E9BEC02F00A0EC5EC7E
:1007700002F0520E8DEC02F00A0EC5EC02F0000EF3
:100780009BEC02F00A0EC5EC02F0530E8DEC02F069
:100790000A0EC5EC02F0000E9BEC02F00A0EC5EC4E
:1007A00002F0540E8DEC02F00A0EC5EC02F0000EC1
:1007B0009BEC02F00A0EC5EC02F0550E8DEC02F037
:1007C0000A0EC5EC02F0000E9BEC02F00A0EC5EC1E
:1007D00002F0560E8DEC02F00A0EC5EC02F00C0E83
:1007E0009BEC02F00A0EC5EC02F0570E8DEC02F005
:1007F0000A0EC5EC02F00C0E9BEC02F00A0EC5ECE2
:1008000002F0580E8DEC02F00A0EC5EC02F0000E5C
:100810009BEC02F00A0EC5EC02F0590E8DEC02F0D2
:100820000A0EC5EC02F0150E9BEC02F00A0EC5ECA8
:1008300002F05A0E8DEC02F00A0EC5EC02F00E0E1C
:100840009BEC02F00A0EC5EC02F05B0E8DEC02F0A0
:100850000A0EC5EC02F01F0E9BEC02F00A0EC5EC6E
:1008600002F05C0E8DEC02F00A0EC5EC02F00E0EEA
:100870009BEC02F00A0EC5EC02F05D0E8DEC02F06E
:100880000A0EC5EC02F0150E9BEC02F00A0EC5EC48
:1008900002F05E0E8DEC02F00A0EC5EC02F0000EC6
:1008A0009BEC02F00A0EC5EC02F05F0E8DEC02F03C
:1008B0000A0EC5EC02F0000E9BEC02F00A0EC5EC2D
:1008C00002F0600E8DEC02F00A0EC5EC02F0000E94
:1008D0009BEC02F00A0EC5EC02F0610E8DEC02F00A
:1008E0000A0EC5EC02F00F0E9BEC02F00A0EC5ECEE
:1008F00002F0620E8DEC02F00A0EC5EC02F01C0E46
:100900009BEC02F00A0EC5EC02F0630E8DEC02F0D7
:100910000A0EC5EC02F0180E9BEC02F00A0EC5ECB4
:1009200002F0640E8DEC02F00A0EC5EC02F0180E17
:100930009BEC02F00A0EC5EC02F0650E8DEC02F0A5
:100940000A0EC5EC02F01C0E9BEC02F00A0EC5EC80
:1009500002F0660E8DEC02F00A0EC5EC02F00F0EEE
:100960009BEC02F00A0EC5EC02F0670E8DEC02F073
:100970000A0EC5EC02F0000E9BEC02F00A0EC5EC6C
:1009800002F0680E8DEC02F00A0EC5EC02F0000ECB
:100990009BEC02F00A0EC5EC02F0690E8DEC02F041
:1009A0000A0EC5EC02F0000E9BEC02F00A0EC5EC3C
:1009B00002F06A0E8DEC02F00A0EC5EC02F00A0E8F
:1009C0009BEC02F00A0EC5EC02F06B0E8DEC02F00F
:1009D0000A0EC5EC02F0000E9BEC02F00A0EC5EC0C
:1009E00002F06C0E8DEC02F00A0EC5EC02F0000E67
:1009F0009BEC02F00A0EC5EC02F06D0E8DEC02F0DD
:100A00000A0EC5EC02F00A0E9BEC02F00A0EC5ECD1
:100A100002F06E0E8DEC02F00A0EC5EC02F00E0E26
:100A20009BEC02F00A0EC5EC02F06F0E8DEC02F0AA
:100A30000A0EC5EC02F0000E9BEC02F00A0EC5ECAB
:100A400002F0700E8DEC02F00A0EC5EC02F0000E02
:100A50009BEC02F00A0EC5EC02F0710E8DEC02F078
:100A60000A0EC5EC02F0000E9BEC02F00A0EC5EC7B
:100A700002F0720E8DEC02F00A0EC5EC02F00A0EC6
:100A80009BEC02F00A0EC5EC02F0730E8DEC02F046
:100A90000A0EC5EC02F0000E9BEC02F00A0EC5EC4B
:100AA00002F0740E8DEC02F00A0EC5EC02F0000E9E
:100AB0009BEC02F00A0EC5EC02F0750E8DEC02F014
:100AC0000A0EC5EC02F00E0E9BEC02F00A0EC5EC0D
:100AD00002F0760E8DEC02F00A0EC5EC02F0000E6C
:100AE0009BEC02F00A0EC5EC02F0770E8DEC02F0E2
:100AF0000A0EC5EC02F0000E9BEC02F00A0EC5ECEB
:100B000002F0780E8DEC02F00A0EC5EC02F0000E39
:100B10009BEC02F00A0EC5EC02F0790E8DEC02F0AF
:100B20000A0EC5EC02F0000E9BEC02F00A0EC5ECBA
:100B300002F07A0E8DEC02F00A0EC5EC02F00A0EFD
:100B40009BEC02F00A0EC5EC02F07B0E8DEC02F07D
:100B50000A0EC5EC02F0000E9BEC02F00A0EC5EC8A
:100B600002F07C0E8DEC02F00A0EC5EC02F0000ED5
:100B70009BEC02F00A0EC5EC02F07D0E8DEC02F04B
:100B80000A0EC5EC02F00E0E9BEC02F00A0EC5EC4C
:100B900002F07E0E8DEC02F00A0EC5EC02F00A0E99
:100BA0009BEC02F00A0EC5EC02F07F0E8DEC02F019
:100BB0000A0EC5EC02F0000E9BEC02F00A0EC5EC2A
:100BC00002F01200400E8DEC02F00A0EC5EC02F0AD
:100BD0000E0E9BEC02F00A0EC5EC02F0410E8DECFD
:100BE00002F00A0EC5EC02F01F0E9BEC02F00A0E9A
:100BF000C5EC02F0420E8DEC02F00A0EC5EC02F0DC
:100C0000150E9BEC02F00A0EC5EC02F0430E8DECC3
:100C100002F00A0EC5EC02F01F0E9BEC02F00A0E69
:100C2000C5EC02F0440E8DEC02F00A0EC5EC02F0A9
:100C30001F0E9BEC02F00A0EC5EC02F0450E8DEC87
:100C400002F00A0EC5EC02F01F0E9BEC02F00A0E39
:100C5000C5EC02F0460E8DEC02F00A0EC5EC02F077
:100C6000150E9BEC02F00A0EC5EC02F0470E8DEC5F
:100C700002F00A0EC5EC02F0000E9BEC02F00A0E28
:100C8000C5EC02F01200500E8DEC02F00A0EC5EC1D
:100C900002F0000E9BEC02F00A0EC5EC02F0510EC1
:100CA0008DEC02F00A0EC5EC02F0000E9BEC02F097
:100CB0000A0EC5EC02F0520E8DEC02F00A0EC5ECE5
:100CC00002F0000E9BEC02F00A0EC5EC02F0530E8F
:100CD0008DEC02F00A0EC5EC02F00A0E9BEC02F05D
:100CE0000A0EC5EC02F0540E8DEC02F00A0EC5ECB3
:100CF00002F00A0E9BEC02F00A0EC5EC02F0550E53
:100D00008DEC02F00A0EC5EC02F00E0E9BEC02F028
:100D10000A0EC5EC02F0560E8DEC02F00A0EC5EC80
:100D200002F00E0E9BEC02F00A0EC5EC02F0570E1C
:100D30008DEC02F00A0EC5EC02F00E0E9BEC02F0F8
:100D40000A0EC5EC02F01200500E8DEC02F00A0EF5
:100D5000C5EC02F0000E9BEC02F00A0EC5EC02F0AE
:100D6000510E8DEC02F00A0EC5EC02F00A0E9BEC5F
:100D700002F00A0EC5EC02F0520E8DEC02F00A0EE3
:100D8000C5EC02F00A0E9BEC02F00A0EC5EC02F074
:100D9000530E8DEC02F00A0EC5EC02F01F0E9BEC18
:100DA00002F00A0EC5EC02F0540E8DEC02F00A0EB1
:100DB000C5EC02F0150E9BEC02F00A0EC5EC02F039
:100DC000550E8DEC02F00A0EC5EC02F01B0E9BECEA
:100DD00002F00A0EC5EC02F0560E8DEC02F00A0E7F
:100DE000C5EC02F01F0E9BEC02F00A0EC5EC02F0FF
:100DF000570E8DEC02F00A0EC5EC02F00E0E9BECC5
:100E000002F00A0EC5EC02F01200500E8DEC02F05A
:100E10000A0EC5EC02F01B0E9BEC02F00A0EC5ECAC
:100E200002F0510E8DEC02F00A0EC5EC02F00A0E33
:100E30009BEC02F00A0EC5EC02F0520E8DEC02F0B3
:100E40000A0EC5EC02F01F0E9BEC02F00A0EC5EC78
:100E500002F0530E8DEC02F00A0EC5EC02F0150EF6
:100E60009BEC02F00A0EC5EC02F0540E8DEC02F081
:100E70000A0EC5EC02F01B0E9BEC02F00A0EC5EC4C
:100E800002F0550E8DEC02F00A0EC5EC02F01F0EBA
:100E90009BEC02F00A0EC5EC02F0560E8DEC02F04F
:100EA0000A0EC5EC02F00E0E9BEC02F00A0EC5EC29
:100EB00002F0570E8DEC02F00A0EC5EC02F01F0E88
:100EC0009BEC02F00A0EC5EC02F01200400E8DEC15
:100ED00002F00A0EC5EC02F0040E9BEC02F00A0EC2
:100EE000C5EC02F0410E8DEC02F00A0EC5EC02F0EA
:100EF000040E9BEC02F00A0EC5EC02F0420E8DECE3
:100F000002F00A0EC5EC02F00E0E9BEC02F00A0E87
:100F1000C5EC02F0430E8DEC02F00A0EC5EC02F0B7
:100F2000150E9BEC02F00A0EC5EC02F0440E8DEC9F
:100F300002F00A0EC5EC02F01B0E9BEC02F00A0E4A
:100F4000C5EC02F0450E8DEC02F00A0EC5EC02F085
:100F5000150E9BEC02F00A0EC5EC02F0460E8DEC6D
:100F600002F00A0EC5EC02F00E0E9BEC02F00A0E27
:100F7000C5EC02F0470E8DEC02F00A0EC5EC02F053
:100F8000000E9BEC02F00A0EC5EC02F01200600E9F
:100F90008DEC02F00A0EC5EC02F0040E9BEC02F0A0
:100FA0000A0EC5EC02F0610E8DEC02F00A0EC5ECE3
:100FB00002F0040E9BEC02F00A0EC5EC02F0620E89
:100FC0008DEC02F00A0EC5EC02F00E0E9BEC02F066
:100FD0000A0EC5EC02F0630E8DEC02F00A0EC5ECB1
:100FE00002F01B0E9BEC02F00A0EC5EC02F0640E40
:100FF0008DEC02F00A0EC5EC02F0150E9BEC02F02F
:101000000A0EC5EC02F0650E8DEC02F00A0EC5EC7E
:1010100002F01B0E9BEC02F00A0EC5EC02F0660E0D
:101020008DEC02F00A0EC5EC02F00E0E9BEC02F005
:101030000A0EC5EC02F0670E8DEC02F00A0EC5EC4C
:1010400002F0000E9BEC02F00A0EC5EC02F012005A
:10105000880EDBEC02F03F0E9BEC02F02B0E9BECBB
:1010600002F03F0E9BEC02F03D0E9BEC02F03F0EB7
:101070009BEC02F0000E266E000E206E000E216E1C
:10108000200E226E200E236E010E276E200E2C6E77
:10109000C7EC09F027C020F080EC0AF0C7EC09F09B
:1010A00027C021F0000E206203D0300E226E33D014
:1010B000010E206203D0310E226E2DD0020E20626E
:1010C00003D0320E226E27D0030E206203D0330EDF
:1010D000226E21D0040E206203D0340E226E1BD06B
:1010E000050E206203D0350E226E15D0060E20624A
:1010F00003D0360E226E0FD0070E206203D0370EBB
:10110000226E09D0080E206203D0380E226E03D062
:10111000390E226E00D0000E216203D0300E236EF5
:1011200033D0010E216203D0310E236E2DD0020E7A
:10113000216203D0320E236E27D0030E216203D02A
:10114000330E236E21D0040E216203D0340E236EA1
:101150001BD0050E216203D0350E236E15D0060E6E
:10116000216203D0360E236E0FD0070E216203D00A
:10117000370E236E09D0080E216203D0380E236E7D
:1011800003D0390E236E00D0880EDBEC02F0225023
:101190009BEC02F08A0EDBEC02F023509BEC02F099
:1011A0002050262621502626090E266466D000D01F
:1011B00080EC0AF080EC0AF0C7EC09F025C02DF0B5
:1011C0008C0EDBEC02F02D509BEC02F080EC0AF070
:1011D000C7EC09F025C02EF080EC0AF02E509BECF5
:1011E00002F00A0E266205D0310E2B6E300E2C6EE8
:1011F0003DD00B0E266205D0310E2B6E310E2C6EBB
:1012000035D00C0E266205D0310E2B6E320E2C6EB0
:101210002DD00D0E266205D0310E2B6E330E2C6EA6
:1012200025D00E0E266205D0310E2B6E340E2C6E9C
:101230001DD00F0E266205D0310E2B6E350E2C6E92
:1012400015D0100E266205D0310E2B6E360E2C6E88
:101250000DD0110E266205D0310E2B6E370E2C6E7E
:1012600005D0310E2B6E380E2C6E00D02B502D6217
:101270004FD02C502E624CD066D080EC0AF080EC1F
:101280000AF0C7EC09F025C02DF08C0EDBEC02F063
:101290002D509BEC02F0000E266203D0300E2B6E18
:1012A00033D0010E266203D0310E2B6E2DD0020EEC
:1012B000266203D0320E2B6E27D0030E266203D097
:1012C000330E2B6E21D0040E266203D0340E2B6E0B
:1012D0001BD0050E266203D0350E2B6E15D0060EE0
:1012E000266203D0360E2B6E0FD0070E266203D077
:1012F000370E2B6E09D0080E266203D0380E2B6EE7
:1013000003D0390E2B6E00D02B502D6201D01BD094
:101310008F0EDBEC02F0070E9BEC02F080EC0AF083
:101320008C0EDBEC02F0200E9BEC02F0200E9BEC0E
:1013300002F0200E9BEC02F08F0EDBEC02F0200E90
:101340009BEC02F031D78F0EDBEC02F0050E9BEC2C
:1013500002F080EC0AF0880EDBEC02F0200E9BEC31
:1013600002F0200E9BEC02F0200E9BEC02F0200E0F
:101370009BEC02F0200E9BEC02F0200E9BEC02F0A6
:10138000200E9BEC02F0200E9BEC02F01200FF0EF0
:101390002F6ECFEC09F00DD0F6EC09F031D0F00E45
:1013A000966E538D0F0E846EFF0E2F6E14EC0AF0A6
:1013B0001200010E27260A0E276204D000D0010E6B
:1013C000276E00D084A803D0000E1B6EE5D784AA38
:1013D00003D0010E1B6EE0D784AC03D0020E1B6E4F
:1013E000DBD784AEE6D7030E1B6ED6D70F0E966EF4
:1013F000538DF00E846EFF0E2F6E14EC0AF0120067
:1014000084A003D0040E1C6E12D084A203D0050E5B
:101410001C6E0DD084A403D0060E1C6E08D084A6CA
:10142000C8D7070E1C6E03D02F2EFED71200000E59
:101430001B621AD001D01200040E1C6205D0010EEE
:10144000246E310E256E1200050E1C6205D0020EB0
:10145000246E320E256E1200060E1C6204D0030E9E
:10146000246E330E256E1200010E1B621AD000D0BE
:10147000040E1C6205D0040E246E340E256E12007C
:10148000050E1C6205D0050E246E350E256E120069
:10149000060E1C6205D0060E246E360E256E120056
:1014A0001200020E1B621AD000D0040E1C6205D07E
:1014B000070E246E370E256E1200050E1C6205D035
:1014C000080E246E380E256E1200060E1C6205D022
:1014D000090E246E390E256E1200120000D0040E83
:1014E0001C6201D01200050E1C6205D0000E246E95
:1014F000300E256E1200060E1C6201D01200120082
:10150000900E1D6E1D2E01D01200900E1E6E1E2E0E
:0E15100001D0F8D7900E1F6E1F2EFED7F8D711
:02151E008F0E2E
:10152000DBEC02F0000E9BEC02F012008F0EDBEC05
:1015300002F0040E9BEC02F012008F0EDBEC02F0C6
:10154000200E9BEC02F012008FEC0AF0C90EDBECCF
:1015500002F0200E9BEC02F0890EDBEC02F0020E92
:101560009BEC02F0CAEC0CF096EC0AF0890EDBEC76
:1015700002F0200E9BEC02F0C90EDBEC02F0020E32
:101580009BEC02F0CAEC0CF012008FEC0AF0C90ED2
:10159000DBEC02F0200E9BEC02F0880EDBEC02F09C
:1015A000020E9BEC02F0CAEC0CF096EC0AF0880EEE
:1015B000DBEC02F0200E9BEC02F0C70EDBEC02F03D
:1015C000020E9BEC02F0CAEC0CF08FEC0AF0C70E96
:1015D000DBEC02F0200E9BEC02F0860EDBEC02F05E
:1015E000020E9BEC02F0CAEC0CF096EC0AF0860EB0
:1015F000DBEC02F0200E9BEC02F0C50EDBEC02F0FF
:10160000020E9BEC02F0CAEC0CF08FEC0AF0C50E57
:10161000DBEC02F0200E9BEC02F0860EDBEC02F01D
:10162000020E9BEC02F0CAEC0CF096EC0AF0860E6F
:10163000DBEC02F0200E9BEC02F0C70EDBEC02F0BC
:10164000020E9BEC02F0CAEC0CF08FEC0AF0C70E15
:10165000DBEC02F0200E9BEC02F0880EDBEC02F0DB
:10166000020E9BEC02F0CAEC0CF096EC0AF0880E2D
:10167000DBEC02F0200E9BEC02F0C90EDBEC02F07A
:10168000020E9BEC02F0CAEC0CF08FEC0AF0C90ED3
:10169000DBEC02F0200E9BEC02F08A0EDBEC02F099
:1016A000020E9BEC02F0CAEC0CF096EC0AF08A0EEB
:1016B000DBEC02F0200E9BEC02F0CB0EDBEC02F038
:1016C000020E9BEC02F0CAEC0CF08FEC0AF0CB0E91
:1016D000DBEC02F0200E9BEC02F08C0EDBEC02F057
:1016E000020E9BEC02F0CAEC0CF096EC0AF08C0EA9
:1016F000DBEC02F0200E9BEC02F0CD0EDBEC02F0F6
:10170000020E9BEC02F0CAEC0CF08FEC0AF0CD0E4E
:10171000DBEC02F0200E9BEC02F08C0EDBEC02F016
:10172000020E9BEC02F0CAEC0CF096EC0AF08C0E68
:10173000DBEC02F0200E9BEC02F0CB0EDBEC02F0B7
:10174000020E9BEC02F0CAEC0CF08FEC0AF0CB0E10
:10175000DBEC02F0200E9BEC02F08A0EDBEC02F0D8
:10176000020E9BEC02F0CAEC0CF096EC0AF08A0E2A
:10177000DBEC02F0200E9BEC02F0C90EDBEC02F079
:10178000020E9BEC02F0CAEC0CF012000A0E156E71
:101790008FEC0AF0CA0EDBEC02F0CD0E9BEC02F0EF
:1017A000C80EDBEC02F0CD0E9BEC02F0CAEC0CF0A4
:1017B00096EC0AF0CA0EDBEC02F0200E9BEC02F075
:1017C000C80EDBEC02F0200E9BEC02F08A0EDBEC84
:1017D00002F02E0E9BEC02F0880EDBEC02F02E0ED7
:1017E0009BEC02F0CAEC0CF08A0EDBEC02F0200E4F
:1017F0009BEC02F0880EDBEC02F0200E9BEC02F07A
:10180000152EC6D78FEC0AF0CA0EDBEC02F0CD0E17
:101810009BEC02F0C80EDBEC02F0CD0E9BEC02F06C
:10182000CAEC0CF096EC0AF0CA0EDBEC02F0200ECB
:101830009BEC02F0C80EDBEC02F0200E9BEC02F0F9
:10184000CAEC0CF012000E6E66EC07F0C7EC07F065
:101850000A0E126E040E136E020E146E000E0E624D
:1018600001D008D0010E0E6201D01FD0020E0E6210
:1018700064D042D08FEC0AF0CAEC0CF096EC0AF07F
:10188000CAEC0CF0A4EC0AF0122EF4D78FEC0AF09C
:10189000CAEC0CF096EC0AF0CAEC0CF09DEC0AF0E5
:1018A000E2EC05F061EC04F012008FEC0AF0CAECF7
:1018B0000CF096EC0AF0CAEC0CF0A4EC0AF0132E33
:1018C000F4D78FEC0AF0CAEC0CF096EC0AF0CAECF4
:1018D0000CF0C5EC0AF0142EFCD78FEC0AF0CAEC21
:1018E0000CF096EC0AF0CAEC0CF09DEC0AF0E2EC7D
:1018F00005F061EC04F012008FEC0AF0CAEC0CF079
:1019000096EC0AF0CAEC0CF0C6EC0BF0C5EC0AF051
:10191000C6EC0BF0C5EC0AF0C6EC0BF08FEC0AF04D
:10192000CAEC0CF096EC0AF0CAEC0CF09DEC0AF054
:10193000E2EC05F061EC04F012008FEC0AF0CAEC66
:101940000CF096EC0AF0CAEC0CF0A4EC0AF0A4EC53
:101950000AF0C6EC0BF0A4EC0AF0A4EC0AF0C5EC1B
:101960000AF0A4EC0AF0A4EC0AF0C6EC0BF0A4EC2C
:101970000AF0A4EC0AF08FEC0AF0CAEC0CF096EC3A
:101980000AF0CAEC0CF09DEC0AF0E2EC05F061EC18
:1019900004F01200700E0F6E0F2E01D01200700EA8
:1019A000106E102E01D0F8D7600E116E112EFED7DA
:0219B000F8D766
:0E19B200000E416E1200000EF86E000EF76E71
:1019C0008E0EF66E0D0E3E6E0900F5509BEC02F089
:1019D0003E2EFAD71200000EF86E000EF76E9C0E27
:1019E000F66E0D0E3F6E0900F5509BEC02F03F2E97
:1019F000FAD71200000EF86E000EF76EAA0EF66E01
:101A00000D0E406E0900F5509BEC02F0402EFAD707
:101A10001200396E010E4126850EDBEC02F0270E16
:101A20009BEC02F0A1EC0EF0850EDBEC02F02C0E2C
:101A30009BEC02F0A1EC0EF0850EDBEC02F0200E28
:101A40009BEC02F0C50EDBEC02F0270E9BEC02F0E3
:101A5000A1EC0EF0C50EDBEC02F02C0E9BEC02F0BC
:101A6000A1EC0EF0C90EDBEC02F0200E9BEC02F0B4
:101A7000C80EDBEC02F0020E9BEC02F0A1EC0EF0C3
:101A8000C80EDBEC02F0200E9BEC02F0C70EDBEC84
:101A900002F0020E9BEC02F0A1EC0EF0C70EDBECA4
:101AA00002F0200E9BEC02F0C60EDBEC02F0020E00
:101AB0009BEC02F0A1EC0EF0C60EDBEC02F0200E67
:101AC0009BEC02F0C50EDBEC02F0020E9BEC02F088
:101AD000A1EC0EF0C50EDBEC02F0200E9BEC02F048
:101AE000020E9BEC02F0A1EC0EF0C60EDBEC02F055
:101AF000200E9BEC02F0020E9BEC02F0A1EC0EF02B
:101B0000C70EDBEC02F0200E9BEC02F0020E9BEC09
:101B100002F0A1EC0EF0C80EDBEC02F0200E9BEC04
:101B200002F0020E9BEC02F04150020E416201D025
:101B30000AD0040E416201D006D0060E416201D0E7
:101B400002D039501200010E3926A1EC0EF0A1ECA2
:101B50000EF0A1EC0EF0C90EDBEC02F02A0E9BECAD
:101B600002F0A1EC0EF0CA0EDBEC02F02A0E9BECA8
:101B700002F0890EDBEC02F02A0E9BEC02F0C80E9C
:101B8000DBEC02F02A0E9BEC02F0A1EC0EF0CB0E87
:101B9000DBEC02F02A0E9BEC02F08A0EDBEC02F08A
:101BA0002A0E9BEC02F0880EDBEC02F02A0E9BEC76
:101BB00002F0C70EDBEC02F02A0E9BEC02F0A1EC67
:101BC0000EF0CC0EDBEC02F02A0E9BEC02F08B0E3A
:101BD000DBEC02F02A0E9BEC02F0870EDBEC02F04D
:101BE0002A0E9BEC02F0C60EDBEC02F02A0E9BECF8
:101BF00002F0A1EC0EF0CD0EDBEC02F02A0E9BEC15
:101C000002F08C0EDBEC02F02A0E9BEC02F0860E4A
:101C1000DBEC02F02A0E9BEC02F0C50EDBEC02F0CE
:101C20002A0E9BEC02F0A1EC0EF0CE0EDBEC02F0E3
:101C30002A0E9BEC02F08D0EDBEC02F02A0E9BECE0
:101C400002F0850EDBEC02F02A0E9BEC02F0C40ED3
:101C5000DBEC02F02A0E9BEC02F0A1EC0EF0CF0EB2
:101C6000DBEC02F02A0E9BEC02F08E0EDBEC02F0B5
:101C70002A0E9BEC02F0840EDBEC02F02A0E9BECA9
:101C800002F0C30EDBEC02F02A0E9BEC02F0A1EC9A
:101C90000EF08F0EDBEC02F02A0E9BEC02F0830EAE
:101CA000DBEC02F02A0E9BEC02F0050E3D6EA1EC7F
:101CB0000EF0830EDBEC02F0DCEC0CF0C30EDBEC80
:101CC00002F0EBEC0CF0A1EC0EF0830EDBEC02F07A
:101CD000EBEC0CF0C30EDBEC02F0DCEC0CF03D2E78
:101CE000E6D7830EDBEC02F0FAEC0CF0C30EDBEC73
:101CF00002F0FAEC0CF0010E396201D004D0020EB1
:101D0000396215D00AD043EC06F0C90EDBEC02F0C4
:101D1000020E9BEC02F039501200A4EC06F0C90E42
:101D2000DBEC02F0020E9BEC02F03950120005ECE5
:101D300007F0C90EDBEC02F0020E9BEC02F039500A
:101D40001200900E3A6E3A2E01D01200900E3B6EA9
:101D50003B2E01D0F8D7900E3C6E3C2EFED7F8D724
:101D6000100E366E100E376E100E376EC90EDBEC8D
:101D700002F0200E9BEC02F0020E9BEC02F051EC04
:101D800010F0CA0EDBEC02F0200E9BEC02F0020E0B
:101D90009BEC02F051EC10F0CB0EDBEC02F0200ECD
:101DA0009BEC02F0020E9BEC02F051EC10F0CC0E1A
:101DB000DBEC02F0200E9BEC02F0020E9BEC02F03A
:101DC00051EC10F0CD0EDBEC02F0200E9BEC02F09B
:101DD000020E9BEC02F051EC10F0CE0EDBEC02F0A8
:101DE000200E9BEC02F0020E9BEC02F051EC10F086
:101DF000C30EDBEC02F0200E9BEC02F0000E9BEC1D
:101E000002F051EC10F0C40EDBEC02F0200E9BEC63
:101E100002F0000E9BEC02F051EC10F0C50EDBEC72
:101E200002F0200E9BEC02F0000E9BEC02F051EC55
:101E300010F0C60EDBEC02F0200E9BEC02F0000E60
:101E40009BEC02F051EC10F0C70EDBEC02F0200E20
:101E50009BEC02F0000E9BEC02F051EC10F0C80E6F
:101E6000DBEC02F0200E9BEC02F0000E9BEC02F08B
:101E700051EC10F0C90EDBEC02F0200E9BEC02F0EE
:101E8000000E9BEC02F051EC10F0CA0EDBEC02F0FD
:101E9000200E9BEC02F0000E9BEC02F051EC10F0D7
:101EA000CB0EDBEC02F0200E9BEC02F0000E9BEC64
:101EB00002F051EC10F0CC0EDBEC02F0200E9BECAB
:101EC00002F0000E9BEC02F051EC10F0CD0EDBECBA
:101ED00002F0200E9BEC02F0000E9BEC02F051ECA5
:101EE00010F0ADD0CF0EDBEC02F0200E9BEC02F038
:101EF0008F0EDBEC02F0020E9BEC02F051EC10F0C6
:101F000036C033F0362E01D00AD037C034F0342E2C
:101F100001D0F8D738C035F0352EFED7F8D7CE0E21
:101F2000DBEC02F0200E9BEC02F0000E9BEC02F0CA
:101F300051EC10F0CF0EDBEC02F0200E9BEC02F027
:101F40008F0EDBEC02F0200E9BEC02F0CF0EDBECF0
:101F500002F0020E9BEC02F04BD7CE0EDBEC02F04F
:101F6000200E9BEC02F0000E9BEC02F051EC10F006
:101F7000CF0EDBEC02F0200E9BEC02F051EC10F0E7
:101F800051EC10F0CF0EDBEC02F0020E9BEC02F0F5
:101F900051EC10F0CF0EDBEC02F0200E9BEC02F0C7
:101FA000CE0EDBEC02F0020E9BEC02F051EC10F0D6
:101FB000CE0EDBEC02F0200E9BEC02F0CD0EDBEC43
:101FC00002F0020E9BEC02F051EC10F0CD0EDBECB7
:101FD00002F0200E9BEC02F0CC0EDBEC02F0020EC5
:101FE0009BEC02F051EC10F0CC0EDBEC02F0200E7A
:101FF0009BEC02F0CB0EDBEC02F0020E9BEC02F04D
:1020000051EC10F0CB0EDBEC02F0200E9BEC02F05A
:10201000CA0EDBEC02F0020E9BEC02F051EC10F069
:10202000CA0EDBEC02F0200E9BEC02F0C90EDBECDA
:1020300002F0020E9BEC02F051EC10F0120022ECC8
:1020400010F00AD0F00E966E538D0F0E846EFF0EB8
:10205000206E4EEC10F01200400E336E332E01D085
:102060007CD7010E365E400E346E342E01D0F6D78A
:10207000010E375E400E356E010E385E03D0352EF0
:10208000FBD7F3D784A801D02DD784AA01D02AD7B3
:1020900084AC01D027D784AEF2D724D7202EFED728
:1020A0001200800E306E302E01D01200800E316E84
:1020B000312E01D0F8D7800E326E322EFED7F8D7EF
:1020C000D4EC02F0000EF86E000EF76EB80EF66E4D
:1020D000100E196E0900F5509BEC02F0192EFAD77C
:1020E0001200D4EC02F0010E9BEC02F0010E9BEC0E
:1020F00002F0010E9BEC02F0C00EDBEC02F0050ECC
:102100009BEC02F0030E9BEC02F0C90EDBEC02F03C
:10211000000E9BEC02F01200050E1A6EC80EDBECEE
:1021200002F0B20E9BEC02F0CA0EDBEC02F0B20E33
:102130009BEC02F0E1EC10F0C80EDBEC02F0200E9C
:102140009BEC02F0CA0EDBEC02F0200E9BEC02F0DE
:10215000E1EC10F01A2EE2D7050E1A6EC90EDBEC78
:1021600002F0000E9BEC02F0E1EC10F0C90EDBEC8B
:1021700002F0200E9BEC02F0E1EC10F01A2EEED7EC
:10218000C90EDBEC02F0020E9BEC02F0C80EDBEC99
:1021900002F0280E9BEC02F0CA0EDBEC02F0290ED6
:1021A0009BEC02F0E1EC10F0C80EDBEC02F0200E2C
:1021B0009BEC02F0CA0EDBEC02F0200E9BEC02F06E
:1021C0001200900E166E162E01D01200900E176E91
:1021D000172E01D0F8D7900E186E182EFED7F8D70C
:020000040030CA
:0100000015EA
:0100010013EB
:010002007F7E
:010003007F7D
:01000400F902
:010005008B6F
:010006009168
:01000800FFF8
:01000900C036
:01000A00FFF6
:01000B00E014
:01000C00FFF4
:01000D0040B2
:00000001FF
