:020000040000FA
:0400000080EF00F09D
:020004000000FA
:0A000600050E466EC10E15EC03F066
:10001000040ED5EC02F08A0E15EC03F05A0ED5EC66
:1000200002F038EC00F05A0ED5EC02F038EC00F09B
:100030005A0ED5EC02F038EC00F08A0E15EC03F005
:10004000200ED5EC02F038EC00F0200ED5EC02F0DA
:1000500038EC00F0200ED5EC02F038EC00F0462E23
:10006000DAD7C10E15EC03F0030ED5EC02F0120046
:10007000900E476E472E01D01200900E486E482E0B
:0E00800001D0F8D7900E496E492EFED7F8D762
:02008E0057EC2D
:1000900000F0120092862587010EC26E300EC16EEE
:1000A000F60EC06E1200C282C2B2FED7120053EC2E
:1000B00000F0C450436EC350426E1200446E443888
:1000C00063EC00F044500F0B456E0A0E4560070FBD
:0600D000260F452412007A
:0A00D6002A202A202A202A202A20AE
:1000E0002A202A00202A202A202A202A202A202AE0
:1000F0002000202020202020202020202020200040
:100100007F9C7F8E97EC02F009EC01F013EC0DF070
:100110004AEC00F08CEF00F00000000000009CECC6
:1001200010F0FF0E066E000E826F0FEC01F0826F72
:10013000410E8263F6D7ADEC10F088EC02F0BEEC15
:1001400010F088EC02F047EC00F0DC0E426401D0C5
:1001500007D0C20E15EC03F02A0ED5EC02F0F1D751
:10016000C20E15EC03F0D70ED5EC02F0D9EC10F06E
:10017000FE0E066EFE0E076E010E086EF40E056E84
:10018000030E0A6E000E096EDBEC03F01CEC06F0A9
:10019000000E826F0FEC01F0826F410E826301D07E
:1001A000F7D7420E826308D00950EAEC0EF0F40E45
:1001B000056EE6EC01F0ECD7430E826308D00950DF
:1001C00003EC00F0F40E056EE6EC01F0E1D7440E0E
:1001D000826308D009505DEC0CF0F40E056EE6EC7D
:1001E00001F0D6D7450E826308D0095062EC08F0C2
:1001F000F40E056EE6EC01F0CBD7460E8263C8D74D
:10020000095043EC0DF0096EF40E056EE6EC01F0BA
:10021000BFD78D6AFF0E206E51EC01F0120015EC75
:1002200001F00DD033EC01F028D0F00E966E538D16
:100230000F0E846EFF0E206E51EC01F0120084A8A8
:1002400003D0000E806FEED784AA03D0010E806F1A
:10025000E9D784AC03D0020E806FE4D784AE76D0A9
:10026000030E806FDFD70F0E966E538DF00E846EE7
:10027000FF0E206E51EC01F0120084A003D0040E9A
:10028000816F12D084A203D0050E816F0DD084A49B
:1002900003D0060E816F08D084A6D1D7070E816FD8
:1002A00003D0202EFED71200000E806313D001D0A1
:1002B0001200040E816302D0310E1200050E81631C
:1002C00002D0320E1200060E816302D0330E1200ED
:1002D000460E1200010E806312D000D0040E81631E
:1002E00002D0340E1200050E816302D0350E1200CA
:1002F000060E816302D0360E1200450E1200020E69
:10030000806312D000D0040E816302D0370E120039
:10031000050E816302D0380E1200060E816302D0F2
:10032000390E1200440E120000D0040E816302D078
:10033000410E1200050E816302D0300E1200060E2F
:10034000816302D0420E1200430E1200FF0E0662BD
:1003500001D075D7062E73D7072E01D003D0FE0E1D
:10036000066E6DD7082E01D003D0FE0E076E67D73C
:10037000010E055EE6EC01F0000E056407EC02F0EC
:10038000FE0E066EFE0E076E010E086E58D747EC85
:1003900000F0DB0E426401D00BD0C80E42600FD0DB
:1003A00000D0C20E15EC03F02A0ED5EC02F01200BC
:1003B000C20E15EC03F0D70ED5EC02F01200C20EFF
:1003C00015EC03F0200ED5EC02F01200C7EC01F0A2
:1003D000C00E15EC03F0960E056004D0320E0560D9
:1003E00008D00ED0C00E15EC03F0050ED5EC02F0CF
:1003F0001200C00E15EC03F0060ED5EC02F0120050
:10040000C00E15EC03F0070ED5EC02F01200010E41
:100410000A5E020E0A6201D004D0010E0A621FD0E9
:100420000FD0820E15EC03F0200ED5EC02F0F40E86
:10043000056EC00E15EC03F0050ED5EC02F01200AF
:10044000810E15EC03F0200ED5EC02F0F40E056ED3
:10045000C00E15EC03F0050ED5EC02F012000EEC08
:1004600003F0C90E15EC03F0000ED5EC02F088EC99
:1004700002F088EC02F088EC02F088EC02F0C90E81
:1004800015EC03F0200ED5EC02F0000ED5EC02F0D6
:1004900088EC02F0CA0E15EC03F0200ED5EC02F049
:1004A000000ED5EC02F088EC02F0CB0E15EC03F058
:1004B000200ED5EC02F0000ED5EC02F088EC02F034
:1004C000CC0E15EC03F0200ED5EC02F0000ED5ECAE
:1004D00002F088EC02F0CD0E15EC03F0200ED5EC06
:1004E00002F0000ED5EC02F088EC02F0CE0E15EC16
:1004F00003F0200ED5EC02F0000ED5EC02F088ECF3
:1005000002F0CF0E15EC03F0200ED5EC02F0F8D57A
:10051000FF0E0B6E0B2E01D01200FF0E0C6E0C2E78
:0E05200001D0F8D7FF0E0D6E0D2EFED7F8D7C6
:02052E008A6AD7
:10053000C00E936E280EF8EC02F0300EC7EC02F0FD
:100540000A0EFFEC02F0280EC7EC02F00A0EFFECD8
:1005500002F0280EC7EC02F00A0EFFEC02F00C0EBF
:10056000C7EC02F00A0EFFEC02F00EEC03F0060EF0
:10057000C7EC02F00A0EFFEC02F01BEC03F01200D5
:10058000046EEE50D5EC02F0042EFBD71200036E81
:1005900003380F0B8A6E8A98E6EC02F003500F0BBB
:1005A0008A6E8A98E6EC02F01200036E03380F0B95
:1005B0008A6E8A88E6EC02F003500F0B8A6E8A88F6
:1005C000E6EC02F00A0EFFEC02F012000000000060
:1005D0000000000000000000000000008A8A000007
:1005E0000000000000000000000000008A9A1200D5
:1005F000026EFA0EFFEC02F0022EFBD71200006E24
:10060000003A0F0E0014016EF00E001609EC03F014
:100610001200000E0006015AFDE21200010EC7ECA6
:1006200002F0020EF8EC02F01200C7EC02F00A0E23
:10063000FFEC02F01200400EC7EC02F00A0EFFECD5
:1006400002F0000ED5EC02F00A0EFFEC02F0410EB3
:10065000C7EC02F00A0EFFEC02F0040ED5EC02F03B
:100660000A0EFFEC02F0420EC7EC02F00A0EFFEC9D
:1006700002F00A0ED5EC02F00A0EFFEC02F0430E77
:10068000C7EC02F00A0EFFEC02F0150ED5EC02F0FA
:100690000A0EFFEC02F0440EC7EC02F00A0EFFEC6B
:1006A00002F01B0ED5EC02F00A0EFFEC02F0450E34
:1006B000C7EC02F00A0EFFEC02F0150ED5EC02F0CA
:1006C0000A0EFFEC02F0460EC7EC02F00A0EFFEC39
:1006D00002F01B0ED5EC02F00A0EFFEC02F0470E02
:1006E000C7EC02F00A0EFFEC02F00E0ED5EC02F0A1
:1006F0000A0EFFEC02F0480EC7EC02F00A0EFFEC07
:1007000002F0000ED5EC02F00A0EFFEC02F0490EEA
:10071000C7EC02F00A0EFFEC02F00A0ED5EC02F074
:100720000A0EFFEC02F04A0EC7EC02F00A0EFFECD4
:1007300002F0150ED5EC02F00A0EFFEC02F04B0EA3
:10074000C7EC02F00A0EFFEC02F0110ED5EC02F03D
:100750000A0EFFEC02F04C0EC7EC02F00A0EFFECA2
:1007600002F0110ED5EC02F00A0EFFEC02F04D0E75
:10077000C7EC02F00A0EFFEC02F00A0ED5EC02F014
:100780000A0EFFEC02F04E0EC7EC02F00A0EFFEC70
:1007900002F0040ED5EC02F00A0EFFEC02F04F0E50
:1007A000C7EC02F00A0EFFEC02F0000ED5EC02F0EE
:1007B0000A0EFFEC02F0500EC7EC02F00A0EFFEC3E
:1007C00002F0000ED5EC02F00A0EFFEC02F0510E22
:1007D000C7EC02F00A0EFFEC02F0000ED5EC02F0BE
:1007E0000A0EFFEC02F0520EC7EC02F00A0EFFEC0C
:1007F00002F0000ED5EC02F00A0EFFEC02F0530EF0
:10080000C7EC02F00A0EFFEC02F0000ED5EC02F08D
:100810000A0EFFEC02F0540EC7EC02F00A0EFFECD9
:1008200002F0000ED5EC02F00A0EFFEC02F0550EBD
:10083000C7EC02F00A0EFFEC02F0000ED5EC02F05D
:100840000A0EFFEC02F0560EC7EC02F00A0EFFECA7
:1008500002F00C0ED5EC02F00A0EFFEC02F0570E7F
:10086000C7EC02F00A0EFFEC02F00C0ED5EC02F021
:100870000A0EFFEC02F0580EC7EC02F00A0EFFEC75
:1008800002F0000ED5EC02F00A0EFFEC02F0590E59
:10089000C7EC02F00A0EFFEC02F0150ED5EC02F0E8
:1008A0000A0EFFEC02F05A0EC7EC02F00A0EFFEC43
:1008B00002F00E0ED5EC02F00A0EFFEC02F05B0E19
:1008C000C7EC02F00A0EFFEC02F01F0ED5EC02F0AE
:1008D0000A0EFFEC02F05C0EC7EC02F00A0EFFEC11
:1008E00002F00E0ED5EC02F00A0EFFEC02F05D0EE7
:1008F000C7EC02F00A0EFFEC02F0150ED5EC02F088
:100900000A0EFFEC02F05E0EC7EC02F00A0EFFECDE
:1009100002F0000ED5EC02F00A0EFFEC02F05F0EC2
:10092000C7EC02F00A0EFFEC02F0000ED5EC02F06C
:100930000A0EFFEC02F0600EC7EC02F00A0EFFECAC
:1009400002F0000ED5EC02F00A0EFFEC02F0610E90
:10095000C7EC02F00A0EFFEC02F00F0ED5EC02F02D
:100960000A0EFFEC02F0620EC7EC02F00A0EFFEC7A
:1009700002F01C0ED5EC02F00A0EFFEC02F0630E42
:10098000C7EC02F00A0EFFEC02F0180ED5EC02F0F4
:100990000A0EFFEC02F0640EC7EC02F00A0EFFEC48
:1009A00002F0180ED5EC02F00A0EFFEC02F0650E14
:1009B000C7EC02F00A0EFFEC02F01C0ED5EC02F0C0
:1009C0000A0EFFEC02F0660EC7EC02F00A0EFFEC16
:1009D00002F00F0ED5EC02F00A0EFFEC02F0670EEB
:1009E000C7EC02F00A0EFFEC02F0000ED5EC02F0AC
:1009F0000A0EFFEC02F0680EC7EC02F00A0EFFECE4
:100A000002F0000ED5EC02F00A0EFFEC02F0690EC7
:100A1000C7EC02F00A0EFFEC02F0000ED5EC02F07B
:100A20000A0EFFEC02F06A0EC7EC02F00A0EFFECB1
:100A300002F00A0ED5EC02F00A0EFFEC02F06B0E8B
:100A4000C7EC02F00A0EFFEC02F0000ED5EC02F04B
:100A50000A0EFFEC02F06C0EC7EC02F00A0EFFEC7F
:100A600002F0000ED5EC02F00A0EFFEC02F06D0E63
:100A7000C7EC02F00A0EFFEC02F00A0ED5EC02F011
:100A80000A0EFFEC02F06E0EC7EC02F00A0EFFEC4D
:100A900002F00E0ED5EC02F00A0EFFEC02F06F0E23
:100AA000C7EC02F00A0EFFEC02F0000ED5EC02F0EB
:100AB0000A0EFFEC02F0700EC7EC02F00A0EFFEC1B
:100AC00002F0000ED5EC02F00A0EFFEC02F0710EFF
:100AD000C7EC02F00A0EFFEC02F0000ED5EC02F0BB
:100AE0000A0EFFEC02F0720EC7EC02F00A0EFFECE9
:100AF00002F00A0ED5EC02F00A0EFFEC02F0730EC3
:100B0000C7EC02F00A0EFFEC02F0000ED5EC02F08A
:100B10000A0EFFEC02F0740EC7EC02F00A0EFFECB6
:100B200002F0000ED5EC02F00A0EFFEC02F0750E9A
:100B3000C7EC02F00A0EFFEC02F00E0ED5EC02F04C
:100B40000A0EFFEC02F0760EC7EC02F00A0EFFEC84
:100B500002F0000ED5EC02F00A0EFFEC02F0770E68
:100B6000C7EC02F00A0EFFEC02F0000ED5EC02F02A
:100B70000A0EFFEC02F0780EC7EC02F00A0EFFEC52
:100B800002F0000ED5EC02F00A0EFFEC02F0790E36
:100B9000C7EC02F00A0EFFEC02F0000ED5EC02F0FA
:100BA0000A0EFFEC02F07A0EC7EC02F00A0EFFEC20
:100BB00002F00A0ED5EC02F00A0EFFEC02F07B0EFA
:100BC000C7EC02F00A0EFFEC02F0000ED5EC02F0CA
:100BD0000A0EFFEC02F07C0EC7EC02F00A0EFFECEE
:100BE00002F0000ED5EC02F00A0EFFEC02F07D0ED2
:100BF000C7EC02F00A0EFFEC02F00E0ED5EC02F08C
:100C00000A0EFFEC02F07E0EC7EC02F00A0EFFECBB
:100C100002F00A0ED5EC02F00A0EFFEC02F07F0E95
:100C2000C7EC02F00A0EFFEC02F0000ED5EC02F069
:100C30000A0EFFEC02F01200400EC7EC02F00A0EA2
:100C4000FFEC02F00E0ED5EC02F00A0EFFEC02F003
:100C5000410EC7EC02F00A0EFFEC02F01F0ED5ECBD
:100C600002F00A0EFFEC02F0420EC7EC02F00A0E90
:100C7000FFEC02F0150ED5EC02F00A0EFFEC02F0CC
:100C8000430EC7EC02F00A0EFFEC02F01F0ED5EC8B
:100C900002F00A0EFFEC02F0440EC7EC02F00A0E5E
:100CA000FFEC02F01F0ED5EC02F00A0EFFEC02F092
:100CB000450EC7EC02F00A0EFFEC02F01F0ED5EC59
:100CC00002F00A0EFFEC02F0460EC7EC02F00A0E2C
:100CD000FFEC02F0150ED5EC02F00A0EFFEC02F06C
:100CE000470EC7EC02F00A0EFFEC02F0000ED5EC46
:100CF00002F00A0EFFEC02F01200500EC7EC02F0F8
:100D00000A0EFFEC02F0000ED5EC02F00A0EFFEC2A
:100D100002F0510EC7EC02F00A0EFFEC02F0000EDA
:100D2000D5EC02F00A0EFFEC02F0520EC7EC02F016
:100D30000A0EFFEC02F0000ED5EC02F00A0EFFECFA
:100D400002F0530EC7EC02F00A0EFFEC02F00A0E9E
:100D5000D5EC02F00A0EFFEC02F0540EC7EC02F0E4
:100D60000A0EFFEC02F00A0ED5EC02F00A0EFFECC0
:100D700002F0550EC7EC02F00A0EFFEC02F00E0E68
:100D8000D5EC02F00A0EFFEC02F0560EC7EC02F0B2
:100D90000A0EFFEC02F00E0ED5EC02F00A0EFFEC8C
:100DA00002F0570EC7EC02F00A0EFFEC02F00E0E36
:100DB000D5EC02F00A0EFFEC02F01200500EC7EC68
:100DC00002F00A0EFFEC02F0000ED5EC02F00A0E63
:100DD000FFEC02F0510EC7EC02F00A0EFFEC02F03D
:100DE0000A0ED5EC02F00A0EFFEC02F0520EC7EC30
:100DF00002F00A0EFFEC02F00A0ED5EC02F00A0E29
:100E0000FFEC02F0530EC7EC02F00A0EFFEC02F00A
:100E10001F0ED5EC02F00A0EFFEC02F0540EC7ECE8
:100E200002F00A0EFFEC02F0150ED5EC02F00A0EED
:100E3000FFEC02F0550EC7EC02F00A0EFFEC02F0D8
:100E40001B0ED5EC02F00A0EFFEC02F0560EC7ECBA
:100E500002F00A0EFFEC02F01F0ED5EC02F00A0EB3
:100E6000FFEC02F0570EC7EC02F00A0EFFEC02F0A6
:100E70000E0ED5EC02F00A0EFFEC02F01200500E3E
:100E8000C7EC02F00A0EFFEC02F01B0ED5EC02F0EC
:100E90000A0EFFEC02F0510EC7EC02F00A0EFFEC56
:100EA00002F00A0ED5EC02F00A0EFFEC02F0520E30
:100EB000C7EC02F00A0EFFEC02F01F0ED5EC02F0B8
:100EC0000A0EFFEC02F0530EC7EC02F00A0EFFEC24
:100ED00002F0150ED5EC02F00A0EFFEC02F0540EF3
:100EE000C7EC02F00A0EFFEC02F01B0ED5EC02F08C
:100EF0000A0EFFEC02F0550EC7EC02F00A0EFFECF2
:100F000002F01F0ED5EC02F00A0EFFEC02F0560EB6
:100F1000C7EC02F00A0EFFEC02F00E0ED5EC02F068
:100F20000A0EFFEC02F0570EC7EC02F00A0EFFECBF
:100F300002F01F0ED5EC02F00A0EFFEC02F01200D8
:100F4000400EC7EC02F00A0EFFEC02F0040ED5ECE6
:100F500002F00A0EFFEC02F0410EC7EC02F00A0E9E
:100F6000FFEC02F0040ED5EC02F00A0EFFEC02F0EA
:100F7000420EC7EC02F00A0EFFEC02F00E0ED5ECAA
:100F800002F00A0EFFEC02F0430EC7EC02F00A0E6C
:100F9000FFEC02F0150ED5EC02F00A0EFFEC02F0A9
:100FA000440EC7EC02F00A0EFFEC02F01B0ED5EC6B
:100FB00002F00A0EFFEC02F0450EC7EC02F00A0E3A
:100FC000FFEC02F0150ED5EC02F00A0EFFEC02F079
:100FD000460EC7EC02F00A0EFFEC02F00E0ED5EC46
:100FE00002F00A0EFFEC02F0470EC7EC02F00A0E08
:100FF000FFEC02F0000ED5EC02F00A0EFFEC02F05E
:101000001200600EC7EC02F00A0EFFEC02F0040EB4
:10101000D5EC02F00A0EFFEC02F0610EC7EC02F014
:101020000A0EFFEC02F0040ED5EC02F00A0EFFEC03
:1010300002F0620EC7EC02F00A0EFFEC02F00E0E98
:10104000D5EC02F00A0EFFEC02F0630EC7EC02F0E2
:101050000A0EFFEC02F01B0ED5EC02F00A0EFFECBC
:1010600002F0640EC7EC02F00A0EFFEC02F0150E5F
:10107000D5EC02F00A0EFFEC02F0650EC7EC02F0B0
:101080000A0EFFEC02F01B0ED5EC02F00A0EFFEC8C
:1010900002F0660EC7EC02F00A0EFFEC02F00E0E34
:1010A000D5EC02F00A0EFFEC02F0670EC7EC02F07E
:1010B0000A0EFFEC02F0000ED5EC02F00A0EFFEC77
:0410C00002F0120028
:0C10C400880E15EC03F03F0ED5EC02F096
:1010D0002B0ED5EC02F03F0ED5EC02F03D0ED5EC18
:1010E00002F03F0ED5EC02F0000E266E000E206ED0
:1010F000000E216E200E226E200E236E010E276E32
:10110000200E2C6E01EC0AF027C020F0BAEC0AF099
:1011100001EC0AF027C021F0000E206203D0300E4F
:10112000226E33D0010E206203D0310E226E2DD0FC
:10113000020E206203D0320E226E27D0030E2062F0
:1011400003D0330E226E21D0040E206203D0340E61
:10115000226E1BD0050E206203D0350E226E15D0F4
:10116000060E206203D0360E226E0FD0070E2062CC
:1011700003D0370E226E09D0080E206203D0380E3D
:10118000226E03D0390E226E00D0000E216203D0F1
:10119000300E236E33D0010E216203D0310E236E48
:1011A0002DD0020E216203D0320E236E27D0030E03
:1011B000216203D0330E236E21D0040E216203D0AE
:1011C000340E236E1BD0050E216203D0350E236E24
:1011D00015D0060E216203D0360E236E0FD0070EF7
:1011E000216203D0370E236E09D0080E216203D08E
:1011F000380E236E03D0390E236E00D0880E15EC06
:1012000003F02250D5EC02F08A0E15EC03F02350C7
:10121000D5EC02F02050262621502626090E266401
:1012200066D000D0BAEC0AF0BAEC0AF001EC0AF091
:1012300025C02DF08C0E15EC03F02D50D5EC02F0EE
:10124000BAEC0AF001EC0AF025C02EF0BAEC0AF074
:101250002E50D5EC02F00A0E266205D0310E2B6E10
:10126000300E2C6E3DD00B0E266205D0310E2B6E4B
:10127000310E2C6E35D00C0E266205D0310E2B6E41
:10128000320E2C6E2DD00D0E266205D0310E2B6E37
:10129000330E2C6E25D00E0E266205D0310E2B6E2D
:1012A000340E2C6E1DD00F0E266205D0310E2B6E23
:1012B000350E2C6E15D0100E266205D0310E2B6E19
:1012C000360E2C6E0DD0110E266205D0310E2B6E0F
:1012D000370E2C6E05D0310E2B6E380E2C6E00D0D2
:1012E0002B502D624FD02C502E624CD066D0BAECD1
:1012F0000AF0BAEC0AF001EC0AF025C02DF08C0ED1
:1013000015EC03F02D50D5EC02F0000E266203D050
:10131000300E2B6E33D0010E266203D0310E2B6EB1
:101320002DD0020E266203D0320E2B6E27D0030E74
:10133000266203D0330E2B6E21D0040E266203D01A
:10134000340E2B6E1BD0050E266203D0350E2B6E8D
:1013500015D0060E266203D0360E2B6E0FD0070E68
:10136000266203D0370E2B6E09D0080E266203D0FA
:10137000380E2B6E03D0390E2B6E00D02B502D6201
:1013800001D01BD08F0E15EC03F0070ED5EC02F048
:10139000BAEC0AF08C0E15EC03F0200ED5EC02F03E
:1013A000200ED5EC02F0200ED5EC02F08F0E15ECDD
:1013B00003F0200ED5EC02F031D78F0E15EC03F0C0
:1013C000050ED5EC02F0BAEC0AF0880E15EC03F02D
:1013D000200ED5EC02F0200ED5EC02F0200ED5EC5C
:1013E00002F0200ED5EC02F0200ED5EC02F0200E1B
:1013F000D5EC02F0200ED5EC02F0200ED5EC02F078
:101400001200FF0E2F6E09EC0AF00DD030EC0AF03E
:1014100031D0F00E966E538D0F0E846EFF0E2F6E30
:101420004EEC0AF01200010E27260A0E276204D0A5
:1014300000D0010E276E00D084A803D0000E1B6ED2
:10144000E5D784AA03D0010E1B6EE0D784AC03D08D
:10145000020E1B6EDBD784AEE6D7030E1B6ED6D70B
:101460000F0E966E538DF00E846EFF0E2F6E4EECA7
:101470000AF0120084A003D0040E1C6E12D084A2C5
:1014800003D0050E1C6E0DD084A403D0060E1C6E76
:1014900008D084A6C8D7070E1C6E03D02F2EFED707
:1014A0001200000E1B621AD001D01200040E1C6242
:1014B00005D0010E246E310E256E1200050E1C6241
:1014C00005D0020E246E320E256E1200060E1C622E
:1014D00004D0030E246E330E256E1200010E1B6223
:1014E0001AD000D0040E1C6205D0040E246E340EF7
:1014F000256E1200050E1C6205D0050E246E350EF9
:10150000256E1200060E1C6205D0060E246E360EE5
:10151000256E12001200020E1B621AD000D0040EBB
:101520001C6205D0070E246E370E256E1200050EC4
:101530001C6205D0080E246E380E256E1200060EB1
:101540001C6205D0090E246E390E256E12001200A1
:1015500000D0040E1C6201D01200050E1C6205D0E2
:10156000000E246E300E256E1200060E1C6201D095
:1015700012001200900E1D6E1D2E01D01200900E52
:101580001E6E1E2E01D0F8D7900E1F6E1F2EFED796
:02159000F8D78A
:0E1592008F0E15EC03F0000ED5EC02F01200E7
:1015A0008F0E15EC03F0040ED5EC02F012008F0E36
:1015B00015EC03F0200ED5EC02F01200C9EC0AF095
:1015C000C90E15EC03F0200ED5EC02F0890E15ECD7
:1015D00003F0020ED5EC02F004EC0DF0D0EC0AF0B2
:1015E000890E15EC03F0200ED5EC02F0C90E15ECB7
:1015F00003F0020ED5EC02F004EC0DF01200C9EC81
:101600000AF0C90E15EC03F0200ED5EC02F0880E9E
:1016100015EC03F0020ED5EC02F004EC0DF0D0EC6A
:101620000AF0880E15EC03F0200ED5EC02F0C70E80
:1016300015EC03F0020ED5EC02F004EC0DF0C9EC51
:101640000AF0C70E15EC03F0200ED5EC02F0860E62
:1016500015EC03F0020ED5EC02F004EC0DF0D0EC2A
:101660000AF0860E15EC03F0200ED5EC02F0C50E44
:1016700015EC03F0020ED5EC02F004EC0DF0C9EC11
:101680000AF0C50E15EC03F0200ED5EC02F0860E24
:1016900015EC03F0020ED5EC02F004EC0DF0D0ECEA
:1016A0000AF0860E15EC03F0200ED5EC02F0C70E02
:1016B00015EC03F0020ED5EC02F004EC0DF0C9ECD1
:1016C0000AF0C70E15EC03F0200ED5EC02F0880EE0
:1016D00015EC03F0020ED5EC02F004EC0DF0D0ECAA
:1016E0000AF0880E15EC03F0200ED5EC02F0C90EBE
:1016F00015EC03F0020ED5EC02F004EC0DF0C9EC91
:101700000AF0C90E15EC03F0200ED5EC02F08A0E9B
:1017100015EC03F0020ED5EC02F004EC0DF0D0EC69
:101720000AF08A0E15EC03F0200ED5EC02F0CB0E79
:1017300015EC03F0020ED5EC02F004EC0DF0C9EC50
:101740000AF0CB0E15EC03F0200ED5EC02F08C0E57
:1017500015EC03F0020ED5EC02F004EC0DF0D0EC29
:101760000AF08C0E15EC03F0200ED5EC02F0CD0E35
:1017700015EC03F0020ED5EC02F004EC0DF0C9EC10
:101780000AF0CD0E15EC03F0200ED5EC02F08C0E15
:1017900015EC03F0020ED5EC02F004EC0DF0D0ECE9
:1017A0000AF08C0E15EC03F0200ED5EC02F0CB0EF7
:1017B00015EC03F0020ED5EC02F004EC0DF0C9ECD0
:1017C0000AF0CB0E15EC03F0200ED5EC02F08A0ED9
:1017D00015EC03F0020ED5EC02F004EC0DF0D0ECA9
:1017E0000AF08A0E15EC03F0200ED5EC02F0C90EBB
:1017F00015EC03F0020ED5EC02F004EC0DF0120033
:101800000A0E156EC9EC0AF0CA0E15EC03F0CD0EE7
:10181000D5EC02F0C80E15EC03F0CD0ED5EC02F0BD
:1018200004EC0DF0D0EC0AF0CA0E15EC03F0200E1B
:10183000D5EC02F0C80E15EC03F0200ED5EC02F04A
:101840008A0E15EC03F02E0ED5EC02F0880E15EC86
:1018500003F02E0ED5EC02F004EC0DF08A0E15EC20
:1018600003F0200ED5EC02F0880E15EC03F0200EEC
:10187000D5EC02F0152EC6D7C9EC0AF0CA0E15EC4D
:1018800003F0CD0ED5EC02F0C80E15EC03F0CD0E32
:10189000D5EC02F004EC0DF0D0EC0AF0CA0E15EC19
:1018A00003F0200ED5EC02F0C80E15EC03F0200E6C
:1018B000D5EC02F004EC0DF012000E6EA0EC07F077
:1018C00001EC08F00A0E126E040E136E020E146E76
:1018D000000E0E6201D008D0010E0E6201D01FD0A2
:1018E000020E0E6264D042D0C9EC0AF004EC0DF096
:1018F000D0EC0AF004EC0DF0DEEC0AF0122EF4D776
:10190000C9EC0AF004EC0DF0D0EC0AF004EC0DF098
:10191000D7EC0AF01CEC06F09BEC04F01200C9ECCA
:101920000AF004EC0DF0D0EC0AF004EC0DF0DEEC63
:101930000AF0132EF4D7C9EC0AF004EC0DF0D0EC49
:101940000AF004EC0DF0FFEC0AF0142EFCD7C9EC01
:101950000AF004EC0DF0D0EC0AF004EC0DF0D7EC3A
:101960000AF01CEC06F09BEC04F01200C9EC0AF043
:1019700004EC0DF0D0EC0AF004EC0DF000EC0CF0EF
:10198000FFEC0AF000EC0CF0FFEC0AF000EC0CF0BD
:10199000C9EC0AF004EC0DF0D0EC0AF004EC0DF008
:1019A000D7EC0AF01CEC06F09BEC04F01200C9EC3A
:1019B0000AF004EC0DF0D0EC0AF004EC0DF0DEECD3
:1019C0000AF0DEEC0AF000EC0CF0DEEC0AF0DEECE3
:1019D0000AF0FFEC0AF0DEEC0AF0DEEC0AF000ECB4
:1019E0000CF0DEEC0AF0DEEC0AF0C9EC0AF004ECD4
:1019F0000DF0D0EC0AF004EC0DF0D7EC0AF01CEC82
:101A000006F09BEC04F01200700E0F6E0F2E01D04A
:101A10001200700E106E102E01D0F8D7600E116EED
:061A2000112EFED7F8D7DD
:0A1A2600000E416E1200000EF86E73
:101A3000000EF76ED60EF66E0D0E3E6E0900F550D6
:101A4000D5EC02F03E2EFAD71200000EF86E000E12
:101A5000F76EE40EF66E0D0E3F6E0900F550D5ECF4
:101A600002F03F2EFAD71200000EF86E000EF76E4D
:101A7000F20EF66E0D0E406E0900F550D5EC02F038
:101A8000402EFAD71200396E010E4126850E15EC54
:101A900003F0270ED5EC02F0DBEC0EF0850E15EC12
:101AA00003F02C0ED5EC02F0DBEC0EF0850E15ECFD
:101AB00003F0200ED5EC02F0C50E15EC03F0270E56
:101AC000D5EC02F0DBEC0EF0C50E15EC03F02C0E9D
:101AD000D5EC02F0DBEC0EF0C90E15EC03F0200E95
:101AE000D5EC02F0C80E15EC03F0020ED5EC02F0B6
:101AF000DBEC0EF0C80E15EC03F0200ED5EC02F076
:101B0000C70E15EC03F0020ED5EC02F0DBEC0EF084
:101B1000C70E15EC03F0200ED5EC02F0C60E15EC46
:101B200003F0020ED5EC02F0DBEC0EF0C60E15EC65
:101B300003F0200ED5EC02F0C50E15EC03F0020EFA
:101B4000D5EC02F0DBEC0EF0C50E15EC03F0200E28
:101B5000D5EC02F0020ED5EC02F0DBEC0EF0C60E76
:101B600015EC03F0200ED5EC02F0020ED5EC02F0DD
:101B7000DBEC0EF0C70E15EC03F0200ED5EC02F0F6
:101B8000020ED5EC02F0DBEC0EF0C80E15EC03F003
:101B9000200ED5EC02F0020ED5EC02F04150020E00
:101BA000416201D00AD0040E416201D006D0060E77
:101BB000416201D002D039501200010E3926DBEC0F
:101BC0000EF0DBEC0EF0DBEC0EF0C90E15EC03F0C2
:101BD0002A0ED5EC02F0DBEC0EF0CA0E15EC03F089
:101BE0002A0ED5EC02F0890E15EC03F02A0ED5EC86
:101BF00002F0C80E15EC03F02A0ED5EC02F0DBEC77
:101C00000EF0CB0E15EC03F02A0ED5EC02F08A0E86
:101C100015EC03F02A0ED5EC02F0880E15EC03F05B
:101C20002A0ED5EC02F0C70E15EC03F02A0ED5EC07
:101C300002F0DBEC0EF0CC0E15EC03F02A0ED5EC26
:101C400002F08B0E15EC03F02A0ED5EC02F0870E95
:101C500015EC03F02A0ED5EC02F0C60E15EC03F0DD
:101C60002A0ED5EC02F0DBEC0EF0CD0E15EC03F0F5
:101C70002A0ED5EC02F08C0E15EC03F02A0ED5ECF2
:101C800002F0860E15EC03F02A0ED5EC02F0C50E1C
:101C900015EC03F02A0ED5EC02F0DBEC0EF0CE0EC4
:101CA00015EC03F02A0ED5EC02F08D0E15EC03F0C6
:101CB0002A0ED5EC02F0850E15EC03F02A0ED5ECB9
:101CC00002F0C40E15EC03F02A0ED5EC02F0DBECAA
:101CD0000EF0CF0E15EC03F02A0ED5EC02F08E0EAE
:101CE00015EC03F02A0ED5EC02F0840E15EC03F08F
:101CF0002A0ED5EC02F0C30E15EC03F02A0ED5EC3B
:101D000002F0DBEC0EF08F0E15EC03F02A0ED5EC92
:101D100002F0830E15EC03F02A0ED5EC02F0050E4E
:101D20003D6EDBEC0EF0830E15EC03F016EC0DF0BF
:101D3000C30E15EC03F025EC0DF0DBEC0EF0830E7A
:101D400015EC03F025EC0DF0C30E15EC03F016ECCA
:101D50000DF03D2EE6D7830E15EC03F034EC0DF0BC
:101D6000C30E15EC03F034EC0DF0010E396201D016
:101D700004D0020E396215D00AD07DEC06F0C90EEF
:101D800015EC03F0020ED5EC02F039501200DEEC37
:101D900006F0C90E15EC03F0020ED5EC02F0395036
:101DA00012003FEC07F0C90E15EC03F0020ED5EC63
:101DB00002F039501200900E3A6E3A2E01D0120005
:101DC000900E3B6E3B2E01D0F8D7900E3C6E3C2E11
:041DD000FED7F8D76B
:0C1DD400C90E15EC03F0200ED5EC02F057
:101DE000020ED5EC02F08DEC10F0CA0E15EC03F0EB
:101DF000200ED5EC02F0020ED5EC02F08DEC10F0C6
:101E0000CB0E15EC03F0200ED5EC02F0020ED5EC53
:101E100002F08DEC10F0CC0E15EC03F0200ED5EC9A
:101E200002F0020ED5EC02F08DEC10F0CD0E15ECA8
:101E300003F0200ED5EC02F0020ED5EC02F08DEC92
:101E400010F0CE0E15EC03F0200ED5EC02F0020ED1
:101E5000D5EC02F08DEC10F00A0E366E0A0E376EDD
:101E60000A0E376EC30E15EC03F0200ED5EC02F00F
:101E7000000ED5EC02F08DEC10F0C40E15EC03F062
:101E8000200ED5EC02F0000ED5EC02F08DEC10F037
:101E9000C50E15EC03F0200ED5EC02F0000ED5ECCB
:101EA00002F08DEC10F0C60E15EC03F0200ED5EC10
:101EB00002F0000ED5EC02F08DEC10F0C70E15EC20
:101EC00003F0200ED5EC02F0000ED5EC02F08DEC04
:101ED00010F0C80E15EC03F0200ED5EC02F0000E49
:101EE000D5EC02F08DEC10F0C90E15EC03F0200ECD
:101EF000D5EC02F0000ED5EC02F08DEC10F0CA0E1D
:101F000015EC03F0200ED5EC02F0000ED5EC02F03B
:101F10008DEC10F0CB0E15EC03F0200ED5EC02F09A
:101F2000000ED5EC02F08DEC10F0CC0E15EC03F0A9
:101F3000200ED5EC02F0000ED5EC02F08DEC10F086
:101F4000CD0E15EC03F0200ED5EC02F0000ED5EC12
:101F500002F08DEC10F0AFD0CF0E15EC03F0200E98
:101F6000D5EC02F08F0E15EC03F0020ED5EC02F06A
:101F700036C033F0362E01D00AD037C034F0342EBC
:101F800001D0F8D738C035F0352EFED7F8D7CE0EB1
:101F900015EC03F0200ED5EC02F0000ED5EC02F0AB
:101FA0008DEC10F08DEC10F08DEC10F0CF0E15ECE8
:101FB00003F0200ED5EC02F08F0E15EC03F0200E8E
:101FC000D5EC02F0CF0E15EC03F0020ED5EC02F0CA
:101FD00043D7CE0E15EC03F0200ED5EC02F0000E28
:101FE000D5EC02F08DEC10F0CF0E15EC03F0200EC6
:101FF000D5EC02F08DEC10F08DEC10F0CF0E15EC5E
:1020000003F0020ED5EC02F08DEC10F0CF0E15ECC3
:1020100003F0200ED5EC02F0CE0E15EC03F0020E0C
:10202000D5EC02F08DEC10F0CE0E15EC03F0200E86
:10203000D5EC02F0CD0E15EC03F0020ED5EC02F05B
:102040008DEC10F0CD0E15EC03F0200ED5EC02F067
:10205000CC0E15EC03F0020ED5EC02F08DEC10F076
:10206000CC0E15EC03F0200ED5EC02F0CB0E15ECE7
:1020700003F0020ED5EC02F08DEC10F0CB0E15EC57
:1020800003F0200ED5EC02F0CA0E15EC03F0020EA0
:10209000D5EC02F08DEC10F0CA0E15EC03F0200E1A
:1020A000D5EC02F0C90E15EC03F0020ED5EC02F0EF
:1020B0008DEC10F012005EEC10F00AD0F00E966E6F
:1020C000538D0F0E846EFF0E206E8AEC10F01200FE
:1020D000300E336E332E01D07CD7010E365E350EB6
:1020E000346E342E01D0F6D7010E375E300E356EC9
:1020F000010E385E03D0352EFBD7F3D784A801D06C
:102100002BD784AA01D028D784AC01D025D784AEA0
:10211000F2D722D7202EFED71200900E306E302E2E
:1021200001D01200900E316E312E01D0F8D7900EF2
:08213000326E322EFED7F8D703
:082138000EEC03F0000EF86E3E
:10214000220EF76E7A0EF66E100E196E0900F5501B
:10215000D5EC02F0192EFAD712000EEC03F0000EA7
:10216000F86E220EF76E8A0EF66E0F0E196E0900CB
:10217000F550D5EC02F0192EFAD712000EEC03F050
:10218000010ED5EC02F0010ED5EC02F0010ED5ECFB
:1021900002F0C00E15EC03F0050ED5EC02F0030EB4
:1021A000D5EC02F0C90E15EC03F0000ED5EC02F0F0
:1021B0001200050E1A6EC80E15EC03F0B20ED5EC27
:1021C00002F0CA0E15EC03F0B20ED5EC02F02EECC4
:1021D00011F0C80E15EC03F0200ED5EC02F0CA0E7B
:1021E00015EC03F0200ED5EC02F02EEC11F01A2EB7
:1021F000E2D7050E1A6EC90E15EC03F0000ED5ECF1
:1022000002F02EEC11F0C90E15EC03F0200ED5EC07
:1022100002F02EEC11F01A2EEED7C90E15EC03F0D9
:10222000020ED5EC02F0C80E15EC03F0280ED5EC2A
:1022300002F0CA0E15EC03F0290ED5EC02F02EECDC
:1022400011F0C80E15EC03F0200ED5EC02F0CA0E0A
:1022500015EC03F0200ED5EC02F01200900E166E75
:10226000162E01D01200900E176E172E01D0F8D73F
:0A227000900E186E182EFED7F8D756
:06227A00505245535320B1
:102280004120544F2053544152542020484541543A
:0A22900020544F20484154434800F9
:020000040030CA
:0100000015EA
:0100010013EB
:010002007F7E
:010003007F7D
:01000400F902
:010005008B6F
:010006009168
:01000800FFF8
:01000900C036
:01000A00FFF6
:01000B00E014
:01000C00FFF4
:01000D0040B2
:00000001FF
