:020000040000FA
:0400000080EF00F09D
:020004000000FA
:0A0006005052455353204120544F3F
:1000100020484154434841424331313144454631FF
:0200200030307E
:020022003300A9
:100100007F9C7F8E7AEC01F0DDEC00F088EF00F050
:1001100095EC00F0000E806FE3EC00F0806F410E74
:100120008063F8D7A4EC00F048D0000EF86E000E03
:10013000F76E060EF66E100E0B6E0900F550B6EC5B
:1001400001F00B2EFAD71200EFEC01F0000EF86E62
:10015000000EF76E160EF66E0C0E0B6E00D0090038
:10016000F550B6EC01F00B2E01D01200090E0B6217
:1001700002D0C6EC00F0060E0B6202D0CAEC00F012
:10018000030E0B6202D0CEEC00F0E9D78D0EF6EC38
:1001900001F01200C00EF6EC01F01200C80EF6ECF1
:1001A00001F04F0EB6EC01F0CD0EF6EC01F01200AE
:0A01B000FF0E0C6E0C2EFED712009D
:0601BA008D6AFF0E206EAD
:1001C00025EC01F01200E9EC00F00DD007EC01F095
:1001D00028D0F00E966E538D0F0E846EFF0E206E9B
:1001E00025EC01F0120084A803D0000E0D6EEED7AE
:1001F00084AA03D0010E0D6EE9D784AC03D0020EA1
:100200000D6EE4D784AEEFD7030E0D6EDFD70F0E61
:10021000966E538DF00E846EFF0E206E25EC01F06D
:10022000120084A003D0040E0E6E12D084A203D05C
:10023000050E0E6E0DD084A403D0060E0E6E08D0EF
:1002400084A6D1D7070E0E6E03D0202EFED7120043
:10025000000E0D6213D001D01200040E0E6202D007
:10026000310E1200050E0E6202D0320E1200060E82
:100270000E6202D0330E1200460E1200010E0D6205
:1002800012D000D0040E0E6202D0340E1200050E01
:100290000E6202D0350E1200060E0E6202D0360E2D
:1002A0001200450E1200020E0D6212D000D0040E94
:1002B0000E6202D0370E1200050E0E6202D0380E0A
:1002C0001200060E0E6202D0390E1200440E120009
:1002D00000D0040E0E6202D0410E1200050E0E6216
:1002E00002D0300E1200060E0E6202D0420E120034
:0402F000430E1200A7
:0C02F4008A6AC00E936E280ED9EC01F04F
:10030000300EA8EC01F00A0EE0EC01F0280EA8EC8B
:1003100001F00A0EE0EC01F0280EA8EC01F00A0E44
:10032000E0EC01F00C0EA8EC01F00A0EE0EC01F09C
:10033000EFEC01F0060EA8EC01F00A0EE0EC01F083
:100340001200046EEE50B6EC01F0042EFBD7120042
:10035000036E03380F0B8A6E8A98C7EC01F00350C6
:100360000F0B8A6E8A98C7EC01F01200036E0338F7
:100370000F0B8A6E8A88C7EC01F003500F0B8A6E50
:100380008A88C7EC01F00A0EE0EC01F012000000D0
:1003900000000000000000000000000000008A8A49
:1003A00000000000000000000000000000008A9A29
:1003B0001200026EFA0EE0EC01F0022EFBD71200E2
:1003C000006E003A0F0E0014016EF00E0016EAECFB
:1003D00001F01200000E0006015AFDE21200010EAB
:1003E000A8EC01F0020ED9EC01F01200A8EC01F02B
:0803F0000A0EE0EC01F012001E
:020000040030CA
:0100000015EA
:0100010013EB
:010002007F7E
:010003007F7D
:01000400F902
:010005008B6F
:010006009168
:01000800FFF8
:01000900C036
:01000A00FFF6
:01000B00E014
:01000C00FFF4
:01000D0040B2
:00000001FF
