:020000040000FA
:0400000080EF00F09D
:020004000000FA
:0A0006005052455353204120544F3F
:0600100020484154434862
:020016003300B5
:100100007F9C7F8EC8EC00F09CEC03F088EF00F041
:100110000000000097EC00F0000E806FA2EC03F0EE
:10012000806F410E8063F4D7A8EC00F031D049EC29
:1001300001F0000EF86E000EF76E060EF66E100E51
:100140000B6E0900F55010EC01F00B2EFAD71200DF
:1001500049EC01F0010E10EC01F0010E10EC01F081
:10016000010E10EC01F0C00E50EC01F0050E10EC89
:1001700001F0230E10EC01F0C80E50EC01F0000E5F
:1001800010EC01F01200FF0E0C6E0C2EFED71200C8
:100190008A6AC00E936E280E33EC01F0300E02EC2A
:1001A00001F00A0E3AEC01F0280E02EC01F00A0E02
:1001B0003AEC01F0280E02EC01F00A0E3AEC01F0E4
:1001C0000C0E02EC01F00A0E3AEC01F049EC01F0E1
:1001D000060E02EC01F00A0E3AEC01F056EC01F0CA
:1001E000B7EC01F018EC02F079EC02F0DAEC02F076
:1001F0003BEC03F01200046EEE5010EC01F0042E04
:10020000FBD71200036E03380F0B8A6E8A9821EC1D
:1002100001F003500F0B8A6E8A9821EC01F0120056
:10022000036E03380F0B8A6E8A8821EC01F00350AD
:100230000F0B8A6E8A8821EC01F00A0E3AEC01F06D
:10024000120000000000000000000000000000009C
:1002500000008A8A0000000000000000000000008A
:1002600000008A9A1200026EFA0E3AEC01F0022E99
:10027000FBD71200006E003A0F0E0014016EF00E54
:10028000001644EC01F01200000E0006015AFDE2D7
:100290001200010E02EC01F0020E33EC01F012002C
:1002A00002EC01F00A0E3AEC01F01200400E02ECF2
:1002B00001F00A0E3AEC01F0000E10EC01F00A0E0B
:1002C0003AEC01F0410E02EC01F00A0E3AEC01F0BA
:1002D000040E10EC01F00A0E3AEC01F0420E02ECB2
:1002E00001F00A0E3AEC01F00A0E10EC01F00A0ED1
:1002F0003AEC01F0430E02EC01F00A0E3AEC01F088
:10030000150E10EC01F00A0E3AEC01F0440E02EC6E
:1003100001F00A0E3AEC01F01B0E10EC01F00A0E8F
:100320003AEC01F0450E02EC01F00A0E3AEC01F055
:10033000150E10EC01F00A0E3AEC01F0460E02EC3C
:1003400001F00A0E3AEC01F01B0E10EC01F00A0E5F
:100350003AEC01F0470E02EC01F00A0E3AEC01F023
:100360000E0E10EC01F00A0E3AEC01F01200480EED
:1003700002EC01F00A0E3AEC01F0000E10EC01F074
:100380000A0E3AEC01F0490E02EC01F00A0E3AECCA
:1003900001F00A0E10EC01F00A0E3AEC01F04A0EE0
:1003A00002EC01F00A0E3AEC01F0150E10EC01F02F
:1003B0000A0E3AEC01F04B0E02EC01F00A0E3AEC98
:1003C00001F0110E10EC01F00A0E3AEC01F04C0EA7
:1003D00002EC01F00A0E3AEC01F0110E10EC01F003
:1003E0000A0E3AEC01F04D0E02EC01F00A0E3AEC66
:1003F00001F00A0E10EC01F00A0E3AEC01F04E0E7C
:1004000002EC01F00A0E3AEC01F0040E10EC01F0DF
:100410000A0E3AEC01F04F0E02EC01F00A0E3AEC33
:1004200001F0000E10EC01F00A0E3AEC01F012009F
:10043000500E02EC01F00A0E3AEC01F0000E10EC46
:1004400001F00A0E3AEC01F0510E02EC01F00A0E36
:100450003AEC01F0000E10EC01F00A0E3AEC01F05B
:10046000520E02EC01F00A0E3AEC01F0000E10EC14
:1004700001F00A0E3AEC01F0530E02EC01F00A0E04
:100480003AEC01F00A0E10EC01F00A0E3AEC01F021
:10049000540E02EC01F00A0E3AEC01F00A0E10ECD8
:1004A00001F00A0E3AEC01F0550E02EC01F00A0ED2
:1004B0003AEC01F00E0E10EC01F00A0E3AEC01F0ED
:1004C000560E02EC01F00A0E3AEC01F00E0E10ECA2
:1004D00001F00A0E3AEC01F0570E02EC01F00A0EA0
:1004E0003AEC01F00E0E10EC01F00A0E3AEC01F0BD
:1004F0001200580E02EC01F00A0E3AEC01F0000E68
:1005000010EC01F00A0E3AEC01F0590E02EC01F089
:100510000A0E3AEC01F00A0E10EC01F00A0E3AEC69
:1005200001F05A0E02EC01F00A0E3AEC01F00A0E4C
:1005300010EC01F00A0E3AEC01F05B0E02EC01F057
:100540000A0E3AEC01F01F0E10EC01F00A0E3AEC24
:1005500001F05C0E02EC01F00A0E3AEC01F0150E0F
:1005600010EC01F00A0E3AEC01F05D0E02EC01F025
:100570000A0E3AEC01F01B0E10EC01F00A0E3AECF8
:1005800001F05E0E02EC01F00A0E3AEC01F01F0ED3
:1005900010EC01F00A0E3AEC01F05F0E02EC01F0F3
:1005A0000A0E3AEC01F00E0E10EC01F00A0E3AECD5
:1005B00001F01200600E02EC01F00A0E3AEC01F0BC
:1005C0001B0E10EC01F00A0E3AEC01F0610E02EC89
:1005D00001F00A0E3AEC01F00A0E10EC01F00A0EDE
:1005E0003AEC01F0620E02EC01F00A0E3AEC01F076
:1005F0001F0E10EC01F00A0E3AEC01F0630E02EC53
:1006000001F00A0E3AEC01F0150E10EC01F00A0EA2
:100610003AEC01F0640E02EC01F00A0E3AEC01F043
:100620001B0E10EC01F00A0E3AEC01F0650E02EC24
:1006300001F00A0E3AEC01F01F0E10EC01F00A0E68
:100640003AEC01F0660E02EC01F00A0E3AEC01F011
:100650000E0E10EC01F00A0E3AEC01F0670E02ECFF
:1006600001F00A0E3AEC01F01F0E10EC01F00A0E38
:100670003AEC01F01200680E02EC01F00A0E3AECBE
:1006800001F0000E10EC01F00A0E3AEC01F0690ED8
:1006900002EC01F00A0E3AEC01F0000E10EC01F051
:1006A0000A0E3AEC01F06A0E02EC01F00A0E3AEC86
:1006B00001F00A0E10EC01F00A0E3AEC01F06B0E9C
:1006C00002EC01F00A0E3AEC01F0000E10EC01F021
:1006D0000A0E3AEC01F06C0E02EC01F00A0E3AEC54
:1006E00001F0000E10EC01F00A0E3AEC01F06D0E74
:1006F00002EC01F00A0E3AEC01F00A0E10EC01F0E7
:100700000A0E3AEC01F06E0E02EC01F00A0E3AEC21
:1007100001F00E0E10EC01F00A0E3AEC01F06F0E33
:1007200002EC01F00A0E3AEC01F0000E10EC01F0C0
:080730000A0E3AEC01F0120080
:080738008D6AFF0E206EE4EC57
:1007400003F01200A8EC03F00DD0C6EC03F028D0A3
:10075000F00E966E538D0F0E846EFF0E206EE4EC3D
:1007600003F0120084A803D0000E0D6EEED784AA09
:1007700003D0010E0D6EE9D784AC03D0020E0D6ECE
:10078000E4D784AEEFD7030E0D6EDFD70F0E966E53
:10079000538DF00E846EFF0E206EE4EC03F0120019
:1007A00084A003D0040E0E6E12D084A203D0050ED6
:1007B0000E6E0DD084A403D0060E0E6E08D084A653
:1007C000D1D7070E0E6E03D0202EFED71200000EDA
:1007D0000D6213D001D01200040E0E6202D0310E51
:1007E0001200050E0E6202D0320E1200060E0E62CC
:1007F00002D0330E1200460E1200010E0D6212D00E
:1008000000D0040E0E6202D0340E1200050E0E62ED
:1008100002D0350E1200060E0E6202D0360E120005
:10082000450E1200020E0D6212D000D0040E0E62B0
:1008300002D0370E1200050E0E6202D0380E1200E2
:10084000060E0E6202D0390E1200440E120000D0C5
:10085000040E0E6202D0410E1200050E0E6202D08E
:10086000300E1200060E0E6202D0420E1200430E2F
:02087000120074
:020000040030CA
:0100000015EA
:0100010013EB
:010002007F7E
:010003007F7D
:01000400F902
:010005008B6F
:010006009168
:01000800FFF8
:01000900C036
:01000A00FFF6
:01000B00E014
:01000C00FFF4
:01000D0040B2
:00000001FF
