:020000040000FA
:0400000080EF00F09D
:020004000000FA
:0A0006002A202A202A202A202A207E
:100010002A202A00202A202A202A202A202A202AB0
:100020002000202020202020202020202020200010
:100030005052455353204120544F20484154434887
:020040001200AC
:02004200330089
:020044001200A8
:020046001200A6
:020048001200A4
:100100007F9C7F8E20EC02F0D8EC00F029EC07F009
:100110008AEF00F0000000000000AEEC09F0FF0ED6
:10012000066E000E826FDEEC00F0826F410E82637D
:10013000F6D7BFEC09F011EC02F011EC02F0DAECAA
:1001400009F0FE0E066E640E056E030E086E000EBC
:10015000076EA5EC05F0000E826FDEEC00F0826FFA
:10016000410E826301D0F7D7420E826304D007505C
:1001700024EC00F0F0D7430E826304D0075020EC4B
:1001800000F0E9D7440E826304D0075023EC00F05E
:10019000E2D7450E826304D0075022EC00F0DBD793
:1001A000460E8263D8D7075059EC07F0076ED3D7B5
:1001B0008D6AFF0E206E11EC02F01200E4EC00F0EC
:1001C0000DD002EC01F028D0F00E966E538D0F0E7C
:1001D000846EFF0E206E11EC02F0120084A803D092
:1001E000000E806FEED784AA03D0010E806FE9D78E
:1001F00084AC03D0020E806FE4D784AE76D0030EB9
:10020000806FDFD70F0E966E538DF00E846EFF0E4B
:10021000206E20EC01F0120084A003D0040E816F48
:1002200012D084A203D0050E816F0DD084A403D018
:10023000060E816F08D084A6D1D7070E816F03D038
:10024000202EFED71200000E806313D001D01200C2
:10025000040E816302D0310E1200050E816302D0BC
:10026000320E1200060E816302D0330E1200460ECB
:100270001200010E806312D000D0040E816302D000
:10028000340E1200050E816302D0350E1200060EE8
:10029000816302D0360E1200450E1200020E8063FA
:1002A00012D000D0040E816302D0370E1200050E6A
:1002B000816302D0380E1200060E816302D0390E1F
:1002C0001200440E120000D0040E816302D0410ED1
:1002D0001200050E816302D0300E1200060E8163FB
:1002E00002D0420E1200430E1200FF0E066201D031
:1002F00075D7062E73D7010E055E82EC01F0FE0E57
:10030000066E6CD7000E05641DD0C00E9EEC02F088
:10031000320E056004D0190E056007D00CD0C00E57
:100320009EEC02F0050E5EEC02F0C00E9EEC02F0B8
:10033000060E5EEC02F0C00E9EEC02F0070E5EECC4
:1003400002F01200010E085E020E086201D004D015
:10035000010E08620DD006D0820E9EEC02F0200E37
:100360005EEC02F0810E9EEC02F0200E5EEC02F0DC
:1003700097EC02F0C90E9EEC02F0000E5EEC02F06B
:1003800011EC02F011EC02F011EC02F011EC02F0B1
:10039000C90E9EEC02F0200E5EEC02F0000E5EEC48
:1003A00002F011EC02F0CA0E9EEC02F0200E5EECA0
:1003B00002F0000E5EEC02F011EC02F0CB0E9EECAF
:1003C00002F0200E5EEC02F0000E5EEC02F011EC8A
:1003D00002F0CC0E9EEC02F0200E5EEC02F0000E5D
:1003E0005EEC02F011EC02F0CD0E9EEC02F0200E5D
:1003F0005EEC02F0000E5EEC02F011EC02F0CE0EAC
:100400009EEC02F0200E5EEC02F0000E5EEC02F0BC
:1004100011EC02F0CF0E9EEC02F0200E5EEC02F02A
:100420006FD6FF0E096E092E01D01200FF0E0A6E64
:100430000A2E01D0F8D7FF0E0B6E0B2EFED7F8D781
:100440008A6AC00E936E280E81EC02F0300E50ECDA
:1004500002F00A0E88EC02F0280E50EC02F00A0EB0
:1004600088EC02F0280E50EC02F00A0E88EC02F044
:100470000C0E50EC02F00A0E88EC02F097EC02F041
:10048000060E50EC02F00A0E88EC02F0A4EC02F02A
:100490001200046EEE505EEC02F0042EFBD7120048
:1004A000036E03380F0B8A6E8A986FEC02F00350CC
:1004B0000F0B8A6E8A986FEC02F01200036E0338FD
:1004C0000F0B8A6E8A886FEC02F003500F0B8A6E56
:1004D0008A886FEC02F00A0E88EC02F0120000002D
:1004E00000000000000000000000000000008A8AF8
:1004F00000000000000000000000000000008A9AD8
:100500001200026EFA0E88EC02F0022EFBD71200E7
:10051000006E003A0F0E0014016EF00E001692EC01
:1005200002F01200000E0006015AFDE21200010E58
:1005300050EC02F0020E81EC02F0120050EC02F0DE
:100540000A0E88EC02F01200400E50EC02F00A0E87
:1005500088EC02F0000E5EEC02F00A0E88EC02F06D
:10056000410E50EC02F00A0E88EC02F0040E5EEC34
:1005700002F00A0E88EC02F0420E50EC02F00A0E75
:1005800088EC02F00A0E5EEC02F00A0E88EC02F033
:10059000430E50EC02F00A0E88EC02F0150E5EECF1
:1005A00002F00A0E88EC02F0440E50EC02F00A0E43
:1005B00088EC02F01B0E5EEC02F00A0E88EC02F0F2
:1005C000450E50EC02F00A0E88EC02F0150E5EECBF
:1005D00002F00A0E88EC02F0460E50EC02F00A0E11
:1005E00088EC02F01B0E5EEC02F00A0E88EC02F0C2
:1005F000470E50EC02F00A0E88EC02F00E0E5EEC94
:1006000002F00A0E88EC02F0480E50EC02F00A0EDE
:1006100088EC02F0000E5EEC02F00A0E88EC02F0AC
:10062000490E50EC02F00A0E88EC02F00A0E5EEC65
:1006300002F00A0E88EC02F04A0E50EC02F00A0EAC
:1006400088EC02F0150E5EEC02F00A0E88EC02F067
:100650004B0E50EC02F00A0E88EC02F0110E5EEC2C
:1006600002F00A0E88EC02F04C0E50EC02F00A0E7A
:1006700088EC02F0110E5EEC02F00A0E88EC02F03B
:100680004D0E50EC02F00A0E88EC02F00A0E5EEC01
:1006900002F00A0E88EC02F04E0E50EC02F00A0E48
:1006A00088EC02F0040E5EEC02F00A0E88EC02F018
:1006B0004F0E50EC02F00A0E88EC02F0000E5EECD9
:1006C00002F00A0E88EC02F0500E50EC02F00A0E16
:1006D00088EC02F0000E5EEC02F00A0E88EC02F0EC
:1006E000510E50EC02F00A0E88EC02F0000E5EECA7
:1006F00002F00A0E88EC02F0520E50EC02F00A0EE4
:1007000088EC02F0000E5EEC02F00A0E88EC02F0BB
:10071000530E50EC02F00A0E88EC02F0000E5EEC74
:1007200002F00A0E88EC02F0540E50EC02F00A0EB1
:1007300088EC02F0000E5EEC02F00A0E88EC02F08B
:10074000550E50EC02F00A0E88EC02F0000E5EEC42
:1007500002F00A0E88EC02F0560E50EC02F00A0E7F
:1007600088EC02F00C0E5EEC02F00A0E88EC02F04F
:10077000570E50EC02F00A0E88EC02F00C0E5EEC04
:1007800002F00A0E88EC02F0580E50EC02F00A0E4D
:1007900088EC02F0000E5EEC02F00A0E88EC02F02B
:1007A000590E50EC02F00A0E88EC02F0150E5EECC9
:1007B00002F00A0E88EC02F05A0E50EC02F00A0E1B
:1007C00088EC02F00E0E5EEC02F00A0E88EC02F0ED
:1007D0005B0E50EC02F00A0E88EC02F01F0E5EEC8D
:1007E00002F00A0E88EC02F05C0E50EC02F00A0EE9
:1007F00088EC02F00E0E5EEC02F00A0E88EC02F0BD
:100800005D0E50EC02F00A0E88EC02F0150E5EEC64
:1008100002F00A0E88EC02F05E0E50EC02F00A0EB6
:1008200088EC02F0000E5EEC02F00A0E88EC02F09A
:100830005F0E50EC02F00A0E88EC02F0000E5EEC47
:1008400002F00A0E88EC02F0600E50EC02F00A0E84
:1008500088EC02F0000E5EEC02F00A0E88EC02F06A
:10086000610E50EC02F00A0E88EC02F00F0E5EEC06
:1008700002F00A0E88EC02F0620E50EC02F00A0E52
:1008800088EC02F01C0E5EEC02F00A0E88EC02F01E
:10089000630E50EC02F00A0E88EC02F0180E5EECCB
:1008A00002F00A0E88EC02F0640E50EC02F00A0E20
:1008B00088EC02F0180E5EEC02F00A0E88EC02F0F2
:1008C000650E50EC02F00A0E88EC02F01C0E5EEC95
:1008D00002F00A0E88EC02F0660E50EC02F00A0EEE
:1008E00088EC02F00F0E5EEC02F00A0E88EC02F0CB
:1008F000670E50EC02F00A0E88EC02F0000E5EEC7F
:1009000002F00A0E88EC02F0680E50EC02F00A0EBB
:1009100088EC02F0000E5EEC02F00A0E88EC02F0A9
:10092000690E50EC02F00A0E88EC02F0000E5EEC4C
:1009300002F00A0E88EC02F06A0E50EC02F00A0E89
:1009400088EC02F00A0E5EEC02F00A0E88EC02F06F
:100950006B0E50EC02F00A0E88EC02F0000E5EEC1A
:1009600002F00A0E88EC02F06C0E50EC02F00A0E57
:1009700088EC02F0000E5EEC02F00A0E88EC02F049
:100980006D0E50EC02F00A0E88EC02F00A0E5EECDE
:1009900002F00A0E88EC02F06E0E50EC02F00A0E25
:1009A00088EC02F00E0E5EEC02F00A0E88EC02F00B
:1009B0006F0E50EC02F00A0E88EC02F0000E5EECB6
:1009C00002F00A0E88EC02F0700E50EC02F00A0EF3
:1009D00088EC02F0000E5EEC02F00A0E88EC02F0E9
:1009E000710E50EC02F00A0E88EC02F0000E5EEC84
:1009F00002F00A0E88EC02F0720E50EC02F00A0EC1
:100A000088EC02F00A0E5EEC02F00A0E88EC02F0AE
:100A1000730E50EC02F00A0E88EC02F0000E5EEC51
:100A200002F00A0E88EC02F0740E50EC02F00A0E8E
:100A300088EC02F0000E5EEC02F00A0E88EC02F088
:100A4000750E50EC02F00A0E88EC02F00E0E5EEC11
:100A500002F00A0E88EC02F0760E50EC02F00A0E5C
:100A600088EC02F0000E5EEC02F00A0E88EC02F058
:100A7000770E50EC02F00A0E88EC02F0000E5EECED
:100A800002F00A0E88EC02F0780E50EC02F00A0E2A
:100A900088EC02F0000E5EEC02F00A0E88EC02F028
:100AA000790E50EC02F00A0E88EC02F0000E5EECBB
:100AB00002F00A0E88EC02F07A0E50EC02F00A0EF8
:100AC00088EC02F00A0E5EEC02F00A0E88EC02F0EE
:100AD0007B0E50EC02F00A0E88EC02F0000E5EEC89
:100AE00002F00A0E88EC02F07C0E50EC02F00A0EC6
:100AF00088EC02F0000E5EEC02F00A0E88EC02F0C8
:100B00007D0E50EC02F00A0E88EC02F00E0E5EEC48
:100B100002F00A0E88EC02F07E0E50EC02F00A0E93
:100B200088EC02F00A0E5EEC02F00A0E88EC02F08D
:100B30007F0E50EC02F00A0E88EC02F0000E5EEC24
:100B400002F00A0E88EC02F01200400E50EC02F0A7
:100B50000A0E88EC02F00E0E5EEC02F00A0E88EC33
:100B600002F0410E50EC02F00A0E88EC02F01F0E6B
:100B70005EEC02F00A0E88EC02F0420E50EC02F03D
:100B80000A0E88EC02F0150E5EEC02F00A0E88ECFC
:100B900002F0430E50EC02F00A0E88EC02F01F0E39
:100BA0005EEC02F00A0E88EC02F0440E50EC02F00B
:100BB0000A0E88EC02F01F0E5EEC02F00A0E88ECC2
:100BC00002F0450E50EC02F00A0E88EC02F01F0E07
:100BD0005EEC02F00A0E88EC02F0460E50EC02F0D9
:100BE0000A0E88EC02F0150E5EEC02F00A0E88EC9C
:100BF00002F0470E50EC02F00A0E88EC02F0000EF4
:100C00005EEC02F00A0E88EC02F01200500E50EC7E
:100C100002F00A0E88EC02F0000E5EEC02F00A0E02
:100C200088EC02F0510E50EC02F00A0E88EC02F053
:100C3000000E5EEC02F00A0E88EC02F0520E50EC50
:100C400002F00A0E88EC02F0000E5EEC02F00A0ED2
:100C500088EC02F0530E50EC02F00A0E88EC02F021
:100C60000A0E5EEC02F00A0E88EC02F0540E50EC14
:100C700002F00A0E88EC02F00A0E5EEC02F00A0E98
:100C800088EC02F0550E50EC02F00A0E88EC02F0EF
:100C90000E0E5EEC02F00A0E88EC02F0560E50ECDE
:100CA00002F00A0E88EC02F00E0E5EEC02F00A0E64
:100CB00088EC02F0570E50EC02F00A0E88EC02F0BD
:100CC0000E0E5EEC02F00A0E88EC02F01200500EDE
:100CD00050EC02F00A0E88EC02F0000E5EEC02F01E
:100CE0000A0E88EC02F0510E50EC02F00A0E88EC6D
:100CF00002F00A0E5EEC02F00A0E88EC02F0520ED0
:100D000050EC02F00A0E88EC02F00A0E5EEC02F0E3
:100D10000A0E88EC02F0530E50EC02F00A0E88EC3A
:100D200002F01F0E5EEC02F00A0E88EC02F0540E88
:100D300050EC02F00A0E88EC02F0150E5EEC02F0A8
:100D40000A0E88EC02F0550E50EC02F00A0E88EC08
:100D500002F01B0E5EEC02F00A0E88EC02F0560E5A
:100D600050EC02F00A0E88EC02F01F0E5EEC02F06E
:100D70000A0E88EC02F0570E50EC02F00A0E88ECD6
:100D800002F00E0E5EEC02F00A0E88EC02F0120089
:100D9000500E50EC02F00A0E88EC02F01B0E5EECD6
:100DA00002F00A0E88EC02F0510E50EC02F00A0E2E
:100DB00088EC02F00A0E5EEC02F00A0E88EC02F0FB
:100DC000520E50EC02F00A0E88EC02F01F0E5EECA0
:100DD00002F00A0E88EC02F0530E50EC02F00A0EFC
:100DE00088EC02F0150E5EEC02F00A0E88EC02F0C0
:100DF000540E50EC02F00A0E88EC02F01B0E5EEC72
:100E000002F00A0E88EC02F0550E50EC02F00A0EC9
:100E100088EC02F01F0E5EEC02F00A0E88EC02F085
:100E2000560E50EC02F00A0E88EC02F00E0E5EEC4C
:100E300002F00A0E88EC02F0570E50EC02F00A0E97
:100E400088EC02F01F0E5EEC02F00A0E88EC02F055
:020E500012008E
:0E0E5200000E166E1200000EF86E000EF76E07
:100E6000060EF66E0D0E136E0900F5505EEC02F0E4
:100E7000132EFAD71200000EF86E000EF76E140E45
:100E8000F66E0D0E146E0900F5505EEC02F0142E95
:100E9000FAD71200000EF86E000EF76E220EF66EF4
:100EA0000D0E156E0900F5505EEC02F0152EFAD706
:100EB00012000E6E010E1626850E9EEC02F0270E15
:100EC0005EEC02F002EC09F0850E9EEC02F02C0EB6
:100ED0005EEC02F002EC09F0850E9EEC02F0200EB2
:100EE0005EEC02F0C50E9EEC02F0270E5EEC02F006
:100EF00002EC09F0C50E9EEC02F02C0E5EEC02F046
:100F000002EC09F0C90E9EEC02F0200E5EEC02F03D
:100F1000C80E9EEC02F0020E5EEC02F002EC09F04C
:100F2000C80E9EEC02F0200E5EEC02F0C70E9EECA6
:100F300002F0020E5EEC02F002EC09F0C70E9EEC2D
:100F400002F0200E5EEC02F0C60E9EEC02F0020EE5
:100F50005EEC02F002EC09F0C60E9EEC02F0200EF0
:100F60005EEC02F0C50E9EEC02F0020E5EEC02F0AA
:100F700002EC09F0C50E9EEC02F0200E5EEC02F0D1
:100F8000020E5EEC02F002EC09F0C60E9EEC02F0DE
:100F9000200E5EEC02F0020E5EEC02F002EC09F0B4
:100FA000C70E9EEC02F0200E5EEC02F0020E5EEC2C
:100FB00002F002EC09F0C80E9EEC02F0200E5EEC8E
:100FC00002F0020E5EEC02F0020E166201D00AD0B0
:100FD000040E166201D006D0060E166201D002D0B1
:100FE0000E501200010E0E2602EC09F002EC09F080
:100FF00002EC09F0C90E9EEC02F02A0E5EEC02F043
:1010000002EC09F002EC09F0CA0E9EEC02F02A0E86
:101010005EEC02F0890E9EEC02F02A0E5EEC02F00D
:10102000C80E9EEC02F02A0E5EEC02F002EC09F013
:1010300002EC09F0CB0E9EEC02F02A0E5EEC02F000
:101040008A0E9EEC02F02A0E5EEC02F0880E9EECF8
:1010500002F02A0E5EEC02F0C70E9EEC02F02A0EA1
:101060005EEC02F002EC09F002EC09F0CC0E9EEC12
:1010700002F02A0E5EEC02F08B0E9EEC02F02A0EBD
:101080005EEC02F0870E9EEC02F02A0E5EEC02F09F
:10109000C60E9EEC02F02A0E5EEC02F002EC09F0A5
:1010A00002EC09F0CD0E9EEC02F02A0E5EEC02F08E
:1010B0008C0E9EEC02F02A0E5EEC02F0860E9EEC88
:1010C00002F02A0E5EEC02F0C50E9EEC02F02A0E33
:1010D0005EEC02F002EC09F002EC09F0CE0E9EECA0
:1010E00002F02A0E5EEC02F08D0E9EEC02F02A0E4B
:1010F0005EEC02F0850E9EEC02F02A0E5EEC02F031
:10110000C40E9EEC02F02A0E5EEC02F002EC09F036
:1011100002EC09F0CF0E9EEC02F02A0E5EEC02F01B
:101120008E0E9EEC02F02A0E5EEC02F0840E9EEC17
:1011300002F02A0E5EEC02F0C30E9EEC02F02A0EC4
:101140005EEC02F002EC09F002EC09F08F0E9EEC6E
:1011500002F02A0E5EEC02F0830E9EEC02F02A0EE4
:101160005EEC02F0050E126E02EC09F002EC09F0E2
:10117000830E9EEC02F02CEC07F0C30E9EEC02F006
:101180003BEC07F002EC09F002EC09F0830E9EEC58
:1011900002F03BEC07F0C30E9EEC02F02CEC07F0E3
:1011A000122EE2D7830E9EEC02F04AEC07F0C30E3B
:1011B0009EEC02F04AEC07F0010E0E6201D004D062
:1011C000020E0E6215D00AD006EC06F0C90E9EEC97
:1011D00002F0020E5EEC02F00E50120067EC06F018
:1011E000C90E9EEC02F0020E5EEC02F00E501200F0
:1011F000C8EC06F0C90E9EEC02F0020E5EEC02F0A6
:101200000E501200900E0F6E0F2E01D01200900E95
:10121000106E102E01D0F8D7900E116E112EFED741
:02122000F8D7FD
:0E1222008D6AFF0E206E59EC09F012001DECD3
:1012300009F00DD03BEC09F028D0F00E966E538DDE
:101240000F0E846EFF0E206E59EC09F0120084A878
:1012500003D0000E0C6EEED784AA03D0010E0C6EE4
:10126000E9D784AC03D0020E0C6EE4D784AEEFD77E
:10127000030E0C6EDFD70F0E966E538DF00E846E3C
:10128000FF0E206E59EC09F0120084A003D0040E6A
:101290000D6E12D084A203D0050E0D6E0DD084A465
:1012A00003D0060E0D6E08D084A6D1D7070E0D6EA2
:1012B00003D0202EFED71200000E0C6213D001D0F6
:1012C0001200040E0D6202D0310E1200050E0D62E6
:1012D00002D0320E1200060E0D6202D0330E120042
:1012E000460E1200010E0C6212D000D0040E0D62E8
:1012F00002D0340E1200050E0D6202D0350E12001F
:10130000060E0D6202D0360E1200450E1200020EBD
:101310000C6212D000D0040E0D6202D0370E120003
:10132000050E0D6202D0380E1200060E0D6202D0BC
:10133000390E1200440E120000D0040E0D6202D0CD
:10134000410E1200050E0D6202D0300E1200060E84
:0C1350000D6202D0420E1200430E12008B
:04135C0097EC02F018
:10136000000EF86E000EF76E300EF66E100E1A6E4E
:101370000900F5505EEC02F01A2EFAD7120097EC35
:1013800002F0010E5EEC02F0010E5EEC02F0010EC6
:101390005EEC02F0C00E9EEC02F0050E5EEC02F078
:1013A000030E5EEC02F0C90E9EEC02F0000E5EEC45
:1013B00002F0120035EC0AF00F0E206EC80E9EEC03
:1013C00002F0B20E5EEC02F0CA0E9EEC02F0B20E1B
:1013D0005EEC02F035EC0AF0C80E9EEC02F0200E36
:1013E0005EEC02F0CA0E9EEC02F0200E5EEC02F003
:1013F00035EC0AF0202EE2D7050E206EC90E9EECC9
:1014000002F0000E5EEC02F035EC0AF0C90E9EEC24
:1014100002F0200E5EEC02F035EC0AF0202EEED742
:10142000C90E9EEC02F0020E5EEC02F0C80E9EECBD
:1014300002F0280E5EEC02F0CA0E9EEC02F0290EBD
:101440005EEC02F035EC0AF035EC0AF035EC0AF00F
:10145000C80E9EEC02F0200E5EEC02F0CA0E9EEC6E
:1014600002F0200E5EEC02F01200200E176E172E16
:1014700001D01200200E186E182E01D0F8D7200EC1
:08148000196E192EFED7F8D7F2
:020000040030CA
:0100000015EA
:0100010013EB
:010002007F7E
:010003007F7D
:01000400F902
:010005008B6F
:010006009168
:01000800FFF8
:01000900C036
:01000A00FFF6
:01000B00E014
:01000C00FFF4
:01000D0040B2
:00000001FF
