:020000040000FA
:0400000083EF00F09A
:020004000000FA
:0A0006008A6AC00E936E280E65ECA6
:1000100000F0300E34EC00F00A0E6CEC00F0280E0C
:1000200034EC00F00A0E6CEC00F0280E34EC00F01A
:100030000A0E6CEC00F00C0E34EC00F00A0E6CECC6
:1000400000F07BEC00F0020E65EC00F0060E34ECE4
:1000500000F00A0E6CEC00F01200046EEE5042EC60
:1000600000F0042EFBD71200036E03380F0B8A6ECC
:100070008A9853EC00F003500F0B8A6E8A9853EC69
:1000800000F01200036E03380F0B8A6E8A8853EC5F
:1000900000F003500F0B8A6E8A8853EC00F00A0EB2
:1000A0006CEC00F0120000000000000000000000F6
:1000B0000000000000008A8A00000000000000002C
:1000C0000000000000008A9A1200026EFA0E6CEC2A
:1000D00000F0022EFBD71200006E003A0F0E001443
:1000E000016EF00E001676EC00F01200000E000615
:1000F000015AFDE21200010E34EC00F01200C00EB5
:0601000034EC00F01200D7
:0A0106007F9C7F8E03EC00F089EF70
:1001100000F0000EF86E010EF76E380EF66E0D0E42
:100120000B6E0900F55042EC00F00B2EFAD797EF5A
:0801300000F00C2EFED71200B6
:0801380048656C6C6F20576FE5
:06014000726C64210A004C
:020000040030CA
:0100000015EA
:0100010013EB
:010002007F7E
:010003007F7D
:01000400F902
:010005008B6F
:010006009168
:01000800FFF8
:01000900C036
:01000A00FFF6
:01000B00E014
:01000C00FFF4
:01000D0040B2
:00000001FF
