:020000040000FA
:020000000000FE
:0E000200B6EC00F0FF0E206E52EC00F08D6A9E
:10001000FF0E206E52EC00F016EC00F011D034EC24
:1000200000F02CD06CC200F0F5EC00F0F00E966EF3
:10003000538D0F0E846EFF0E206E52EC00F01200F6
:1000400084A803D0000E056EEAD784AA03D0010E5F
:10005000056EE5D784AC03D0020E056EE0D784AE02
:10006000EFD7030E056EDBD70F0E966E538DF00E95
:10007000846EFF0E206E52EC00F0120084A003D0BC
:10008000040E066E12D084A203D0050E066E0DD0AB
:1000900084A403D0060E066E08D084A6D1D7070E1E
:1000A000066E03D0202EFED71200000E056216D079
:1000B00000D0040E066203D0310E6C6FB3D7050E6C
:1000C000066203D0320E6C6FADD7060E066203D007
:1000D000330E6C6FA7D7460E6C6FA4D7010E056266
:1000E00016D000D0040E066203D0340E6C6F9AD77F
:1000F000050E066203D0350E6C6F94D7060E0662AD
:1001000003D0360E6C6F8ED7450E6C6F8BD7020EF8
:10011000056216D000D0040E066203D0370E6C6F55
:1001200081D7050E066203D0380E6C6F7BD7060EA2
:10013000066203D0390E6C6F75D7440E6C6F72D7A0
:1001400000D0040E066203D0410E6C6F6BD7050E13
:10015000066203D0300E6C6F65D7060E066203D0C0
:0C016000420E6C6F5FD7430E6C6F5CD7D3
:04016C008A6AC00ECD
:10017000936E280E18EC01F0300EE7EC00F00A0E3A
:100180001FEC01F0280EE7EC00F00A0E1FEC01F066
:10019000280EE7EC00F00A0E1FEC01F00F0EE7EC62
:1001A00000F00A0E1FEC01F02EEC01F0020E18EC2C
:1001B00001F0060EE7EC00F00A0E1FEC01F0120051
:1001C000046EDE50F5EC00F0042EFBD71200036E37
:1001D00003380F0B8A6E8A9806EC01F003500F0B60
:1001E0008A6E8A9806EC01F01200036E03380F0B3A
:1001F0008A6E8A8806EC01F003500F0B8A6E8A889B
:1002000006EC01F00A0E1FEC01F0120000000000E5
:100210000000000000000000000000008A8A0000CA
:100220000000000000000000000000008A9A120098
:10023000026EFA0E1FEC01F0022EFBD71200006EC8
:10024000003A0F0E0014016EF00E001629EC01F0BA
:100250001200000E0006015AFDE21200010EE7EC4A
:0C02600000F01200C00EE7EC00F01200ED
:02026C0033005D
:020000040030CA
:0100000015EA
:0100010013EB
:010002007F7E
:010003007F7D
:01000400F902
:010005008B6F
:010006009168
:01000800FFF8
:01000900C036
:01000A00FFF6
:01000B00E014
:01000C00FFF4
:01000D0040B2
:00000001FF
